:020000040800F2
:100000000000022095040008690400086B04000841
:100010006D0400086F04000871040008000000006F
:100020000000000000000000000000007304000851
:100030007504000800000000770400087904000837
:10004000E5040008E5040008E5040008E5040008EC
:10005000E5040008E5040008E5040008E5040008DC
:10006000E5040008E5040008E5040008E5040008CC
:10007000E5040008E5040008E5040008E5040008BC
:10008000E5040008E5040008E5040008E5040008AC
:1000900081040008E5040008E5040008E504000800
:1000A000E5040008E5040008E5040008E50400088C
:1000B000E5040008E5040008E5040008E50400087C
:1000C000E5040008E5040008E5040008E50400086C
:1000D000E5040008E5040008E5040008E50400085C
:1000E000E5040008E5040008E5040008E50400084C
:1000F000E5040008E5040008E5040008E50400083C
:10010000E5040008E5040008E5040008E50400082B
:10011000E5040008E5040008E5040008E50400081B
:10012000E5040008E5040008E5040008E50400080B
:10013000E5040008E5040008E5040008E5040008FB
:10014000E5040008E5040008E5040008E5040008EB
:10015000E5040008E5040008E5040008E5040008DB
:10016000E5040008E5040008E5040008E5040008CB
:10017000E5040008E5040008E504000800000000AC
:08018000E5040008E504000895
:1001880053B94AB9002908BF00281CBF4FF0FF31F6
:100198004FF0FF3000F00CB8ADF1080C6DE904CE5B
:1001A80001F0E0F9DDF804E0DDE9022304B070476E
:1001B800704700BF0348044B834202D0034B03B18E
:1001C80018477047100000201000002000000000B1
:1001D8000548064B1B1AD90F01EBA301491002D0A1
:1001E800034B03B11847704710000020100000208F
:1001F8000000000010B5064C237843B9FFF7DAFF7A
:10020800044B13B10448AFF300800123237010BDE1
:100218001000002000000000EC19000808B5054B8C
:100228001BB105490548AFF30080BDE80840FFF75A
:10023800CFBF00BF0000000014000020EC19000828
:1002480008B50D480D4B036003234360002383600A
:10025800C3604FF4002202614FF4401242610376FA
:1002680043768376C3760377437700F09FF900B926
:1002780008BD00F06BF8FBE72C000020006400408C
:1002880010B588B00023039304930593069307934E
:100298000268194B9A4201D008B010BD002401949D
:1002A80003F5EA331A6C42F000721A641A6C02F011
:1002B80000720192019A02941A6B42F002021A63C8
:1002C8001B6B03F002030293029B4FF440730393EA
:1002D80002230493032306930923079303A90748DA
:1002E80000F0E4FC22462146142000F0B7FC14205C
:1002F80000F0C4FCD0E700BF0064004000040240E6
:1003080084B000220192104B196B41F0020119636D
:10031800196B01F00201019101990292196B41F0E8
:1003280001011963196B01F001010291029903920D
:100338001A6B42F080021A631B6B03F0800303936D
:10034800039B04B0704700BF0038024072B6FEE756
:1003580000B595B03022002108A801F061FA002309
:10036800039304930593069307930193204A116C12
:1003780041F080511164126C02F080520192019A8E
:1003880002931C4B1A6842F480421A601B6803F4FB
:1003980080430293029B012308934FF4803309930F
:1003A80002230E934FF480020F9206221092A82285
:1003B800119212930423139308A800F071FD98B9C1
:1003C8000F23039302230493002305934FF4A053B0
:1003D80006934FF480530793052103A800F0B0FF5C
:1003E80020B915B05DF804FBFFF7B0FFFFF7AEFFCB
:1003F800003802400070004000B583B000F096F865
:10040800FFF7A6FFFFF77CFFFFF71AFF0022009215
:1004180013464FF47A714FF4FF7001F041F802204F
:1004280000F0B0F8F2E7000082B0002100910B4B19
:100438005A6C42F480425A645A6C02F48042009228
:10044800009A01911A6C42F080521A641B6C03F0F6
:1004580080530193019B02B0704700BF00380240EF
:10046800FEE7FEE7FEE7FEE7FEE7704770477047E6
:1004780008B500F075F808BD08B5024800F072FA32
:1004880008BD00BF2C00002070470000DFF834D002
:10049800FFF7FAFF0C480D490D4A002302E0D45833
:1004A800C4500433C4188C42F9D30A4A0A4C0023B6
:1004B80001E013600432A242FBD301F003FAFFF714
:1004C8009BFF704700000220000000201000002061
:1004D800281A00081000002004020020FEE700008F
:1004E80010B504460E4B1A784FF47A73B3FBF2F347
:1004F8000C4A1068B0FBF3F000F0C4FB68B90F2C8D
:1005080001D901200AE0002221464FF0FF3000F017
:10051800A5FB054B1C60002000E0012010BD00BFBA
:1005280004000020000000200800002008B50B4B44
:100538001A6842F400721A601A6842F480621A60FB
:100548001A6842F480721A60032000F075FB0F20CD
:10055800FFF7C6FFFFF768FF002008BD003C024018
:10056800034A1168034B1B780B441360704700BFA4
:100578005400002004000020014B1868704700BF99
:100588005400002038B50446FFF7F6FF0546B4F1DD
:10059800FF3F02D0044B1B781C44FFF7EDFF401BC4
:1005A800A042FAD338BD00BF04000020002800F0A4
:1005B800A18038B5044690F82030D3B1226813687A
:1005C80043F001031360FFF7D7FF054623685A6815
:1005D80012F0010F10D1FFF7CFFF401B0A28F5D901
:1005E800636A43F400336362052384F820300120F2
:1005F80038BDFFF745FEE1E71A6822F002021A60EB
:10060800FFF7BAFF054623685A6812F0020F0DD0AB
:10061800FFF7B2FF401B0A28F5D9636A43F4003399
:100628006362052384F820300120E1E7227E012A55
:100638003DD01A6822F080021A60637E012B3BD0FD
:100648002268136823F040031360A37E012B39D07E
:100658002268136823F020031360E37E012B37D050
:100668002268136843F010031360237F012B35D0F1
:100678002268136823F008031360637F012B33D0CB
:100688002268136823F004031360A368E268134325
:1006980022691343626913436268013A216813436C
:1006A800CB6100206062012384F82030A0E71A683B
:1006B80042F080021A60C0E72268136843F04003E2
:1006C8001360C2E72268136843F020031360C4E78D
:1006D8002268136823F010031360C6E722681368C2
:1006E80043F008031360C8E72268136843F0040363
:1006F8001360CAE70120704730B590F820C004683D
:10070800A4680CF1FF3C5FFA8CFCBCF1010F62D8C5
:1007180014F0E05F59D0C4F3016C012404FA0CF41E
:100728001C608B68002B3DD10D68CB68046843EAD8
:1007380045550CF118031B01E55003680C690CF1D1
:10074800180E03EB0E135C600B7D012B35D0D179AD
:1007580093791B0443EA0163517943EA012314792D
:100768000168234301EB0C11C1F88C31D1789378DF
:100778001B0443EA0163517843EA012311780268B4
:100788000B4302EB0C12C2F8883102680CF1180C0A
:100798004FEA0C1C52F80C3043F0010342F80C30BD
:1007A80000201DE04C6843EAC403CC6823430CF1E5
:1007B8001804240105682B51BFE7036803EB0E13E7
:1007C800596841F480715960C1E7436A43F40013E2
:1007D8004362012004E0436A43F48023436201201A
:1007E80030BD90F820C00CF1FF3C5FFA8CFCBCF1E6
:1007F800010F00F2A58030B451B90468E46814F020
:10080800030F10D1436A43F40013436201207EE0D2
:100818000468246914F0030F05D1436A43F40013F4
:100828004362012073E0056801F11B0424012C597F
:1008380004F004049460002C6BD1056801F11B04DA
:1008480024012C59640D1460046801F11B0C4FEA53
:100858000C1C54F80C4004F00204D4600468A4444E
:10086800DCF8045015F0080F5BD008241461046804
:1008780001F11B0C04EB0C146468C4F307249461A5
:10088800046804EB0C146468240C5461026802EBDD
:100898000112D2F8B8211A70026802EB0112D2F8DC
:1008A800B821C2F307225A70026802EB0112D2F88B
:1008B800B821C2F307429A70026802EB0112D2F81B
:1008C800B821120EDA70026802EB0112D2F8BC21CC
:1008D8001A71026802EB0112D2F8BC21C2F3072296
:1008E8005A71026802EB0112D2F8BC21C2F3074226
:1008F8009A71026802EB0112D2F8BC21120EDA7169
:10090800C1B90268D36843F02003D360002030BC2B
:100918007047056801F11B0424012C59E408546050
:1009280092E701F11B0504EB0514646804F00F0459
:1009380014619CE70268136943F020031361E5E73B
:10094800436A43F48023436201207047704770472D
:1009580070477047704770477047704770477047D7
:10096800704770472DE9F84F054603685C69D3F86E
:1009780004809F68D3F80CA0D3F81090D3F818B06F
:1009880014F001063BD017F0010616D001229A6038
:1009980017F0020F08D117F0040F0CD117F0080652
:1009A80006D04FF4805608E0FFF7D0FF002604E099
:1009B800FFF7CFFF01E04FF4006617F4807F0DD0FA
:1009C8002B684FF480729A6017F4007F40F096808D
:1009D80017F4806F00F0968046F4005617F4803FB5
:1009E8000DD02B684FF480329A6017F4003F40F026
:1009F800938017F4802F00F0938046F4004614F09B
:100A0800080F07D01AF0100F04D046F400762B68B0
:100A18001022DA6014F0040F03D01AF0080F40F027
:100A2800898014F0020F05D02B68DB6813F0030FE0
:100A380040F0878014F0400F07D019F0100F04D051
:100A480046F480662B6810221A6114F0200F02D039
:100A580019F0080F79D114F0100F04D02B681B6916
:100A680013F0030F78D114F4003F02D018F0100FE0
:100A780076D114F4803F02D018F0080F77D114F41F
:100A8800004F37D018F0040F31D014F4807F04D011
:100A98001BF0010F01D046F0010614F4007F04D0CA
:100AA8001BF0020F01D046F0020614F4806F04D048
:100AB8001BF0040F01D046F0040614F4006F16D0A2
:100AC8001BF0700B13D0BBF1400F66D056D8BBF1AA
:100AD800200F5CD0BBF1300F5CD0BBF1100F01D1FF
:100AE80046F008062A68936923F0700393612B681F
:100AF80004225A60002E56D1BDE8F88F2846FFF729
:100B080026FF6BE717F4006F02D046F4804665E7CE
:100B18002846FFF71FFF61E72846FFF719FF6EE732
:100B280017F4002F02D046F4803668E72846FFF70E
:100B380012FF64E72B680822DA602846FFF70CFFEB
:100B48006FE7284600F00AFD74E72B6808221A614F
:100B58002846FFF703FF7EE72846FFF7FEFE82E7F9
:100B68002B6810225A602846FFF7F9FE81E72B68A8
:100B780008225A602846FFF7F3FE80E7BBF1500FC2
:100B88000ED0BBF1600FADD146F48076AAE746F0EF
:100B98001006A7E746F02006A4E746F04006A1E7BE
:100BA80046F080069EE76B6A33436B622846FFF780
:100BB800D8FEA1E7002807DB00F01F024009012347
:100BC8009340024A42F82030704700BF00E100E03D
:100BD800002808DB0901C9B200F1604000F5614056
:100BE80080F80013704700F00F000901C9B2014BEB
:100BF8001954704714ED00E000B500F00700C0F18B
:100C0800070CBCF1040F28BF4FF0040C031D062B82
:100C18000FD9C31E4FF0FF3E0EFA0CF021EA000177
:100C280099400EFA03FE22EA0E0241EA02005DF83C
:100C380004FB0023EEE70000074AD36823F4E063CF
:100C48001B041B0C000200F4E060034343F0BF6385
:100C580043F40033D360704700ED00E010B504465C
:100C6800054BD868C0F30220FFF7C6FF01462046AF
:100C7800FFF7AEFF10BD00BF00ED00E008B5FFF7BD
:100C880099FF08BD0138B0F1807F0BD24FF0E02307
:100C98005861054AF02182F8231000209861072244
:100CA8001A6170470120704700ED00E000230F2B08
:100CB80000F2EC8030B583B068E085684FEA430EF7
:100CC800032404FA0EF425EA0405CC6804FA0EF4A9
:100CD8002C438460446824EA02044A68C2F3001280
:100CE8009A40224342605FE0DC08083450F8242030
:100CF80003F00705AD004FF00F0E0EFA05FE22EACD
:100D08000E0E0A69AA4042EA0E0240F824205FE06B
:100D1800072200E0002202FA0EF22A4302345C4D58
:100D280045F824205B4A94686FEA0C0224EA0C0513
:100D3800D1F804E01EF4801F01D04CEA0405554C9C
:100D4800A560E46802EA0405D1F804E01EF4001F77
:100D580001D04CEA04054F4CE560646802EA0405DA
:100D6800D1F804E01EF4003F01D04CEA0405494CD8
:100D78006560246822404D6815F4803F01D04CEA34
:100D88000402444C226001330F2B7DD801229A4083
:100D98000C6804EA020C32EA0404F4D14C6804F04A
:100DA8000304013C012C88D94A6802F00302032A93
:100DB80009D0C4685D000322AA4024EA02048A68B4
:100DC800AA402243C2604A6802F00302022A8BD07A
:100DD80004684FEA430E032202FA0EF224EA0204E0
:100DE8004A6802F0030202FA0EF2224302604A68DD
:100DF80012F4403FC7D000220192274A546C44F4B1
:100E080080445464526C02F480420192019A9C0816
:100E1800A51C1F4A52F8255003F0030E4FEA8E0E08
:100E28000F2202FA0EF225EA02051C4A90423FF40C
:100E380071AF02F5806290421AD002F5806290424A
:100E480018D002F58062904216D002F58062904276
:100E580014D002F58062904212D002F5806290426E
:100E680010D002F5806290423FF452AF082252E758
:100E7800012250E702224EE703224CE704224AE708
:100E8800052248E7062246E703B030BD704700BF99
:100E980000380140003C0140003802400000024098
:100EA800002800F0E08170B582B00446036813F0B2
:100EB800010F3BD09F4B9B6803F00C03042B2CD0F5
:100EC8009C4B9B6803F00C03082B21D06368B3F597
:100ED800803F4FD0B3F5A02F52D0964B1A6822F41A
:100EE80080321A601A6822F480221A606368002B24
:100EF80050D0FFF741FB05468E4B1B6813F4003FAB
:100F080014D1FFF739FB401B6428F5D90320B1E160
:100F1800884B5B6813F4800FD8D0864B1B6813F49A
:100F2800003F03D06368002B00F09F81236813F013
:100F3800020F54D07F4B9B6813F00C0F3ED07D4BB3
:100F48009B6803F00C03082B33D0E368002B68D0B0
:100F5800794B01221A60FFF70FFB0546754B1B689A
:100F680013F0020F54D1FFF707FB401B0228F5D9F5
:100F780003207FE16F4A136843F480331360B5E7B9
:100F88006C4B1A6842F480221A601A6842F4803264
:100F98001A60ABE7FFF7F0FA0546664B1B6813F4D7
:100FA800003FC3D0FFF7E8FA401B6428F5D90320B7
:100FB80060E1604B5B6813F4800FC6D15D4B1B6822
:100FC80013F0020F03D0E368012B40F05081594A17
:100FD800136823F0F803216943EAC1031360236807
:100FE80013F0080F42D063696BB3534B0122C3F867
:100FF800802EFFF7C1FA05464E4B5B6F13F0020FC8
:1010080034D1FFF7B9FA401B0228F5D9032031E1A2
:10101800484A136823F0F803216943EAC1031360BF
:10102800DDE7454B00221A60FFF7A6FA0546414B5B
:101038001B6813F0020FD2D0FFF79EFA401B02285C
:10104800F5D9032016E13C4B0022C3F8802EFFF7A8
:1010580093FA0546374B5B6F13F0020F06D0FFF784
:101068008BFA401B0228F5D9032003E1236813F00B
:10107800040F77D02F4B1B6C13F0805F33D1002304
:1010880001932C4B1A6C42F080521A641B6C03F0CB
:1010980080530193019B0125284B1B6813F4807F23
:1010A80023D0A368012B34D0052B38D0214B1A6FDD
:1010B80022F001021A671A6F22F004021A67A36865
:1010C800002B3DD0FFF758FA06461A4B1B6F13F05A
:1010D800020F46D1FFF750FA801B41F2883398423D
:1010E800F3D90320C6E00025D6E7144A136843F471
:1010F80080731360FFF740FA0646104B1B6813F421
:10110800807FCED1FFF738FA801B0228F5D903205B
:10111800B0E0084A136F43F001031367CFE7054BAC
:101128001A6F42F004021A671A6F42F001021A6736
:10113800C5E700BF00380240000047420070004089
:10114800FFF71AFA0646524B1B6F13F0020F08D02E
:10115800FFF712FA801B41F288339842F3D9032033
:1011680088E0EDB9A369002B00F08380484A9268B3
:1011780002F00C02082A51D0022B17D0454B00224E
:101188001A66FFF7F9F90446414B1B6813F0007F14
:1011980042D0FFF7F1F9001B0228F5D9032069E0D6
:1011A8003B4A136C23F080531364DBE7394B00226E
:1011B8001A66FFF7E1F90546354B1B6813F0007F07
:1011C80006D0FFF7D9F9401B0228F5D9032051E0D2
:1011D800E369226A1343626A43EA8213A26A5208E5
:1011E800013A43EA0243E26A43EA0263284A536047
:1011F800284B01221A66FFF7BFF90446244B1B68E7
:1012080013F0007F06D1FFF7B7F9001B0228F5D9C4
:1012180003202FE000202DE000202BE0012B2BD015
:101228001B4B5B6803F48001E269914226D103F00D
:101238003F02216A8A4223D1616A47F6C0721A4086
:10124800B2EB811F1ED103F44031A26A5208013A61
:10125800B1EB024F18D103F07063E26AB3EB026F8F
:1012680014D1002006E001207047012002E001208F
:1012780000E0002002B070BD0120FBE70120F9E783
:101288000120F7E70120F5E70120F3E70120F1E766
:10129800003802400000474208B5264B9B6803F01F
:1012A8000C03042B41D0082B41D1224B5A6802F081
:1012B8003F025B6813F4800F12D01E4B5968C1F3CC
:1012C80088111D480023A1FB0001FEF759FF194BA7
:1012D8005B68C3F3014301335B00B0FBF3F008BD67
:1012E800144B5868C0F388104FEA401CBCEB000C44
:1012F8006EEB0E0E4FEA8E1343EA9C634FEA8C1195
:10130800B1EB0C0163EB0E03DB0043EA5173C90038
:1013180011EB000C43F10003990200234FEA8C20E3
:1013280041EA9C51FEF72CFFD1E70348D7E7034871
:10133800D5E700BF00380240001BB7000024F400C6
:10134800002800F09B8070B50D4604464F4B1B6883
:1013580003F007038B4208D2CBB24C4A13701368D0
:1013680003F007038B4240F08B80236813F0020FD1
:1013780017D013F0040F04D0454A936843F4E053A0
:101388009360236813F0080F04D0414A936843F42C
:10139800604393603E4A936823F0F003A1680B43CF
:1013A8009360236813F0010F32D06368012B21D0BA
:1013B8009A1E012A25D9364A126812F0020F61D006
:1013C80033498A6822F0030213438B60FFF7D4F88D
:1013D80006462F4B9B6803F00C036268B3EB820F41
:1013E80016D0FFF7C9F8801B41F288339842F0D92C
:1013F800032042E0264A126812F4003FE0D101209F
:101408003BE0234A126812F0007FD9D1012034E072
:101418001E4B1B6803F00703AB4207D9EAB21B4B0C
:101428001A701B6803F00703AB422DD1236813F031
:10143800040F06D0164A936823F4E053E1680B437F
:101448009360236813F0080F07D0114A936823F4B8
:101458006043216943EAC1039360FFF71DFF0C4B0A
:101468009B68C3F303130B4AD35CD8400A4B18603C
:101478000A4B1868FFF734F8002070BD0120704748
:101488000120FAE70120F8E70120F6E7003C0240D6
:1014980000380240041A000800000020080000205C
:1014A80030B58BB0BDF938C00024099408250795DC
:1014B80005940390069441FA05F08DF804008DF820
:1014C800051042FA05F18DF806108DF8072043FA49
:1014D80005F28DF808208DF809309DF939308DF81E
:1014E8000A308DF80BC009AB01AA03A90248FFF71F
:1014F80003F90BB030BD00BF2C00002000B589B047
:10150800124B01AA00211248FFF76BF9BDF904300C
:10151800104A138040F20622934202D009B05DF8C7
:1015280004FB0A4B1A78597841EA02210A4A1180C9
:101538009878D97841EA002151801879597941EA97
:10154800002191809B79D380E8E700BF64000020E8
:101558002C000020580000205C00002008B5FFF790
:10156800CDFF08BD2DE9F047089D0E4604460F46FD
:10157800002B4AD194468C45B2FA82F260D942B126
:10158800C2F12003974020FA03F30CFA02FC1F4330
:1015980094404FEA1C4E1FFA8CF6B7FBFEF1230C61
:1015A8000EFB117743EA074301FB06F098420AD97C
:1015B8001CEB030301F1FF3780F01581984240F2DC
:1015C8001281023963441B1AA4B2B3FBFEF00EFB6E
:1015D800103344EA034400FB06F6A6420AD91CEB82
:1015E800040400F1FF3380F00081A64240F2FD8040
:1015F8006444023840EA0140A41B00211DB1D440D4
:101608000023C5E90043BDE8F0878B4205D90DB139
:10161800C5E9000100210846F5E7B3FA83F100297E
:1016280046D1B34202D3824200F2F580841A66EBB7
:10163800030201201746002DE5D0C5E90047E2E77F
:10164800002A40F09380A1EB0C034FEA1C471FFAD5
:101658008CFE0121B3FBF7F607FB1630230C43EA97
:1016680000430EFB06F0984208D91CEB030306F171
:10167800FF3802D2984200F2D08046461B1AA4B224
:10168800B3FBF7F007FB103344EA03440EFB00FEFC
:10169800A64508D91CEB040400F1FF3302D2A64585
:1016A80000F2B6801846A4EB0E0440EA0640A5E70F
:1016B800C1F120078B4022FA07FC4CEA030C06FA1A
:1016C80001FE20FA07F426FA07F344EA0E0400FAAA
:1016D80001F84FEA1C404FEA1449B3FBF0FE1FFA29
:1016E8008CF600FB1E3349EA03430EFB06F99945C5
:1016F80002FA01F20BD91CEB03030EF1FF3A80F05A
:101708008580994540F28280AEF1020E6344A3EBD6
:101718000909A4B2B9FBF0F300FB139944EA0944A0
:1017280003FB06F6A64208D91CEB040403F1FF30BC
:1017380068D2A64266D9023B644443EA0E40A41B21
:10174800A0FB02E6B4427346B14652D34FD05DB116
:10175800B8EB030264EB090404FA07F722FA01F371
:101768001F43CC40C5E9007400214CE7C2F12001B9
:1017780020FA01F30CFA02FC26FA01F196403343F1
:101788004FEA1C471FFA8CFEB1FBF7F007FB101657
:10179800190C41EA064100FB0EF68E4204FA02F4E7
:1017A80008D91CEB010100F1FF382DD28E422BD94C
:1017B80002386144891B9BB2B1FBF7F607FB16118F
:1017C80043EA014306FB0EF1994208D91CEB0303D7
:1017D80006F1FF3814D2994212D9023E63445B1ACB
:1017E80046EA004136E73946EDE6184602E7F04595
:1017F800ADD2BEEB020366EB0C060138B146A6E794
:101808004646ECE7034698E74046D3E7D6467EE7E8
:101818006444023847E708460DE7023E63442DE773
:10182800830730B547D0541E002A3ED0CAB20346BB
:1018380001E0013C39D303F8012B9D07F9D1032CB2
:101848002CD9CDB205EB05250F2C05EB054535D96F
:10185800A4F1100222F00F0C03F1100EE6444FEA37
:10186800121C1A46C2E90055C2E9025510327245E7
:10187800F8D10CF1010214F00C0F03EB021204F082
:101888000F0C13D0ACF1040323F003030433134407
:1018980042F8045B9342FBD10CF003042CB1C9B2AB
:1018A8001C4403F8011BA342FBD130BD6446134618
:1018B800002CF4D1F9E703461446C0E71A46A446BB
:1018C800E0E700BF70B50F4B0F4DAB42A3EB050629
:1018D80007D0B610002455F8043B01349847A642B7
:1018E800F9D800F07FF8094D094B5E1BAB424FEA6F
:1018F800A60606D0002455F8043B01349847A642B2
:10190800F9D870BD1C1A00081C1A00081C1A000817
:10191800241A0008704700BF704700BF024B13B17C
:10192800024800F005B8704700000000451900089B
:10193800002301461A46184600F014B838B5074D7A
:10194800074C2C1BA41005D0013C55F8043D9847C2
:10195800002CF9D1BDE8384000F04AB8281A000830
:10196800241A00082DE9F8431B4D064628689846B6
:101978000F469146FFF7CEFF184B1C681CB328682A
:1019880065681F2D22DC4EB96B1C0235636044F874
:101998002570FFF7C1FF0020BDE8F88304EB85013F
:1019A8000123C1F88890D4F88821AB401A43022E4D
:1019B800C4F88821C1F80881E6D1D4F88C211A43EB
:1019C800C4F88C21E0E7064C1C60D8E7FFF7A4FFB9
:1019D8004FF0FF30E0E700BF0C000020700000204F
:1019E80074000020F8B500BFF8BC08BC9E467047DC
:0C19F800F8B500BFF8BC08BC9E46704764
:101A040000000000000000000102030406070809AA
:081A140058FBFF7F01000000F8
:081A1C0025190008250200084D
:041A2400FD010008B8
:101A28000024F40001000000100000006C000020F9
:040000050800049556
:00000001FF
