:020000040800F2
:100000000000022045180008751500087715000843
:10001000791500087B1500087D1500080000000018
:10002000000000000000000000000000C13C0008CB
:100030007F15000800000000613D0008C53D000874
:1000400095180008951800089518000895180008DC
:1000500095180008951800089518000895180008CC
:1000600095180008951800089518000895180008BC
:1000700095180008951800089518000895180008AC
:10008000951800089518000895180008951800089C
:1000900081150008951800089518000895180008A3
:1000A000951800089518000895180008951800087C
:1000B0009115000895180008951800089518000873
:1000C000951800089518000895180008951800085C
:1000D00095180008A1150008951800089518000843
:1000E000951800089518000895180008951800083C
:1000F000951800089518000895180008951800082C
:10010000951800089518000895180008951800081B
:10011000951800089518000895180008951800080B
:100120009518000895180008B115000895180008E2
:1001300095180008951800089518000895180008EB
:1001400095180008951800089518000895180008DB
:100150009518000895180008C115000895180008A2
:1001600095180008951800089518000895180008BB
:100170009518000895180008951800080000000060
:0801800095180008951800080D
:1001C0004FEA4102B2F1E04324BFB3F5001CDCF179
:1001D000FE5C0DD901F0004C4FEAC0024CEA5070B1
:1001E000B2F1004F40EB830008BF20F001007047E0
:1001F00011F0804F21D113F13872BCBF01F00040E3
:10020000704741F480114FEA5252C2F11802C2F114
:10021000200C10FA0CF320FA02F018BF40F0010095
:100220004FEAC1234FEAD32303FA0CFC40EA0C0047
:1002300023FA02F34FEA4303CCE77FEA625307D184
:1002400050EA01331EBF4FF0FE4040F440007047BB
:1002500001F0004040F0FE4040F40000704700BF55
:1002600053B94AB9002908BF00281CBF4FF0FF311D
:100270004FF0FF3000F0E2B8ADF1080C6DE904CEAC
:1002800005F00CF8DDF804E0DDE9022304B0704766
:1002900000F1340191E838009C46A6464CF8045D14
:1002A00090E8FF0FE54600BD90EC210B704700BFC2
:1002B00080EC210B704700BF90EC200B704700BF13
:1002C00080EC200B704700BFD0EC200B704700BFC4
:1002D000C0EC200B704700BFF0EC0201F0EC021103
:1002E000F0EC0221F0EC0231F0EC0241F0EC0251B2
:1002F000F0EC0261F0EC0271F0EC0281F0EC0291A2
:10030000F0EC02A1F0EC02B1F0EC02C1F0EC02D191
:10031000F0EC02E1F0EC02F1704700BFE0EC02010A
:10032000E0EC0211E0EC0221E0EC0231E0EC0241F1
:10033000E0EC0251E0EC0261E0EC0271E0EC0281E1
:10034000E0EC0291E0EC02A1E0EC02B1E0EC02C1D1
:10035000E0EC02D1E0EC02E1E0EC02F1704700BF1A
:10036000B0FC0181B0FC0191B0FC01A1B0FC01B175
:10037000704700BFA0FC0181A0FC0191A0FC01A17D
:10038000A0FC01B1704700BFEC4600B52DE900505C
:100390002DE9FF1F4FF000032DE90C0001A905F026
:1003A00037FADDF840E012B0704700BFEC4600B508
:1003B0002DE900502DE9FF1F4FF000032DE90C003F
:1003C00001A905F061FADDF840E012B0704700BF06
:1003D000EC4600B52DE900502DE9FF1F4FF000035A
:1003E0002DE90C0001A905F071FADDF840E012B02A
:1003F000704700BFEC4600B52DE900502DE9FF1F06
:100400004FF000032DE90C0001AB05F035FADDF8E3
:1004100040E012B0704700BFEC4600B52DE9005037
:100420002DE9FF1F4FF000032DE90C0001AA05F094
:10043000A5FADDF840E012B0704700BF704700BF7A
:10044000844641EA000313F003036DD1403A41D3DF
:1004500051F8043B40F8043B51F8043B40F8043B9E
:1004600051F8043B40F8043B51F8043B40F8043B8E
:1004700051F8043B40F8043B51F8043B40F8043B7E
:1004800051F8043B40F8043B51F8043B40F8043B6E
:1004900051F8043B40F8043B51F8043B40F8043B5E
:1004A00051F8043B40F8043B51F8043B40F8043B4E
:1004B00051F8043B40F8043B51F8043B40F8043B3E
:1004C00051F8043B40F8043B51F8043B40F8043B2E
:1004D000403ABDD2303211D351F8043B40F8043BCE
:1004E00051F8043B40F8043B51F8043B40F8043B0E
:1004F00051F8043B40F8043B103AEDD20C3205D3DE
:1005000051F8043B40F8043B043AF9D2043208D0D5
:10051000D2071CBF11F8013B00F8013B01D30B8847
:1005200003806046704700BF082A13D38B078DD025
:1005300010F003038AD0C3F10403D21ADB071CBFF7
:1005400011F8013B00F8013B80D331F8023B20F861
:10055000023B7BE7043AD9D3013A11F8013B00F89A
:10056000013BF9D20B7803704B7843708B78837022
:10057000604670470000000000000000000000001E
:1005800030B490F800F020F007016FF0000C10F08C
:10059000070491F820F040F048804FF000046FF01D
:1005A0000700D1E9002391F840F000F1080082FA39
:1005B0004CF2A4FA8CF283FA4CF3A2FA8CF34BBB04
:1005C000D1E9022382FA4CF200F10800A4FA8CF27D
:1005D00083FA4CF3A2FA8CF3E3B9D1E9042382FA4B
:1005E0004CF200F10800A4FA8CF283FA4CF3A2FA60
:1005F0008CF37BB9D1E9062301F1200182FA4CF298
:1006000000F10800A4FA8CF283FA4CF3A2FA8CF3FE
:10061000002BC6D0002A04BF04301A4612BAB2FA20
:1006200082F200EBD20030BC7047D1E9002304F025
:100630000305C4F100004FEAC50514F0040F91F85A
:1006400040F00CFA05F562EA05021CBF63EA0503F7
:1006500062464FF00004AAE700000000000000001E
:1006600001F0FF01102A2BDB10F0070F08D010F863
:10067000013B013A8B422DD010F0070F42B3F6D167
:10068000F0B441EA012141EA014122F007047FF080
:1006900000070023F0E80256083C85EA010586EAD7
:1006A000010685FA47F5A3FA87F586FA47F6A5FA13
:1006B00087F68EB9EED1F0BC01F0FF0102F007021F
:1006C00032B110F8013B013A83EA010313B1F8D1CA
:1006D0000020704701387047002D06BF35460338AB
:1006E000073815F0010F07D1013015F4807F02BFE4
:1006F000013015F4C03F0130F0BC0138704700BF35
:1007000081F0004102E000BF83F0004330B54FEAC2
:1007100041044FEA430594EA050F08BF90EA020F2F
:100720001FBF54EA000C55EA020C7FEA645C7FEAC2
:10073000655C00F0E2804FEA5454D4EB5555B8BFE5
:100740006D420CDD2C4480EA020281EA030382EA56
:10075000000083EA010180EA020281EA0303362DE8
:1007600088BF30BD11F0004F4FEA01314FF4801CBB
:100770004CEA113102D0404261EB410113F0004FCD
:100780004FEA03334CEA133302D0524263EB430384
:1007900094EA050F00F0A780A4F10104D5F1200E22
:1007A0000DDB02FA0EFC22FA05F2801841F100017D
:1007B00003FA0EF2801843FA05F359410EE0A5F151
:1007C00020050EF1200E012A03FA0EFC28BF4CF082
:1007D000020C43FA05F3C01851EBE37101F0004538
:1007E00007D54FF0000EDCF1000C7EEB00006EEB45
:1007F0000101B1F5801F1BD3B1F5001F0CD34908CF
:100800005FEA30004FEA3C0C04F101044FEA445225
:1008100012F5800F80F09A80BCF1004F08BF5FEAAC
:10082000500C50F1000041EB045141EA050130BD8C
:100830005FEA4C0C404141EB0101013C28BFB1F59E
:10084000801FE9D291F0000F04BF01460020B1FAE9
:1008500081F308BF2033A3F10B03B3F120020CDABC
:100860000C3208DD02F1140CC2F10C0201FA0CF09A
:1008700021FA02F10CE002F11402D8BFC2F1200CFF
:1008800001FA02F120FA0CFCDCBF41EA0C019040B5
:10089000E41AA2BF01EB0451294330BD6FEA0404FE
:1008A0001F3C1CDA0C340EDC04F11404C4F12002E9
:1008B00020FA04F001FA02F340EA030021FA04F3FB
:1008C00045EA030130BDC4F10C04C4F1200220FA52
:1008D00002F001FA04F340EA0300294630BD21FA90
:1008E00004F0294630BD94F0000F83F4801306BF56
:1008F00081F480110134013D4EE77FEA645C18BF4A
:100900007FEA655C29D094EA050F08BF90EA020FE0
:1009100005D054EA000C04BF1946104630BD91EAD8
:10092000030F1EBF0021002030BD5FEA545C05D1DB
:100930004000494128BF41F0004130BD14F580041A
:100940003CBF01F5801130BD01F0004545F0FE418E
:1009500041F470014FF0000030BD7FEA645C1ABFC3
:10096000194610467FEA655C1CBF0B46024650EAFA
:10097000013406BF52EA033591EA030F41F4002126
:1009800030BD00BF90F0000F04BF0021704730B5AC
:100990004FF4806404F132044FF000054FF0000181
:1009A00050E700BF90F0000F04BF0021704730B542
:1009B0004FF4806404F1320410F0004548BF404217
:1009C0004FF000013EE700BF42004FEAE2014FEA6C
:1009D00031014FEA02701FBF12F07F4393F07F4F47
:1009E00081F06051704732F07F4208BF704793F04A
:1009F0007F4F04BF41F40021704730B54FF460745D
:100A000001F0004521F000411CE700BF50EA01025F
:100A100008BF704730B54FF000050AE050EA010208
:100A200008BF704730B511F0004502D5404261EB78
:100A300041014FF4806404F132045FEA915C3FF4B9
:100A4000D8AE4FF003025FEADC0C18BF03325FEA56
:100A5000DC0C18BF033202EBDC02C2F1200300FA07
:100A600003FC20FA02F001FA03FE40EA0E0021FA2C
:100A700002F11444BDE600BF70B54FF0FF0C4CF41A
:100A8000E06C1CEA11541DBF1CEA135594EA0C0FCC
:100A900095EA0C0F00F0DEF82C4481EA030621EA07
:100AA0004C5123EA4C5350EA013518BF52EA033542
:100AB00041F4801143F4801338D0A0FB02CE4FF0F4
:100AC0000005E1FB02E506F00042E0FB03E54FF024
:100AD0000006E1FB03569CF0000F18BF4EF0010E1C
:100AE000A4F1FF04B6F5007F64F5407404D25FEA18
:100AF0004E0E6D4146EB060642EAC62141EA5551CB
:100B00004FEAC52040EA5E504FEACE2EB4F1FD0C0C
:100B100088BFBCF5E06F1ED8BEF1004F08BF5FEA8A
:100B2000500E50F1000041EB045170BD06F000463C
:100B300046EA010140EA020081EA0301B4EB5C04E9
:100B4000C2BFD4EB0C0541EA045170BD41F48011E1
:100B50004FF0000E013C00F3AB8014F1360FDEBF06
:100B6000002001F0004170BDC4F10004203C35DAE2
:100B70000C341BDC04F11404C4F1200500FA05F365
:100B800020FA04F001FA05F240EA020001F0004206
:100B900021F0004110EBD37021FA04F642EB06017C
:100BA0005EEA430E08BF20EAD37070BDC4F10C04A6
:100BB000C4F1200500FA04F320FA05F001FA04F26A
:100BC00040EA020001F0004110EBD37041F1000156
:100BD0005EEA430E08BF20EAD37070BDC4F1200561
:100BE00000FA05F24EEA020E20FA04F301FA05F2C9
:100BF00043EA020321FA04F001F0004121FA04F271
:100C000020EA020000EBD3705EEA430E08BF20EA40
:100C1000D37070BD94F0000F0FD101F0004640007A
:100C200041EB010111F4801F08BF013CF7D041EAFC
:100C3000060195F0000F18BF704703F00046520000
:100C400043EB030313F4801F08BF013DF7D043EAD1
:100C50000603704794EA0C0F0CEA135518BF95EA87
:100C60000C0F0CD050EA410618BF52EA4306D1D10E
:100C700081EA030101F000414FF0000070BD50EA2D
:100C8000410606BF1046194652EA430619D094EAB7
:100C90000C0F02D150EA013613D195EA0C0F05D1A1
:100CA00052EA03361CBF104619460AD181EA0301F5
:100CB00001F0004141F0FE4141F470014FF00000AD
:100CC00070BD41F0FE4141F4780170BD70B54FF048
:100CD000FF0C4CF4E06C1CEA11541DBF1CEA1355C8
:100CE00094EA0C0F95EA0C0F00F0A7F8A4EB0504AA
:100CF00081EA030E52EA03354FEA013100F08880A1
:100D00004FEA03334FF0805545EA131343EA126369
:100D10004FEA022245EA111545EA10654FEA00261E
:100D20000EF000419D4208BF964244F1FD0404F5D7
:100D3000407402D25B084FEA3202B61A65EB030533
:100D40005B084FEA32024FF480104FF4002CB6EBF0
:100D5000020E75EB030E22BFB61A754640EA0C0070
:100D60005B084FEA3202B6EB020E75EB030E22BFB0
:100D7000B61A754640EA5C005B084FEA3202B6EBF1
:100D8000020E75EB030E22BFB61A754640EA9C00B0
:100D90005B084FEA3202B6EB020E75EB030E22BF80
:100DA000B61A754640EADC0055EA060E18D04FEA3E
:100DB000051545EA16754FEA06164FEAC30343EADE
:100DC00052734FEAC2025FEA1C1CC0D111F4801FAB
:100DD0000BD141EA00014FF000004FF0004CB6E7A4
:100DE00011F4801F04BF01430020B4F1FD0C88BF43
:100DF000BCF5E06F3FF6AFAEB5EB030C04BFB6EB4E
:100E0000020C5FEA500C50F1000041EB045170BD40
:100E10000EF0004E4EEA113114EB5C04C2BFD4EB6D
:100E20000C0541EA045170BD41F480114FF0000EF1
:100E3000013C90E645EA060E8DE60CEA135594EA6D
:100E40000C0F08BF95EA0C0F3FF43BAF94EA0C0F70
:100E50000AD150EA01347FF434AF95EA0C0F7FF4E5
:100E600025AF104619462CE795EA0C0F06D152EA39
:100E700003353FF4FDAE1046194622E750EA41061D
:100E800018BF52EA43067FF4C5AE50EA41047FF42E
:100E90000DAF52EA43057FF4EBAE12E74FF0FF3C93
:100EA00006E000BF4FF0010C02E000BF4FF0010C64
:100EB0004DF804CD4FEA410C7FEA6C5C4FEA430CDD
:100EC00018BF7FEA6C5C1BD001B050EA410C0CBF2C
:100ED00052EA430C91EA030F02BF90EA020F00208E
:100EE000704710F1000F91EA030F58BF994208BFF5
:100EF00090422CBFD8176FEAE37040F001007047B2
:100F00004FEA410C7FEA6C5C02D150EA013C07D108
:100F10004FEA430C7FEA6C5CD6D152EA033CD3D053
:100F20005DF8040B704700BF8446104662468C464D
:100F30001946634600E000BF01B5FFF7B7FF002880
:100F400048BF10F1000F01BD4DF808EDFFF7F4FFA9
:100F50000CBF012000205DF808FB00BF4DF808ED34
:100F6000FFF7EAFF34BF012000205DF808FB00BF57
:100F70004DF808EDFFF7E0FF94BF012000205DF879
:100F800008FB00BF4DF808EDFFF7CEFF94BF01202E
:100F900000205DF808FB00BF4DF808EDFFF7C4FF27
:100FA00034BF012000205DF808FB00BF4FEA410C70
:100FB0007FEA6C5C02D150EA013C0AD14FEA430C53
:100FC0007FEA6C5C02D152EA033C02D14FF0000090
:100FD00070474FF0010070474FEA410212F50012CE
:100FE00015D211D56FF47873B3EB625212D94FEA70
:100FF000C12343F0004343EA505311F0004F23FA5A
:1010000002F018BF404270474FF00000704750EAAE
:10101000013005D111F0004008BF6FF0004070476B
:101020004FF00000704700BF4A0011D212F50012C5
:1010300011D20DD56FF47873B3EB62520ED44FEA30
:10104000C12343F0004343EA505323FA02F07047B0
:101050004FF00000704750EA013002D14FF0FF30EE
:1010600070474FF0000070470348044B834202D0A2
:10107000034B03B1184770472808002028080020B8
:10108000000000000548064B1B1AD90F01EBA30115
:10109000491002D0034B03B11847704728080020BD
:1010A000280800200000000010B5064C237843B942
:1010B000FFF7DAFF044B13B10448AFF300800123BC
:1010C000237010BD2808002000000000ACDF0008DD
:1010D00008B5054B1BB105490548AFF30080BDE8D5
:1010E0000840FFF7CFBF00BF000000002C08002021
:1010F000ACDF000808B50D480D4B036003234360C7
:1011000000238360C3604FF4002202614FF4401259
:101110004261037643768376C3760377437700F0A4
:10112000E7FB00B908BD00F01CF9FBE7440800200C
:101130000064004010B588B0002303930493059326
:10114000069307930268184B9A4201D008B010BD6D
:101150000024019403F5EA331A6C42F000721A6419
:101160001A6C02F000720192019A02941A6B42F01A
:1011700008021A631B6B03F008030293029B03230C
:1011800003930222049206930923079303A90748B5
:1011900001F058FA22460521142000F0DDFF14204A
:1011A00000F0EAFFD2E700BF00640040000C0240FC
:1011B00010B582B0002401940D4B1A6B42F48002EA
:1011C0001A631B6B03F480030193019B22460521E4
:1011D0003A2000F0C1FF3A2000F0CEFF2246052160
:1011E000462000F0B9FF462000F0C6FF02B010BD57
:1011F0000038024008B5012002F0BDFCFBE700000A
:10120000034B0360034B0B6080231360704700BFE8
:10121000700A00206C08002010B596B01B4C0DF130
:101220003C0CA646BEE80F00ACE80F009EE80700A5
:101230008CE8070000210FA802F06AFC144B18602C
:101240000DF1200C04F11C0EBEE80F00ACE80F00FD
:101250009EE807008CE80700002108A802F058FC6F
:101260000C4B18600DF1040E04F1380CBCE80F00B3
:10127000AEE80F009CE807008EE80700002101A8F7
:1012800002F046FC044B186016B010BDC8DF000821
:10129000100C00200C0C0020080C002030B58BB086
:1012A0000024059406940794089409940094234B11
:1012B0001A6B42F001021A631A6B02F001020092EB
:1012C000009A01941A6B42F002021A631A6B02F040
:1012D00002020192019A02941A6B42F008021A6308
:1012E0001A6B02F008020292029A03941A6B42F0FF
:1012F00004021A631A6B02F004020392039A049424
:101300001A6B42F080021A631B6B03F08003049394
:10131000049B0B4D22464FF48061284601F088FA69
:101320004FF480630593012306930794089405A95D
:10133000284601F087F90BB030BD00BF00380240ED
:10134000001C024008B5FFF767FF02F0DCFB08BD98
:1013500008B50368B3F1804F00D008BD00F0B6FABD
:10136000FBE772B6FEE7000000B595B03022002121
:1013700008A806F04BF90023039304930593069302
:1013800007930193204A116C41F080511164126C53
:1013900002F080520192019A02931C4B1A6842F4A7
:1013A00080421A601B6803F480430293029B01236E
:1013B00008934FF48033099302230E934FF4800275
:1013C0000F9206221092A8221192129304231393D3
:1013D00008A801F033FA98B90F230393022304936A
:1013E000002305934FF4A05306934FF480530793C3
:1013F000052103A801F072FC20B915B05DF804FBCB
:10140000FFF7AFFFFFF7ADFF00380240007000406C
:1014100008B500F041FAFFF7A7FFFFF73FFFFFF71E
:1014200069FEFFF7C5FE00F053F908BD38B5FFF7B8
:10143000EFFF0F4D284603F07FFB0E4C204603F0D4
:101440007BFB0D4BC5F88430083BC4F884300B4B54
:10145000C5F894300A4BC5F898300A4BC4F894305C
:10146000094BC4F8983003F09FFDFFF76BFFFEE7D0
:1014700010000020B0000020CC4A00200080A244D0
:1014800000A0D74500803B4500E0F64500B583B09D
:10149000002200920D4B596C41F480415964596C03
:1014A00001F48041009100990192196C41F0805142
:1014B00019641B6C03F080530193019B0F216FF0A3
:1014C000010000F049FE03B05DF804FB0038024063
:1014D00030B589B0044600230193224B1A6C42F0C8
:1014E00001021A641B6C03F001030193019B02A922
:1014F00003A801F0C9FC069BD3B901F0A5FC034683
:10150000194AA2FB03239B0C013B18484FF0804271
:10151000026040F2E732C2604360002303618360EF
:10152000836101F031FE054630B1284609B030BD77
:1015300001F08AFC4300E3E70C4801F0C5FC0546D6
:101540000028F2D11C2000F017FE0F2C01D9012534
:10155000EBE7002221461C2000F0FEFD044B1C603E
:10156000E3E700BF0038024083DE1B43140C002079
:1015700008000020FEE7FEE7FEE7FEE7FEE7704713
:1015800008B5024800F06CFC08BD00BF440800200C
:1015900008B5024801F0E0FC08BD00BF140C0020B3
:1015A00008B5024802F070F808BD00BF200D002009
:1015B00008B5024800F058FF08BD00BFC00C00206D
:1015C00008B5024800F050FF08BD00BF600C0020C5
:1015D0000120704708B506F085F9162303604FF027
:1015E000FF3008BD08B54FF0FF31FFF7F3FFFEE70E
:1015F00070B50C461646002506E0AFF30080214684
:1016000001F8010B01350C46B542F6DB304670BDE2
:1016100070B50C461646002504E014F8010BAFF334
:1016200000800135B542F8DB304670BD4FF0FF3029
:1016300070474FF400534B60002070470120704703
:101640000020704710B503460C4A0D490D4800684C
:1016500040B10C4800680344521A934206D8094A24
:10166000136010BD0748084C0460F2E706F03AF931
:101670000C2303604FF0FF30F3E700BF00000220AF
:10168000000400005C0C0020C04E00200D4AD2F87F
:10169000883043F47003C2F888300B4B1A6842F06C
:1016A00001021A60002199601A6822F0847222F403
:1016B00080321A60054A5A601A6822F480221A6041
:1016C000D960704700ED00E000380240103000247F
:1016D00008B50A480A4B03604FF4165343600023D1
:1016E0008360C36003610C2242618361C36101F0C6
:1016F0006FFE00B908BDFFF734FEFBE7200D0020A8
:10170000001001402DE9F04188B0002303930493B9
:10171000059306930793026803F1804303F588332A
:101720009A4202D008B0BDE8F08104460025009539
:1017300003F594335A6C42F010025A645A6C02F06A
:1017400010020092009A01951A6B42F002021A638D
:101750001A6B02F002020192019A02951A6B42F092
:1017600001021A631B6B03F001030293029B8023A7
:1017700003934FF00208CDF8108003270697072641
:10178000079603A9294800F05DFF4FF40073039307
:10179000CDF8108005950697079603A9244800F018
:1017A00051FF2448244B03604FF000634360856081
:1017B000C5604FF48063036145618561C561056261
:1017C000456200F059FD58BB1A4BE3639C631B480C
:1017D0001B4B03604FF00063436040238360002392
:1017E000C3604FF48062026143618361C36103623D
:1017F000436200F041FDB0B9104BA3639C6300222B
:101800000521252000F0A8FC252000F0B5FC0022D1
:101810000521252000F0A0FC252000F0ADFC81E78B
:10182000FFF79FFDD0E7FFF79CFDE5E700040240CE
:1018300000000240C00C002040640240600C002008
:10184000B8640240DFF834D0FFF720FF0C480D49A0
:101850000D4A002302E0D458C4500433C4188C420B
:10186000F9D30A4A0A4C002301E013600432A24271
:10187000FBD306F03DF8FFF7D9FD704700000220CA
:10188000000000202808002074E700082808002035
:10189000C04E0020FEE7000008B50B4B1A6842F46A
:1018A00000721A601A6842F480621A601A6842F480
:1018B00080721A60032000F03DFC0F20FFF708FE45
:1018C000FFF7E4FD002008BD003C0240034A116818
:1018D000034B1B780B441360704700BF680D00205A
:1018E00004000020014B1868704700BF680D0020FD
:1018F000002800F0A18038B5044690F82030D3B11C
:101900002268136843F001031360FFF7EBFF0546FD
:1019100023685A6812F0010F10D1FFF7E3FF401B54
:101920000A28F5D9636A43F400336362052384F817
:101930002030012038BDFFF7FDFBE1E71A6822F0F7
:1019400002021A60FFF7CEFF054623685A6812F0BC
:10195000020F0DD0FFF7C6FF401B0A28F5D9636AB6
:1019600043F400336362052384F820300120E1E76B
:10197000227E012A3DD01A6822F080021A60637E1E
:10198000012B3BD02268136823F040031360A37E31
:10199000012B39D02268136823F020031360E37E03
:1019A000012B37D02268136843F010031360237FA4
:1019B000012B35D02268136823F008031360637F7E
:1019C000012B33D02268136823F004031360A3684B
:1019D000E268134322691343626913436268013A60
:1019E00021681343CB6100206062012384F820301A
:1019F000A0E71A6842F080021A60C0E72268136804
:101A000043F040031360C2E72268136843F02003E9
:101A10001360C4E72268136823F010031360C6E75D
:101A20002268136843F008031360C8E7226813684C
:101A300043F004031360CAE70120704790F8203098
:101A4000013BDBB2012B05D9436A43F48023436297
:101A50000120704730B5464BD3F8002242F0010216
:101A6000C3F80022D3F8002222F47C52C3F80022EB
:101A7000D3F80022486A42EA0022C3F800224A69E9
:101A800002F01F02012000FA02F2D3F81C026FEAF2
:101A9000020C20EA0200C3F81C02CB69C3B9344B24
:101AA000D3F80C020CEA0000C3F80C028C884869D9
:101AB000CD6844EA0544483043F830408C680888D3
:101AC00040EA04404C6904F1480E03EBCE03586031
:101AD000CB69012B1ED08B69002B33D12448D0F861
:101AE00004320CEA0303C0F804320B698BBB2048B4
:101AF000D0F814320CEA0303C0F814320B6A012B3D
:101B00002ED01B4AD2F8003223F00103C2F8003273
:101B1000002030BD164BD3F80C021043C3F80C0262
:101B20008C8848690D6844EA0544483043F83040E1
:101B300088894C698D6840EA0540483403EBC4034A
:101B40005860C8E70A48D0F804321343C0F804329A
:101B5000CBE70748D0F814321343C0F81432CDE76E
:101B60000349D1F81C321343C1F81C32C9E700BF46
:101B70000064004070B5044690F82050EDB2012D8D
:101B800006D0436A43F4002343620125284670BD12
:101B9000022380F820300268136823F001031360E9
:101BA000FFF7A0FE064623685B6813F0010F0CD018
:101BB000FFF798FE831B0A2BF5D9636A43F40033C1
:101BC0006362052384F82030E0E700256562DDE7E5
:101BD00030B590F820C00468A4680CF1FF3C5FFAAF
:101BE0008CFCBCF1010F62D814F0E05F59D0C4F353
:101BF000016C012404FA0CF41C608B68002B3DD1AD
:101C00000D68CB68046843EA45550CF118031B01C5
:101C1000E55003680C690CF1180E03EB0E135C60C1
:101C20000B7D012B35D0D17993791B0443EA0163F5
:101C3000517943EA012314790168234301EB0C1124
:101C4000C1F88C31D17893781B0443EA0163517851
:101C500043EA0123117802680B4302EB0C12C2F82D
:101C6000883102680CF1180C4FEA0C1C52F80C3049
:101C700043F0010342F80C3000201DE04C6843EAB9
:101C8000C403CC6823430CF11804240105682B51CC
:101C9000BFE7036803EB0E13596841F48071596084
:101CA000C1E7436A43F400134362012004E0436A3E
:101CB00043F480234362012030BD90F820C00CF132
:101CC000FF3C5FFA8CFCBCF1010F00F2A58030B440
:101CD00051B90468E46814F0030F10D1436A43F467
:101CE0000013436201207EE00468246914F0030FAE
:101CF00005D1436A43F400134362012073E0056891
:101D000001F11B0424012C5904F004049460002CFC
:101D10006BD1056801F11B0424012C59640D14607A
:101D2000046801F11B0C4FEA0C1C54F80C4004F041
:101D30000204D4600468A444DCF8045015F0080FD1
:101D40005BD008241461046801F11B0C04EB0C1433
:101D50006468C4F307249461046804EB0C14646899
:101D6000240C5461026802EB0112D2F8B8211A70F7
:101D7000026802EB0112D2F8B821C2F307225A70AE
:101D8000026802EB0112D2F8B821C2F307429A703E
:101D9000026802EB0112D2F8B821120EDA70026862
:101DA00002EB0112D2F8BC211A71026802EB011297
:101DB000D2F8BC21C2F307225A71026802EB011269
:101DC000D2F8BC21C2F307429A71026802EB0112F9
:101DD000D2F8BC21120EDA71C1B90268D36843F09F
:101DE0002003D360002030BC7047056801F11B045C
:101DF00024012C59E408546092E701F11B0504EB1F
:101E00000514646804F00F0414619CE70268136908
:101E100043F020031361E5E7436A43F48023436200
:101E20000120704790F82030013BDBB2012B05D92F
:101E3000436A43F480234362012070470268536978
:101E40000B435361002070477047704770477047DD
:101E500070477047704770477047704770477047CA
:101E60002DE9F84F054603685C69D3F804809F6844
:101E7000D3F80CA0D3F81090D3F818B014F00106E2
:101E80003BD017F0010616D001229A6017F0020F1E
:101E900008D117F0040F0CD117F0080606D04FF444
:101EA000805608E0FFF7D0FF002604E0FFF7CFFFE1
:101EB00001E04FF4006617F4807F0DD02B684FF4DB
:101EC00080729A6017F4007F40F0968017F4806F5C
:101ED00000F0968046F4005617F4803F0DD02B6832
:101EE0004FF480329A6017F4003F40F0938017F46B
:101EF000802F00F0938046F4004614F0080F07D0BE
:101F00001AF0100F04D046F400762B681022DA6025
:101F100014F0040F03D01AF0080F40F0898014F079
:101F2000020F05D02B68DB6813F0030F40F08780A9
:101F300014F0400F07D019F0100F04D046F480665B
:101F40002B6810221A6114F0200F02D019F0080F2C
:101F500079D114F0100F04D02B681B6913F0030F14
:101F600078D114F4003F02D018F0100F76D114F499
:101F7000803F02D018F0080F77D114F4004F37D00B
:101F800018F0040F31D014F4807F04D01BF0010F3F
:101F900001D046F0010614F4007F04D01BF0020FBC
:101FA00001D046F0020614F4806F04D01BF0040F39
:101FB00001D046F0040614F4006F16D01BF0700B2D
:101FC00013D0BBF1400F66D056D8BBF1200F5CD0C8
:101FD000BBF1300F5CD0BBF1100F01D146F0080609
:101FE0002A68936923F0700393612B6804225A6076
:101FF000002E56D1BDE8F88F2846FFF726FF6BE785
:1020000017F4006F02D046F4804665E72846FFF7D4
:102010001FFF61E72846FFF719FF6EE717F4002F4F
:1020200002D046F4803668E72846FFF712FF64E7DF
:102030002B680822DA602846FFF70CFF6FE7284676
:1020400002F072FD74E72B6808221A612846FFF738
:1020500003FF7EE72846FFF7FEFE82E72B6810228B
:102060005A602846FFF7F9FE81E72B6808225A607C
:102070002846FFF7F3FE80E7BBF1500F0ED0BBF10F
:10208000600FADD146F48076AAE746F01006A7E7C8
:1020900046F02006A4E746F04006A1E746F0800699
:1020A0009EE76B6A33436B622846FFF7D8FEA1E7D1
:1020B000002807DB00F01F02400901239340024A79
:1020C00042F82030704700BF00E100E0002808DB44
:1020D0000901C9B200F1604000F5614080F80013C9
:1020E000704700F00F000901C9B2014B1954704745
:1020F00014ED00E000B500F00700C0F1070CBCF1E2
:10210000040F28BF4FF0040C031D062B0FD9C31E6C
:102110004FF0FF3E0EFA0CF021EA000199400EFA52
:1021200003FE22EA0E0241EA02005DF804FB0023EE
:10213000EEE70000074AD36823F4E0631B041B0C9E
:10214000000200F4E060034343F0BF6343F4003354
:10215000D360704700ED00E010B50446054BD86829
:10216000C0F30220FFF7C6FF01462046FFF7AEFF8F
:1021700010BD00BF00ED00E008B5FFF799FF08BDF6
:1021800030B405682C6824F480242C6004686360F3
:102190008368402B05D0036899600368DA6030BC1F
:1021A000704703689A600368D960F8E710B4036861
:1021B000D9B210390A4AA2FB01421209094CA25CA9
:1021C000C2655F2907D96FF3090304338365806D06
:1021D0005DF8044B70476FF309038365F7E700BFB1
:1021E000ABAAAAAA98E20008836A826992B9012B75
:1021F0000AD0022B02D00BB100207047C36A13F043
:10220000807F28D100207047C36AB3F1C07F24D0FB
:1022100000207047B2F5005F09D0022B25D9032BAF
:1022200025D1C36A13F0807F23D100207047032B90
:1022300003D8DFE803F01404140A00207047C36ACF
:1022400013F0807F0DD100207047C36AB3F1C07FC7
:1022500009D00020704701207047012070470120FD
:10226000704701207047012070470120704700200F
:10227000704701207047000070B50446FFF732FB3D
:10228000002C5BD00546022384F83530002384F807
:1022900034302268136823F00103136023681A683E
:1022A00012F0010F0AD0FFF71DFB431B052BF5D9D8
:1022B00020236365032084F8350070BD1A68204927
:1022C00011406268A0680243E0680243206902434B
:1022D00060690243A0690243E0690243206A024345
:1022E0000A43616A04291ED01A602668756925F0C0
:1022F0000705636A1D43042B07D1A36A1D43E36AE4
:102300001BB12046FFF770FF90B975612046FFF7BB
:102310004DFFE26D3F239340836000206065012301
:1023200084F83530C9E7E16A206B01430A43DBE7F3
:1023300040236365012084F83500BEE70120BCE737
:102340003F8010F038B50446856D90F834000128C0
:102350002BD0012084F8340094F83500C0B2012855
:1023600004D0002384F83430022038BD022084F8E1
:102370003500002060652046FFF702FFE26D3F2335
:102380009340AB602268136843F016031360236C1C
:1023900023B12268136843F00803136022681368AE
:1023A00043F0010313600020DFE70220DDE770B592
:1023B0000446866DFFF796FA94F83530DBB2022BAF
:1023C00006D080236365002384F83430012070BD7B
:1023D00005462268136823F01603136022685369C8
:1023E00023F080035361236CE3B12268136823F068
:1023F000080313602268136823F001031360236845
:102400001B6813F0010F11D0FFF76CFA431B052B6B
:10241000F5D920236365032084F83500002384F870
:102420003430D4E7A36C002BDFD1E3E7E26D3F2328
:102430009340B360012384F83530002084F83400E1
:10244000C5E790F83530DBB2022B03D0802343651B
:1024500001207047052380F835300268136823F0A7
:102460000103136000207047F0B583B004460023D9
:102470000193724B1D68724BA3FB0535AD0A876D46
:102480003E68C26D08239340334210D003681A6837
:1024900012F0040F0BD01A6822F004021A60C26D09
:1024A00008239340BB60436D43F001034365E26D35
:1024B00001239340334209D02268526912F0800F01
:1024C00004D0BB60636D43F002036365E26D0423D7
:1024D0009340334209D02268126812F0020F04D0F0
:1024E000BB60636D43F004036365E26D10239340AA
:1024F000334224D02268126812F0080F1FD0BB604C
:1025000023681A6812F4802F0DD01B6813F4002F73
:1025100004D1236C9BB12046984710E0A36C73B1A3
:10252000204698470BE01A6812F4807F03D11A689E
:1025300022F008021A60236C0BB120469847E26D26
:1025400020239340334255D02268126812F0100FB6
:1025500050D0BB6094F83530DBB2052B0ED0236829
:102560001A6812F4802F33D01B6813F4002F2AD17D
:10257000636C002B3ED0204698473BE022681368EE
:1025800023F0160313602268536923F0800353611C
:10259000236CA3B12268136823F008031360E26D73
:1025A0003F239340BB60012384F83530002384F837
:1025B0003430236D002B3FD0204698473CE0A36C7D
:1025C000002BE7D1EBE7E36BA3B12046984711E07E
:1025D0001A6812F4807F09D11A6822F010021A607A
:1025E000012384F83530002384F83430E36B0BB1D9
:1025F00020469847636DFBB1636D13F0010F17D050
:10260000052384F835302268136823F00103136032
:10261000019B01330193AB4204D823681B6813F07C
:10262000010FF5D1012384F83530002384F83430CC
:10263000E36C0BB12046984703B0F0BD00000020CA
:10264000B5814E1B00230F2B00F2E98070B582B0DC
:1026500065E085684FEA430E032404FA0EF425EA88
:102660000405CC6804FA0EF42C438460446824EA20
:1026700002044A68C2F300129A40224342605CE0BE
:10268000DC08083450F8242003F00705AD004FF0B3
:102690000F0E0EFA05FE22EA0E0E0A69AA4042EA61
:1026A0000E0240F824205CE0072200E0002202FA3B
:1026B0000EF22A4302345A4D45F82420594A9468B0
:1026C0006FEA0C0224EA0C054E6816F4801F01D054
:1026D0004CEA0405534CA560E46802EA04054E6820
:1026E00016F4001F01D04CEA04054E4CE560646806
:1026F00002EA04054E6816F4003F01D04CEA0405D6
:10270000484C6560246822404D6815F4803F01D034
:102710004CEA0402434C226001330F2B7DD8012286
:102720009A400C6804EA020C32EA0404F4D14C68C2
:1027300004F00304013C012C8BD94A6802F0030227
:10274000032A09D0C4685D000322AA4024EA0204D7
:102750008A68AA402243C2604A6802F00302022A41
:102760008ED004684FEA430E032202FA0EF224EAE6
:1027700002044A6802F0030202FA0EF222430260E7
:102780004A6812F4403FC7D000220192264A546C96
:1027900044F480445464526C02F480420192019AE1
:1027A0009C08A51C1E4A52F8255003F0030E4FEA60
:1027B0008E0E0F2202FA0EF225EA02051B4A904203
:1027C0003FF474AF02F5806290421AD002F5806245
:1027D000904218D002F58062904216D002F58062D5
:1027E000904214D002F58062904212D002F58062CD
:1027F000904210D002F5806290423FF455AF08221B
:1028000055E7012253E7022251E703224FE7042252
:102810004DE705224BE7062249E702B070BD70473D
:1028200000380140003C01400038024000000240F6
:102830000AB181617047090481617047002800F086
:10284000E08170B582B00446036813F0010F3BD0FD
:102850009F4B9B6803F00C03042B2CD09C4B9B6874
:1028600003F00C03082B21D06368B3F5803F4FD0F1
:10287000B3F5A02F52D0964B1A6822F480321A601A
:102880001A6822F480221A606368002B50D0FFF788
:1028900029F805468E4B1B6813F4003F14D1FFF74F
:1028A00021F8401B6428F5D90320B1E1884B5B680F
:1028B00013F4800FD8D0864B1B6813F4003F03D06D
:1028C0006368002B00F09F81236813F0020F54D03F
:1028D0007F4B9B6813F00C0F3ED07D4B9B6803F041
:1028E0000C03082B33D0E368002B68D0794B01220E
:1028F0001A60FEF7F7FF0546754B1B6813F0020FD1
:1029000054D1FEF7EFFF401B0228F5D903207FE1E9
:102910006F4A136843F480331360B5E76C4B1A6851
:1029200042F480221A601A6842F480321A60ABE7DF
:10293000FEF7D8FF0546664B1B6813F4003FC3D073
:10294000FEF7D0FF401B6428F5D9032060E1604BFF
:102950005B6813F4800FC6D15D4B1B6813F0020F48
:1029600003D0E368012B40F05081594A136823F0EB
:10297000F803216943EAC1031360236813F0080FC9
:1029800042D063696BB3534B0122C3F8802EFEF72C
:10299000A9FF05464E4B5B6F13F0020F34D1FEF7D3
:1029A000A1FF401B0228F5D9032031E1484A1368F2
:1029B00023F0F803216943EAC1031360DDE7454BC7
:1029C00000221A60FEF78EFF0546414B1B6813F08C
:1029D000020FD2D0FEF786FF401B0228F5D9032054
:1029E00016E13C4B0022C3F8802EFEF77BFF054624
:1029F000374B5B6F13F0020F06D0FEF773FF401BDF
:102A00000228F5D9032003E1236813F0040F77D0DF
:102A10002F4B1B6C13F0805F33D1002301932C4BA1
:102A20001A6C42F080521A641B6C03F080530193BD
:102A3000019B0125284B1B6813F4807F23D0A368DA
:102A4000012B34D0052B38D0214B1A6F22F0010214
:102A50001A671A6F22F004021A67A368002B3DD090
:102A6000FEF740FF06461A4B1B6F13F0020F46D1CC
:102A7000FEF738FF801B41F288339842F3D90320D8
:102A8000C6E00025D6E7144A136843F48073136048
:102A9000FEF728FF0646104B1B6813F4807FCED14B
:102AA000FEF720FF801B0228F5D90320B0E0084A7A
:102AB000136F43F001031367CFE7054B1A6F42F022
:102AC00004021A671A6F42F001021A67C5E700BFD5
:102AD000003802400000474200700040FEF702FF4D
:102AE0000646524B1B6F13F0020F08D0FEF7FAFE9A
:102AF000801B41F288339842F3D9032088E0EDB976
:102B0000A369002B00F08380484A926802F00C020F
:102B1000082A51D0022B17D0454B00221A66FEF727
:102B2000E1FE0446414B1B6813F0007F42D0FEF7E4
:102B3000D9FE001B0228F5D9032069E03B4A136C3B
:102B400023F080531364DBE7394B00221A66FEF74B
:102B5000C9FE0546354B1B6813F0007F06D0FEF713
:102B6000C1FE401B0228F5D9032051E0E369226A27
:102B70001343626A43EA8213A26A5208013A43EAA3
:102B80000243E26A43EA0263284A5360284B012267
:102B90001A66FEF7A7FE0446244B1B6813F0007F5D
:102BA00006D1FEF79FFE001B0228F5D903202FE077
:102BB00000202DE000202BE0012B2BD01B4B5B686D
:102BC00003F48001E269914226D103F03F02216AB9
:102BD0008A4223D1616A47F6C0721A40B2EB811F64
:102BE0001ED103F44031A26A5208013AB1EB024F00
:102BF00018D103F07063E26AB3EB026F14D10020C6
:102C000006E001207047012002E0012000E00020E2
:102C100002B070BD0120FBE70120F9E70120F7E7D2
:102C20000120F5E70120F3E70120F1E70038024039
:102C30000000474208B5264B9B6803F00C03042BA9
:102C400041D0082B41D1224B5A6802F03F025B6809
:102C500013F4800F12D01E4B5968C1F388111D4820
:102C60000023A1FB0001FDF7FBFA194B5B68C3F3DE
:102C7000014301335B00B0FBF3F008BD144B58680F
:102C8000C0F388104FEA401CBCEB000C6EEB0E0E3C
:102C90004FEA8E1343EA9C634FEA8C11B1EB0C01AF
:102CA00063EB0E03DB0043EA5173C90011EB000C28
:102CB00043F10003990200234FEA8C2041EA9C5122
:102CC000FDF7CEFAD1E70348D7E70348D5E700BFC1
:102CD00000380240001BB7000024F400002800F078
:102CE0009B8070B50D4604464F4B1B6803F00703ED
:102CF0008B4208D2CBB24C4A1370136803F007031F
:102D00008B4240F08B80236813F0020F17D013F032
:102D1000040F04D0454A936843F4E053936023685A
:102D200013F0080F04D0414A936843F46043936062
:102D30003E4A936823F0F003A1680B439360236835
:102D400013F0010F32D06368012B21D09A1E012AA3
:102D500025D9364A126812F0020F61D033498A68C9
:102D600022F0030213438B60FEF7BCFD06462F4B97
:102D70009B6803F00C036268B3EB820F16D0FEF77A
:102D8000B1FD801B41F288339842F0D9032042E024
:102D9000264A126812F4003FE0D101203BE0234AAA
:102DA000126812F0007FD9D1012034E01E4B1B685D
:102DB00003F00703AB4207D9EAB21B4B1A701B683A
:102DC00003F00703AB422DD1236813F0040F06D0A4
:102DD000164A936823F4E053E1680B439360236839
:102DE00013F0080F07D0114A936823F46043216958
:102DF00043EAC1039360FFF71DFF0C4B9B68C3F3CD
:102E000003130B4AD35CD8400A4B18600A4B18686E
:102E1000FEF75EFB002070BD012070470120FAE73D
:102E20000120F8E70120F6E7003C024000380240AC
:102E300088E200080000002008000020014B18680C
:102E4000704700BF0000002008B5FFF7F7FF044BF4
:102E50009B68C3F38223034AD35CD84008BD00BFFC
:102E60000038024080E2000808B5FFF7E7FF044B96
:102E70009B68C3F34233034AD35CD84008BD00BF0C
:102E80000038024080E200080F2303600B4B9A6871
:102E900002F0030242609A6802F0F00282609A68CF
:102EA00002F4E052C2609B68DB0803F4E053036164
:102EB000034B1B6803F007030B60704700380240A8
:102EC000003C02407047000090F83D30DBB2012B1F
:102ED00037D1022380F83D300268D36843F0010304
:102EE000D3600368194A934220D0B3F1804F1DD0BC
:102EF000A2F57C42934219D002F58062934215D02C
:102F000002F58062934211D002F5784293420DD0CF
:102F100002F57052934209D0A2F59432934205D043
:102F20001A6842F001021A60002070479A6802F0A5
:102F30000702062A07D01A6842F001021A60002030
:102F40007047012070470020704700BF000001401B
:102F5000704770477047704770B504460368DE6875
:102F60001D6915F0020F10D016F0020F0DD06FF092
:102F700002021A610123037703689B6913F0030FB0
:102F80005ED0FFF7E6FF0023237715F0040F12D081
:102F900016F0040F0FD023686FF004021A610223A9
:102FA000237723689B6913F4407F4FD02046FFF7B7
:102FB000D0FF0023237715F0080F12D016F0080F6A
:102FC0000FD023686FF008021A6104232377236867
:102FD000DB6913F0030F40D02046FFF7BAFF002350
:102FE000237715F0100F12D016F0100F0FD02368B2
:102FF0006FF010021A61082323772368DB6913F44A
:10300000407F31D02046FFF7A4FF0023237715F03F
:10301000010F02D016F0010F2DD115F0800F02D054
:1030200016F0800F2FD115F0400F02D016F0400F90
:1030300031D115F0200F02D016F0200F33D170BD22
:10304000FFF786FF2046FFF785FF9CE72046FFF746
:103050007FFF2046FFF77EFFABE72046FFF778FFB4
:103060002046FFF777FFBAE72046FFF771FF2046BB
:10307000FFF770FFC9E723686FF001021A6120466D
:10308000FEF766F9C9E723686FF080021A612046EF
:1030900000F0A7F8C7E723686FF040021A612046E6
:1030A000FFF759FFC5E723686FF020021A61204639
:1030B00000F096F8C3E700000368324A904212D04D
:1030C000B0F1804F0FD0A2F57C4290420BD002F5B8
:1030D0008062904207D002F58062904203D002F5F0
:1030E0007842904203D123F070034A681343254A83
:1030F00090422AD0B0F1804F27D0A2F57C42904276
:1031000023D002F5806290421FD002F58062904287
:103110001BD002F57842904217D002F570529042CF
:1031200013D002F5806290420FD002F58062904287
:103130000BD0A2F59832904207D002F580629042FF
:1031400003D002F58062904203D123F44073CA6831
:10315000134323F080034A6913438A68C2620A68F2
:103160008262084A904203D002F58062904201D107
:103170000A690263026842F00402026001224261AD
:10318000036070470000014040B310B5044690F85A
:103190003D30F3B1022384F83D30214651F8040B51
:1031A000FFF78AFF012384F8463084F83E3084F824
:1031B0003F3084F8403084F8413084F8423084F85D
:1031C000433084F8443084F8453084F83D300020A2
:1031D00010BD80F83C30FFF775FEDBE7012070473B
:1031E00070477047026802F10C0353E8003F23F078
:1031F000C0030C3242E800310029F3D1202380F8CB
:1032000041307047026802F10C0353E8003F23F499
:1032100090730C3242E800310029F3D1026802F1C8
:10322000140353E8003F23F00103143242E8003155
:103230000029F3D1036B012B05D0202380F8423005
:10324000002303637047026802F10C0353E8003F58
:1032500023F010030C3242E800310029F3D1ECE7EF
:1032600090F84130DBB2212B01D0022070478368F7
:10327000B3F5805F17D0036A5A1C02621A7803689C
:103280005A60C38C9BB2013B9BB2C3844BB90268AA
:10329000D36823F08003D3600268D36843F040030F
:1032A000D360002070470369002BE4D1036A1B88B8
:1032B0000268C3F308035360036A02330362E0E762
:1032C00010B504460268136923F44053C1680B43E8
:1032D0001361836802691A4343691A43C3691A4335
:1032E0000168CB6823F4164323F00C031343CB602F
:1032F0000268536923F4407381690B435361036887
:10330000314A934206D002F58062934202D0FFF721
:103310009BFD01E0FFF7A8FDE369B3F5004F29D05D
:103320000021031849411B1841F10001C90041EA7D
:103330005371DB00181863684FEA83024FEA9373F6
:1033400041F10001FCF78CFF204AA2FB0031490942
:10335000642303FB11031B013233A2FB03235B092C
:1033600003F0F00202EB011203F00F032168134493
:103370008B6010BD0023021843EB0301121841F1CA
:103380000001C90041EA5271D200101841F1000158
:10339000626892185B41FCF763FF0C4AA2FB0031A4
:1033A0004909642303FB1103DB003233A2FB03232F
:1033B0005B095A0002F4F87202EB011203F00703F2
:1033C000216813448B60D4E7001001401F85EB5146
:1033D00060B310B5044690F8413013B3242384F849
:1033E00041302268D36823F40053D3602046FFF7AE
:1033F00067FF2268136923F49043136122685369BD
:1034000023F02A0353612268D36843F40053D36046
:1034100000206064202384F8413084F842306063E7
:1034200010BD80F84030FEF76DF9D7E701207047F6
:1034300038B5134690F84120D2B2202A36D104463E
:10344000002935D00BB9012031E001628384C384A7
:1034500000224264212084F84100A06B154DC56311
:10346000A06B154D0564A06B144DC564A06B02657F
:1034700022680432A06BFEF765FF30B1102363644D
:10348000202384F84130012011E023686FF04002CE
:103490001A60226802F1140353E8003F43F08003EE
:1034A000143242E800310029F3D100E0022038BD97
:1034B0000120FCE7C33400082B3500083B35000829
:1034C000704708B50346806B1B681B6813F4807F48
:1034D0001AD10023C384026802F1140353E8003FA9
:1034E00023F08003143242E800310029F3D102684E
:1034F00002F10C0353E8003F43F040030C3242E872
:1035000000310029F3D108BDFFF7DAFFFBE708B56A
:103510000168CA6822F04002CA60202280F8412077
:10352000FFF7CEFF002008BD704708B5806BFFF79E
:10353000FBFF08BD70477047704710B5846B236868
:103540005A6994F84130DBB2212B10D023685A69B4
:1035500002F0400294F84230DBB2222B11D0636CAF
:1035600043F0100363642046FFF7E6FF10BD02F04E
:103570008002002AEAD00023E3842046FFF732FECF
:10358000E4E7002AEBD00023E3852046FFF73AFE6C
:10359000E5E708B5806B0023C385FFF7CDFF08BDC5
:1035A00090F84230DBB2222B69D18368B3F5805F9B
:1035B0004FD0826AB3F5805F04D0002B56D10369E7
:1035C000002B53D103685B681370836A01338362F5
:1035D000C38D9BB2013B9BB2C385002B51D100B57B
:1035E00083B00268D36823F02003D3600268D368F5
:1035F00023F48073D3600268536923F0010353619D
:10360000202380F8423000234363036B012B33D126
:1036100000230363026802F10C0353E8003F23F028
:1036200010030C3242E800310029F3D103681A6814
:1036300012F0100F06D0002201921A6801925B6806
:103640000193019B818D01F0BBFC002003B05DF86C
:1036500004FB0269002AACD1826A03685B68C3F389
:1036600008031380836A02338362B1E703685B68EF
:1036700003F07F031370A8E7FFF75CFFE5E7022084
:10368000704700207047000010B582B00446026801
:103690001368D068516913F00F0F09D113F0200F90
:1036A0000CD010F0200F09D02046FFF779FF16E06C
:1036B00011F0010115D110F4907F12D1216B012975
:1036C00079D013F0800F03D010F0800F40F02181EB
:1036D00013F0400F03D010F0400F40F01E8102B0F5
:1036E00010BD13F0010F06D010F4807F03D0626C80
:1036F00042F00102626413F0040F04D019B1626C4D
:1037000042F00202626413F0020F04D019B1626C3D
:1037100042F00402626413F0080F07D010F0200F8B
:1037200000D119B1626C42F008026264626C002A36
:10373000D5D013F0200F02D010F0200F29D123682C
:103740005B6903F04003626C12F0080F00D163B3B1
:103750002046FFF757FD23685B6913F0400F20D028
:10376000226802F1140353E8003F23F040031432AF
:1037700042E800310029F3D1E36B73B1694A1A655D
:10378000E06BFEF75EFE0028A9D0E06B036D984762
:10379000A5E72046FFF704FFD1E72046FFF7CCFE60
:1037A0009DE72046FFF7C8FE99E72046FFF7C4FED5
:1037B0000023636493E713F0100F82D010F0100F12
:1037C0003FF47FAF00230193136801935368019383
:1037D000019B536913F0400F5FD0E26B13685B6885
:1037E0009BB2002B4AD0A18D994247D9E385D3697A
:1037F000B3F5807F37D0226802F10C0353E8003F15
:1038000023F480730C3242E800310029F3D122689E
:1038100002F1140353E8003F23F00103143242E89D
:1038200000310029F3D1226802F1140353E8003F6C
:1038300023F04003143242E800310029F3D1202361
:1038400084F8423000232363226802F10C0353E81A
:10385000003F23F010030C3242E800310029F3D17D
:10386000E06BFEF7A4FD02236363A18DE38D9BB2A1
:10387000C91A89B2204601F0A3FB30E7A18D994215
:103880007FF42DAFD369B3F5807F7FF428AF022397
:103890006363204601F094FB21E7A18DE38D9BB289
:1038A000C91A89B2E38D9BB2002B3FF418AF0029EF
:1038B0003FF415AF226802F10C0353E8003F23F4F4
:1038C00090730C3242E800300028F3D1226802F1F4
:1038D000140353E8003F23F00103143242E80030A0
:1038E0000028F3D1202384F8423000232363226888
:1038F00002F10C0353E8003F23F010030C3242E8BE
:1039000000300028F3D102236363204601F058FB06
:10391000E5E62046FFF7A4FCE1E62046FFF7F7FDC9
:10392000DDE600BF9335000808B5806B01234363D3
:10393000036B012B02D0FFF7FEFD08BD818D490806
:1039400001F03EFBF9E708B50346806B1B681B6876
:1039500013F4807F2BD10023C385026802F10C038E
:1039600053E8003F23F480730C3242E80031002911
:10397000F3D1026802F1140353E8003F23F001037E
:10398000143242E800310029F3D1026802F1140335
:1039900053E8003F23F04003143242E8003100298D
:1039A000F3D1202380F84230036B012B07D0002392
:1039B0004363036B012B0FD0FFF7BCFD08BD02680A
:1039C00002F10C0353E8003F23F010030C3242E8ED
:1039D00000310029F3D1EAE7818D01F0F1FAEDE73A
:1039E00030B583B00446134681628285002242646A
:1039F000222084F84200E06B244DC563E06B244D27
:103A00000564E06B234DC564E06B026520680A46DF
:103A1000011DE06BFEF796FC00282FD100230193D7
:103A200023681A6801925B680193019B23695BB16B
:103A3000226802F10C0353E8003F43F480730C3218
:103A400042E800310029F3D1226802F1140353E85F
:103A5000003F43F00103143242E800310029F3D162
:103A6000226802F1140353E8003F43F0400314328C
:103A700042E800310029F3D103B030BD1023636464
:103A8000202384F842300120F6E700BF47390008C0
:103A9000293900083B35000890F84230DBB2202B72
:103AA00027D110B582B0044629B312B9012002B063
:103AB00010BD0123036300234363FFF791FF236BD2
:103AC000012B01D00120F2E70023019323681A683B
:103AD00001925B680193019B226802F10C0353E899
:103AE000003F43F010030C3242E800310029F3D1CB
:103AF000DDE7022070470120D9E7842801D0033098
:103B000070470020704708B500F068FD002008BD30
:103B10002DE9F04387B00E464469C4B18569B5B15B
:103B20004768D0F80080D0F81090B0F90800FFF78F
:103B3000E4FF02950194009033464A4641463846D8
:103B400000F0DCFC0590059807B0BDE8F083446800
:103B500005680769B0F90800FFF7CFFF05AB0193CF
:103B600000903346BAB22946204600F004FD0128F1
:103B7000E9D00020E8E708B500B9012000F0D8FE40
:103B8000002008BD00F1080343604FF0FF3282605F
:103B9000C360036100230360704700230361704723
:103BA00043684B609A688A60516099600861036855
:103BB00001330360704730B40D68B5F1FF3F11D099
:103BC00000F108031C465B681A68AA42FAD96368C8
:103BD0004B6099608C606160086103680133036029
:103BE00030BC70470469F2E70369416882688A6003
:103BF000416851605A68824206D0002202611A6808
:103C0000013A1A601868704782685A60F5E7000048
:103C100082B0002301930D4B1B68B3F1FF3F08D026
:103C20004FF0500383F31188BFF36F8FBFF34F8FB3
:103C3000FEE74FF0500383F31188BFF36F8FBFF39C
:103C40004F8F019B002BFCD002B070470C0000206E
:103C500008480068006880F308884FF0000080F38F
:103C6000148862B661B6BFF34F8FBFF36F8F00DF6A
:103C700000BF000008ED00E0DFF80C00016841F42F
:103C8000700101607047000088ED00E04FF0807324
:103C900040F8043C21F0010140F8081C054B40F8B5
:103CA0000C3C40F8202C6FF0020340F8243C4438D0
:103CB000704700BF113C0008000000000000000039
:103CC000074B19680868B0E8F04F80F30988BFF324
:103CD0006F8F4FF0000080F311887047AFF30080C2
:103CE000BC4A00204FF0500383F31188BFF36F8F5D
:103CF000BFF34F8F0B4A136801331360012B00D0C1
:103D000070474FF0E023D3F8043D13F0FF0FF7D0D6
:103D10004FF0500383F31188BFF36F8FBFF34F8FC2
:103D2000FEE700BF0C000020094B1B6843B94FF0B1
:103D3000500383F31188BFF36F8FBFF34F8FFEE7FC
:103D4000013B034A13600BB983F31188704700BF2E
:103D50000C00002000000000000000000000000037
:103D6000EFF30980BFF36F8F154B1A681EF0100F29
:103D700008BF20ED108A20E9F04F10602DE90900FE
:103D80004FF0500080F31188BFF34F8FBFF36F8F58
:103D900000F0F4FD4FF0000080F3118809BC1968B1
:103DA0000868B0E8F04F1EF0100F08BFB0EC108AA2
:103DB00080F30988BFF36F8F704700BFAFF30080B7
:103DC000BC4A002008B54FF0500383F31188BFF3BD
:103DD0006F8FBFF34F8F00F051FC28B14FF0E023FD
:103DE0004FF08052C3F8042D002383F3118808BDDF
:103DF0004FF0E022002313619361054B1B680549D6
:103E0000A1FB03139B09013B536107231361704717
:103E100000000020D34D62104FF0E023D3F8002DB6
:103E20003D4B9A421CD04FF0E023D3F8002D3B4B82
:103E30009A421ED030B583B0394B1A78D2B2019273
:103E4000FF221A701B78DBB28DF803309DF8033027
:103E500003F05003334A1370334B07221A601BE000
:103E60004FF0500383F31188BFF36F8FBFF34F8F71
:103E7000FEE74FF0500383F31188BFF36F8FBFF35A
:103E80004F8FFEE7284A1368013B13609DF803300B
:103E90005B00DBB28DF803309DF8033013F0800F28
:103EA000F0D1214B1B68032B08D04FF0500383F354
:103EB0001188BFF36F8FBFF34F8FFEE71B021A4AC3
:103EC000136003F4E0631360019BDBB2144A1370C8
:103ED0004FF0E024D4F8203D43F47003C4F8203DB3
:103EE000D4F8203D43F07043C4F8203DFFF780FF35
:103EF00000250E4B1D60FFF7BFFED4F8343F43F0A2
:103F00004043C4F8343FFFF7A3FE00F037FDFFF74E
:103F10007FFE284603B030BD71C20F4170C20F4111
:103F200000E400E0700D00206C0D00200C0000206B
:103F3000124A12F0070F1ED0D11D21F00701C1F562
:103F4000705313440A460E48026000214160134436
:103F5000083B23F007030B48036059601960991A66
:103F600051601360084B1960084B1960084B4FF003
:103F700000421A6070474FF47053E4E7940D00203C
:103F80008C0D0020880D0020800D0020840D002065
:103F9000740D0020164B1A461B688342FBD35168F0
:103FA00002EB010C844509D0416800EB010C63452C
:103FB00009D00360904219D01060704740680144F6
:103FC00051601046F0E710B40A4C2468A3420BD0AD
:103FD0005B681944416013681B680360904200D01D
:103FE00010605DF8044B70470460F7E7704700BF4E
:103FF0008C0D0020880D002038B5044600F030FB01
:10400000384B1B68B3B1384B1B681C4250D1002C95
:1040100050D004F1080214F0070F02D022F007027A
:104020000832002A55D0314B1B68934253D3304994
:104030000C6804E0FFF77CFFE5E721461C46636857
:10404000934202D22368002BF7D1264B1B68A34270
:1040500043D00D68083523680B6063689B1A102BEA
:1040600010D9A01810F0070F08D04FF0500383F3B9
:104070001188BFF36F8FBFF34F8FFEE7436062601D
:10408000FFF788FF626819490B689B1A0B60194992
:1040900009688B4201D217490B60134B1B6813430D
:1040A000636000232360144A13680133136002E045
:1040B000002500E0002500F06DFB15F0070F0ED085
:1040C0004FF0500383F31188BFF36F8FBFF34F8F0F
:1040D000FEE70025EFE70025EDE70025EBE72846A2
:1040E00038BD00BF880D0020740D0020840D002015
:1040F0008C0D0020800D00207C0D0020002834D085
:1041000038B50446A0F1080550F8043C174A126877
:10411000134208D14FF0500383F31188BFF36F8F20
:10412000BFF34F8FFEE750F8081C41B14FF050032A
:1041300083F31188BFF36F8FBFF34F8FFEE723EA3E
:10414000020340F8043C00F08BFA54F8041C084ABF
:1041500013680B4413602846FFF71CFF054A1368D9
:104160000133136000F016FB38BD7047740D00205A
:10417000840D0020780D0020084B1B681B6823B9B4
:10418000074B4FF0FF321A607047044B1B68DB6827
:10419000DB685A68024B1A60704700BF044A00206F
:1041A0009C4900202DE9F04707469846089DDDF818
:1041B00024900A9C266B02F18042013A06EB8206AB
:1041C00026F00706002964D008464FF0000CBCF129
:1041D0000F0F09D810F80C2004EB0C0383F83420DF
:1041E00012B10CF1010CF2E7002384F84330062DE4
:1041F00000D90625E56265644FF0000AC4F848A0BE
:10420000201DFFF7CAFC04F11800FFF7C6FC24616B
:10421000C5F10705A5616462C4F890A184F894A172
:104220004FF4A072514604F1500003F0EFF91B4B1C
:10423000636503F16802A265D033E36501220023C0
:10424000C4E93A2343F20E33A4F8F0304AF6CD33F2
:10425000A4F8F23041F23423A4F8F4304EF26D6346
:10426000A4F8F6304DF6EC63A4F8F8300523A4F872
:10427000FA300B23A4F8FC30424639463046FFF7AB
:1042800005FD2060B9F1000F01D0C9F80040BDE87C
:10429000F087002384F83430A9E700BFAC4B00203E
:1042A00038B5002407E004EB840293000E4818445C
:1042B000FFF768FC0134062CF5D90C4D2846FFF7B2
:1042C00061FC0B4C2046FFF75DFC0A48FFF75AFCE7
:1042D0000948FFF757FC0948FFF754FC084B1D60DD
:1042E000084B1C6038BD00BF304A00201C4A00202B
:1042F000084A0020EC490020D8490020C04900208D
:10430000044A0020004A002010B50446FFF7EAFCEA
:10431000214A136801331360204B1B685BB1204BAB
:104320001B686BB91D4B1B68DA6AE36A9A4207D8AF
:104330001A4B1C6004E0194B1C601368012B28D039
:10434000184A136801331360E06A01238340164A58
:1043500011680B43136000EB8000211D134B03EB2E
:104360008000FFF71DFCFFF7DFFC0D4B1B687BB1E6
:104370000A4B1B68DA6AE36A9A4209D24FF0E023DB
:104380004FF08052C3F8042DBFF34F8FBFF36F8FF0
:1043900010BDFFF785FFD3E7BC490020BC4A0020D1
:1043A000B0490020A0490020B4490020304A002034
:1043B00010B50446503003F005FA94F8953163B116
:1043C000012B11D0022B0ED04FF0500383F3118834
:1043D000BFF36F8FBFF34F8FFEE7206BFFF78EFEAB
:1043E0002046FFF78BFE10BD2046FFF787FEFAE759
:1043F0000F4B1B68D3B110B5FFF774FC0D4BDB6896
:10440000DC68201DFFF7F0FB0B4A1368013B1360CB
:10441000074A1368013B1360FFF786FC2046FFF74D
:10442000C7FF034B1B68002BE6D110BD704700BFD0
:10443000D4490020D8490020BC49002008B5FFF726
:10444000D7FF074B1B68012BF9D94FF0E0234FF042
:104450008052C3F8042DBFF34F8FBFF36F8FEEE789
:10446000304A002070B504460D461D4B1E681D4B9A
:1044700018680430FFF7B8FB48B91A4B1B68DB6AB1
:1044800001229A4018490B6823EA02030B60B4F139
:10449000FF3F0DD03444134B1B685C60A64210D91B
:1044A000124B18680F4B19680431FFF784FB70BD7D
:1044B000002DEFD00B4B196804310D48FFF770FB4E
:1044C000F5E70C4B1868074B19680431FFF773FBCD
:1044D000094B1B68A342EAD9074B1C60E7E700BF02
:1044E000B8490020BC4A0020B4490020004A0020FE
:1044F000C0490020044A00209C49002030B587B004
:104500000B9C8CB10C9DC5B14FF4CC750495049DEA
:10451000B5F5CC7F1AD04FF0500383F31188BFF369
:104520006F8FBFF34F8FFEE74FF0500383F3118877
:10453000BFF36F8FBFF34F8FFEE74FF0500383F34E
:104540001188BFF36F8FBFF34F8FFEE7049D0C9D63
:104550002C63022485F8954100240394029505AC50
:1045600001940A9C0094FFF71DFE0C98FFF7CCFE07
:10457000059807B030BD2DE9F04385B00746884661
:1045800014461E469000FFF737FD10B381464FF4E6
:10459000CC70FFF731FD0546A8B1C0F8309000237C
:1045A00080F89531039302900D9B01930C9B00932F
:1045B0003346224641463846FFF7F4FD2846FFF7CA
:1045C000A3FE012007E04846FFF798FD4FF0FF30BB
:1045D00001E04FF0FF3005B0BDE8F08310B588B0C2
:1045E00000240594069407AA06A905A8FCF708FE6E
:1045F000059B0293069B019300942346079A10495A
:104600001048FFF77BFF104B1860B8B14FF0500314
:1046100083F31188BFF36F8FBFF34F8F0B4B1B6872
:1046200050330B4A13600B4B4FF0FF321A600A4BAA
:1046300001221A60094B1C60FFF7EEFB08B010BDA9
:1046400040E000083D44000898490020BC4A002092
:10465000C80200209C490020B0490020B849002031
:10466000024A136801331360704700BF9449002069
:10467000014B1868704700BFB8490020F8B53A4BA5
:104680001B68002B69D1394B1D6801351D60C5B908
:10469000374B1B681B6843B14FF0500383F31188FD
:1046A000BFF36F8FBFF34F8FFEE7314A1168314B75
:1046B000186810601960304A136801331360FFF7FF
:1046C0005BFD2E4B1B68AB423DD900272C4B1B6872
:1046D000DB6A03EB83039A002A4B9B58012B00D91A
:1046E0000127294B1B68002B3CD001273AE001270A
:1046F0001F4B1B681B6843B31D4B1B68DB68DC68E2
:1047000063689D4226D3261D3046FFF76DFAA36AE3
:104710001BB104F11800FFF767FAE36A01229A401F
:104720001A49086802430A6003EB83039A00314682
:1047300014481044FFF734FAE26A114B1B68DB6A35
:104740009A42D4D2D4E70027D2E70C4B4FF0FF3285
:104750001A60BBE7094A1360B8E70D4A13680133D2
:10476000136000273846F8BD94490020B84900205E
:10477000044A0020004A0020A44900209C4900204F
:10478000BC4A0020304A0020A8490020B44900203B
:10479000AC49002038B5354B1B6843B94FF0500386
:1047A00083F31188BFF36F8FBFF34F8FFEE7FFF7DF
:1047B00099FA2E4B1A68013A1A601B68002B4FD1E8
:1047C0002B4B1B680BB900244BE00024294B1B68C2
:1047D0001BB3284BDB68DC6804F11800FFF704FA10
:1047E000251D2846FFF700FAE06A01238340224A8C
:1047F00011680B43136000EB800029461F4B03EB4D
:104800008000FFF7CDF9E26A1D4B1B68DB6A9A4214
:10481000DCD31C4B01221A60D8E70CB1FFF7ACFCCB
:10482000194B1C6884B9174B1C68D4B14FF0E023B6
:104830004FF08052C3F8042DBFF34F8FBFF36F8F3B
:1048400001240EE0013C07D0FFF718FF0028F9D043
:104850000C4B01221A60F5E70B4B00221A60E2E7CD
:104860000024FFF761FA204638BD00BF94490020BC
:10487000BC490020EC490020B4490020304A002007
:10488000BC4A0020A8490020AC49002038B558B1E6
:104890000C46054689B94FF0500383F31188BFF3E6
:1048A0006F8FBFF34F8FFEE74FF0500383F31188F4
:1048B000BFF36F8FBFF34F8FFEE71B4B1B6843B1F6
:1048C0004FF0500383F31188BFF36F8FBFF34F8F07
:1048D000FEE7FFF7C5FE154B18682B681C448342A2
:1048E00009D9A34201D82C600EE0A04201D32C606C
:1048F0000AE02C6004E0A34201D8A04212D22C604E
:104900000021201AFFF7AEFDFFF744FF48B94FF032
:10491000E0234FF08052C3F8042DBFF34F8FBFF355
:104920006F8F38BD2C60EFE794490020B849002014
:1049300010B5A8B10446104B1B6843B14FF05003AB
:1049400083F31188BFF36F8FBFF34F8FFEE7FFF73D
:1049500087FE00212046FFF785FDFFF71BFF48B9C2
:104960004FF0E0234FF08052C3F8042DBFF34F8F78
:10497000BFF36F8F10BD00BF94490020224B1B680E
:104980001BB1224B01221A607047204B00221A6093
:104990001F4B1B68B3FA83F3DBB2C3F11F0303EBB6
:1049A00083018A001B498A5842B94FF0500383F3B0
:1049B0001188BFF36F8FBFF34F8FFEE7154803EBEE
:1049C00083018A00024451684968516003EB830CFB
:1049D0004FEA8C020832024491420DD003EB83036C
:1049E0009A000C4B13445B68DA680B4B1A601B6827
:1049F00050330A4A13607047486862469100054A7E
:104A00000A445060EAE700BF94490020A84900200A
:104A1000B4490020304A0020BC4A0020C8020020CF
:104A200010B58AB0002305930122089206930792DD
:104A3000009301930293039304930993064C6946F0
:104A40002046FCF7FBFF2046FDF794F802212046A4
:104A5000FDF7E8F90AB010BD4408002010B58AB08F
:104A6000BDF930E0BDF934C0002009900824079456
:104A700005900391069042FA04F18DF804108DF828
:104A8000052043FA04F28DF806208DF807309DF9D1
:104A900031308DF808308DF809E09DF935308DF80A
:104AA0000A308DF80BC009AB01AA03A90248FDF733
:104AB0008FF80AB010BD00BF4408002000B589B0CF
:104AC000154B01AA00211548FDF7F7F8019A13B21A
:104AD00013490B80A3F20523012B02D909B05DF81D
:104AE00004FBA2F205220C4B1978587840EA012009
:104AF0000C4921F8320093F802C0D87840EA0C2023
:104B000001EBC20250801879597941EA0021918065
:104B10009B79D380E2E700BFD44A002044080020FC
:104B2000C04A0020C44A002008B50248FFF7C6FF6B
:104B300008BD00BFE44A002038B52DED048B0446C3
:104B40001A48FFF76DFFDFED1A9A9FED1A9ADFED15
:104B50001A8A9FED1A8A1A4DB0EE693AF0EE492A88
:104B6000B0EE682AF7EE001AB0EE481ADFED150A2B
:104B7000B3EE040A04F11401284600F045F9B0EE42
:104B8000693AF0EE492AB0EE682AF7EE001AB0EE64
:104B9000481ADFED0D0A9FED0D0A04F14C0128467D
:104BA00000F032F9BDEC048B38BD00BFE44A0020B0
:104BB000000096430000FA440060EA46000000004E
:104BC000E04A00200AD7A33C0AD7A33B9A99993E12
:104BD000D0F884301B8807EE903AF8EE677A037CB1
:104BE000BBB190ED247A37EEC77ADFED136AB4EEED
:104BF000E67AF1EE10FA13DDDFED106A37EE667A31
:104C0000D0ED236A36EE877A80ED237AC0ED247AE0
:104C10007047C0ED237AC0ED247A012303747047F6
:104C2000DFED076AB4EEE67AF1EE10FAE8D5DFEDD3
:104C3000036A37EE267AE3E700008045000000466D
:104C4000000080C510B52DED028B0446B0EE408A01
:104C5000D0F884301B8807EE903AF8EE677AD0EDF2
:104C6000266A90ED037A76EEC76AF4EEE76AF1EE13
:104C700010FA03D890F90830002B2ADCD4ED256A0D
:104C800037EE267AB4EEE77AF1EE10FA03DB94F908
:104C90000830002B25DB94F9083000EE903AF8EE4E
:104CA000E00AD4F88430B3F9023000EE103A60EE36
:104CB000880AB8EEC00A04F114010E4800F062F947
:104CC000BDEEC00A10EE103AA4F88830BDEC028B9D
:104CD00010BDFF23037200F11401064800F05CF9D7
:104CE000D9E70123237204F11401024800F054F9BA
:104CF000D1E700BFE04A002010B52DED028B04463D
:104D0000B0EE408AFFF764FFD4ED267AF4EEC87A5D
:104D1000F1EE10FA01D9F0EE487A94ED250AB4EEDE
:104D2000E70AF1EE10FA01DAB0EE670AD4ED230AD1
:104D300070EE607A9FED177AF4EEC77AF1EE10FA12
:104D40001BDDDFED157A70EEA70AD4F88430B3F9D5
:104D5000023001EE103AB8EEC11A04F14C0204F12F
:104D600014010E4800F0E8F8BDEEC00A10EE103A4B
:104D7000A4F88830BDEC028B10BD9FED097AF4EEEB
:104D8000C77AF1EE10FAE0D5DFED037A70EEE70AAC
:104D9000DBE700BF0000804500000046E04A00203D
:104DA000000080C538B5044690F89C20144B1B7851
:104DB0009A4209D1124B1B78022B15D0012B19D026
:104DC0000023A4F8883038BD0E4D00F114012846A8
:104DD00000F0E2F804F14C01284600F0DDF8084B41
:104DE0001B7884F89C30E5E794ED010A2046FFF734
:104DF00083FFE8E794ED000A2046FFF723FFE2E790
:104E0000DC4A0020E04A002081ED000AC1ED010AE1
:104E100081ED021AC1ED0A1A81ED0B2AC1ED0C2AAF
:104E200081ED0D3A704781ED090AC1ED080ACB68A2
:104E30000B6170EEC00AC1ED030AD1ED0A7AF4EEFF
:104E4000E70AF1EE10FA08D5F1EE677AF4EEE70A18
:104E5000F1EE10FA01DD0023CB60D1ED057A91ED82
:104E6000037A77EE877AC1ED057A91ED0B7AF4EE4D
:104E7000C77AF1EE10FA02DD81ED057A7047B1EEE6
:104E8000477AF4EEC77AF1EE10FA01D581ED057A92
:104E90007047D1ED007A91ED037A67EE877AD1ED14
:104EA000026A91ED046A37EE467A26EE877A77EE4B
:104EB000877A91ED057AD1ED016A27EE267A77EEB1
:104EC000877AC1ED067A91ED0C7AF4EEC77AF1EEAD
:104ED00010FA01DB81ED067AD1ED067AB1EE477A60
:104EE000F4EEC77AF1EE10FA01D881ED067AD1ED31
:104EF000066AD1ED077A76EEE76A91ED0D7AF4EE67
:104F0000C76AF1EE10FA03DD77EE876AC1ED066A33
:104F1000D1ED066A76EEE76AB1EE476AF4EEC66A4C
:104F2000F1EE10FA03D577EEC77AC1ED067A91ED6E
:104F3000060A81ED070A704770B52DED028B054614
:104F40000C461646F0EE607AB0EE418AF0EE400A6A
:104F5000B0EE670A1146FFF766FF31462846FFF7B5
:104F600098FFD6ED060AB0EE480A21462846FFF71C
:104F70005AFF21462846FFF78CFF94ED060ABDEC48
:104F8000028B70BD38B504460D46FFF74CFF29462D
:104F90002046FFF77EFF38BD0023CB600B614B61DD
:104FA0008B61CB617047000008B54022024903487D
:104FB000FEF772FD08BD00BFEC4A0020200D002066
:104FC0000268054B9A4200D07047044B1980044B8D
:104FD00001221A70F8E700BF00100140E64A0020E5
:104FE000E84A0020664B1B78002B00F0C88000B513
:104FF00089B00023624A13701A462DE053B303F1BF
:1050000020026A44002102F8201C002B40D09DF8A9
:105010000030412B00F091803AD3732B38D84D2BC0
:1050200036D34D3B262B33D8DFE803F02A32323219
:10503000323243323232323232323232323232323F
:105040008732323232323232323232322A323232F3
:1050500032324300013292B24A49098889B2914200
:10506000CDD91E2BCBD84849895C0D29C6D00A2939
:10507000C4D0581C20336B4403F8201C83B2E9E7EA
:105080009DF80130302B08D0312B0AD0322B0CD0B8
:10509000FFF78AFF09B05DF804FB3C4A002111705C
:1050A000F2E73A4A01211170F0E7384B02221A70F8
:1050B000EEE79DF80130792B1BD0592B19D09DF8C4
:1050C0000130702B01D0502BE2D10DF1020001F024
:1050D0000FF951EC100BFBF773F807EE900AF5EEA1
:1050E000C07AF1EE10FA20DB294B186001221A7207
:1050F000CEE70DF1020001F0FBF851EC100BFBF7CD
:105100005FF807EE900AF5EEC07AF1EE10FA04DBD4
:10511000204B186001221A72D1E7F1EE677A1D4B1D
:10512000C3ED007AFF221A72C9E7F1EE677A184BD5
:10513000C3ED007AFF221A72AAE79DF80130792B9D
:1051400012D0592B10D09DF80130702B01D0502B6C
:105150009ED10DF1020001F0CBF851EC100BFBF7E2
:105160002FF80B4B586093E70DF1020001F0C0F8E7
:1051700051EC100BFBF724F8064B5860E3E770473F
:10518000E84A0020E64A0020EC4A0020DC4A0020E1
:10519000B00000201000002030B585B0FFF768FA9D
:1051A00003900C4D2846FFF7FDFD0B4C2046FFF702
:1051B000F9FD002301930093B5F98830B4F98820F4
:1051C0004FF4FF710548FFF749FC022103A8FFF7E0
:1051D0005DFBE6E710000020B0000020E44A00205C
:1051E00010B588B00D4CC369069383690593436974
:1051F000049303690393C36802938368019343682C
:1052000000930368064A8021204602F06FF982B2BB
:1052100021460448FEF70CF908B010BD2C4B0020C5
:1052200048E00008200D002000B58BB0FFF720FA01
:105230000990FFF7D7FE164AD2ED017AFDEEE77A24
:10524000CDED017A134B19880291D2ED007AFDEE73
:10525000E77ACDED037AB3F9022004920E4AD2ED3B
:10526000017AFDEEE77ACDED057A19890691D2ED46
:10527000007AFDEEE77ACDED077AB3F90A300893AC
:1052800001A8FFF7ADFF322109A8FFF7FFFAD0E729
:10529000B0000020C44A0020100000202DE9F04793
:1052A000089D0E4604460F46002B4AD194468C4575
:1052B000B2FA82F260D942B1C2F12003974020FADB
:1052C00003F30CFA02FC1F4394404FEA1C4E1FFAF2
:1052D0008CF6B7FBFEF1230C0EFB117743EA074374
:1052E00001FB06F098420AD91CEB030301F1FF37DA
:1052F00080F01581984240F21281023963441B1AF2
:10530000A4B2B3FBFEF00EFB103344EA034400FBEF
:1053100006F6A6420AD91CEB040400F1FF3380F024
:105320000081A64240F2FD806444023840EA014018
:10533000A41B00211DB1D4400023C5E90043BDE8F2
:10534000F0878B4205D90DB1C5E90001002108465F
:10535000F5E7B3FA83F1002946D1B34202D3824282
:1053600000F2F580841A66EB030201201746002D37
:10537000E5D0C5E90047E2E7002A40F09380A1EBC1
:105380000C034FEA1C471FFA8CFE0121B3FBF7F612
:1053900007FB1630230C43EA00430EFB06F098424D
:1053A00008D91CEB030306F1FF3802D2984200F241
:1053B000D08046461B1AA4B2B3FBF7F007FB1033AC
:1053C00044EA03440EFB00FEA64508D91CEB040486
:1053D00000F1FF3302D2A64500F2B6801846A4EBD6
:1053E0000E0440EA0640A5E7C1F120078B4022FAEF
:1053F00007FC4CEA030C06FA01FE20FA07F426FA31
:1054000007F344EA0E0400FA01F84FEA1C404FEAA1
:105410001449B3FBF0FE1FFA8CF600FB1E3349EA79
:1054200003430EFB06F9994502FA01F20BD91CEB76
:1054300003030EF1FF3A80F08580994540F28280A7
:10544000AEF1020E6344A3EB0909A4B2B9FBF0F379
:1054500000FB139944EA094403FB06F6A64208D967
:105460001CEB040403F1FF3068D2A64266D9023B6C
:10547000644443EA0E40A41BA0FB02E6B442734618
:10548000B14652D34FD05DB1B8EB030264EB0904CF
:1054900004FA07F722FA01F31F43CC40C5E9007470
:1054A00000214CE7C2F1200120FA01F30CFA02FCC2
:1054B00026FA01F1964033434FEA1C471FFA8CFE4F
:1054C000B1FBF7F007FB1016190C41EA064100FB8F
:1054D0000EF68E4204FA02F408D91CEB010100F129
:1054E000FF382DD28E422BD902386144891B9BB2E2
:1054F000B1FBF7F607FB161143EA014306FB0EF179
:10550000994208D91CEB030306F1FF3814D29942E3
:1055100012D9023E63445B1A46EA004136E7394637
:10552000EDE6184602E7F045ADD2BEEB020366EBAE
:105530000C060138B146A6E74646ECE7034698E775
:105540004046D3E7D6467EE76444023847E708463C
:105550000DE7023E63442DE703685A004CBF43F059
:10556000004323F000431844704700BF2DE9F04783
:1055700059B301F1FF380546164647464FF0000A79
:105580000AEB070101EBD171491005EBC10948464F
:10559000FFF7E2FF88454FEAC104034610D004F14B
:1055A0000800B342284407D8FFF7D6FF0138B042BD
:1055B00008D201F1010AE3E78A4506D04F1EDFE772
:1055C000B042F9D84846BDE8F0874FF00009484698
:1055D000BDE8F087012809D0022805D0044B002837
:1055E0000CBF1846002070470248704702487047B9
:1055F000A55C0008B55C0008AD5C000830B5224B26
:1056000083B004468D1E43B301A92846AFF3008042
:10561000F0B101992A46FFF7A9FF0146C0B1FFF793
:105620009BFF4B68A064012B2BD0002B01F10400E1
:1056300025DBFFF791FF002323650368E064002B5F
:1056400012DBFFF789FF03460020236103B030BD62
:1056500000230920236103B030BD0C4B0C49C91A4B
:10566000C91018460191D5E7C3F30360FFF7B2FFF5
:10567000031E0CBF09200020236103B030BD0123AD
:10568000DAE700230520E0E70000000058E6000804
:1056900068E700080368DA0710B5044606D49B07DC
:1056A00000F1500009D5FAF707FE2368590709D51C
:1056B0001A070ED5DB0613D510BDFAF7F5FD2368E2
:1056C0005907F5D404F1D800FAF7FEFD23681A074C
:1056D000F0D404F5AC70FAF7FFFD2368DB06EBD4D9
:1056E00004F5EC70BDE81040FAF73ABE03460068D6
:1056F00000B11844704700BF704700BF70B5044642
:105700000E46316C2046FFF779FF054688B9326CAA
:105710006261236932462146012098470828F0D06B
:10572000072806D12846316CFFF7E6FF301DFAF74F
:10573000AFFD00F0D5FD00BF2DE9F04701F1040CED
:10574000C768D0F8188006469146BCE80F00ADF552
:10575000767D03AC0FC4BCE80F000FC4BCE80F009B
:105760000FC49CE80F0002AD4FF0000E84E80F005C
:10577000C5F800E021E02B6C73614FF4F472294608
:105780007CA8FAF75DFE33697CAA314650469847FB
:105790008A9BAB644946CDE90058824633460120D6
:1057A0003246B847814630BB4FF4F4727CA9284694
:1057B000FAF746FEBAF1080F1AD1296C3046FFF706
:1057C0001DFF09F1090904465FFA89FA0028D2D0C1
:1057D000AB6BAB643246CDE9005833464AF010015A
:1057E0000120B84738B920460DF5767DBDE8F08731
:1057F000BAF1070F05D0092420460DF5767DBDE8E6
:10580000F0874846296CFFF777FF03A8FAF740FDB9
:10581000F0B5CB6BFBB001F1040C0B640E460546F2
:10582000BCE80F0001AC0FC4BCE80F000FC4BCE81B
:105830000F000FC49CE80F004FF0FF3784E80F0003
:10584000009706E02B696A462946984708280446CF
:1058500008D110992846FFF7D1FE0028F2D0092080
:105860007BB0F0BD6846FFF715FF062CF7D1314637
:105870002846FFF743FF00BFC160D96B82611964FE
:1058800000221946FFF758BF70B5C66843690B641C
:10589000AEB903690A4604460D4601460220984700
:1058A000072805D008280FD129462046FFF726FFF4
:1058B0003046296CFFF720FF281DFAF7E9FC01228A
:1058C000FFF73AFF00F00CFD00F00AFDC26822B1BC
:1058D000CA6B0A640022FFF72FBFFFF799BF00BF12
:1058E000052915D8DFE801F00A0314030305012098
:1058F0007047009A436C13600020704743B90F2A29
:1059000006D800EB820200205368009A13607047AB
:105910000220704700B585B00A46002303A9009114
:105920001946FFF7DDFF039805B05DF804FB00BFE3
:10593000052915D8DFE801F00A0314030305012047
:105940007047009B1B6843640020704743B90F2ACF
:1059500006D8009B00EB82021B6853600020704752
:105960000220704710B584B0002303AC039200946A
:105970000A461946FFF7DCFF04B010BD70B5D36BC3
:10598000ADF5107D02F1040C136405460C46BCE82D
:105990000F000DF15C0EAEE80F00BCE80F00AEE8A2
:1059A0000F00BCE80F00AEE80F009CE80F004FF0BE
:1059B000FF368EE80F00169610E0FFF7D3FF214662
:1059C00016A8A847034616AA0820694683B9049B6F
:1059D0009847052806460CD0092809D0269968461C
:1059E000FFF70CFE03460C216A4616A8002BE4D0F4
:1059F000092616A8FFF74EFE30460DF5107D70BD46
:105A00002DE9F04F1646CA6C89B00D4652F8041BBA
:105A1000069200F0030C002B79D00C0C8DF81D4081
:105A20000904E4B2059102EB840202218DF81C10F6
:105A3000296DBCF1020F08BFAA6B11F0010809D053
:105A400005A9304600F0CEFA002856D1082009B04A
:105A5000BDE8F08F1768002FF2D000F00801CDE903
:105A60000118E3469A46BAF1020F4CD017885488C1
:105A700002F10409AA6C24F001030F21304603EB64
:105A80000208FFF747FF80453BD827F0010202EBF1
:105A90000803834294BF00230123640004F002043E
:105AA00007F001072743012F4ED0022F35D027BB27
:105AB000BBF1000F02D0002B40F0D38009F10402AB
:105AC0001768002FCFD105A93046DDF8088000F017
:105AD00089FA90B9B8F1000FB8D00F213046FFF71E
:105AE00019FF0E2102463046FFF73CFF6C4A0F219A
:105AF0003046FFF737FF072000E0092009B0BDE876
:105B0000F08F0023C9E7546802F10809B2E70902DF
