:020000040800F2
:1000000000000220150A0008C9080008CB080008F3
:10001000CD080008CF080008D10800080000000043
:10002000000000000000000000000000C1230008E4
:10003000D30800080000000061240008C52400085F
:10004000650A0008650A0008650A0008650A0008D4
:10005000650A0008650A0008650A0008650A0008C4
:10006000650A0008650A0008650A0008650A0008B4
:10007000650A0008650A0008650A0008650A0008A4
:10008000650A0008650A0008650A0008650A000894
:10009000D5080008650A0008650A0008650A000816
:1000A000650A0008650A0008650A0008650A000874
:1000B000E5080008650A0008650A0008650A0008E6
:1000C000650A0008650A0008650A0008650A000854
:1000D000650A0008650A0008650A0008650A000844
:1000E000650A0008650A0008650A0008650A000834
:1000F000650A0008650A0008650A0008650A000824
:10010000650A0008650A0008650A0008650A000813
:10011000650A0008650A0008650A0008650A000803
:10012000650A0008650A0008650A0008650A0008F3
:10013000650A0008650A0008650A0008650A0008E3
:10014000650A0008650A0008650A0008650A0008D3
:10015000650A0008650A0008650A0008650A0008C3
:10016000650A0008650A0008650A0008650A0008B3
:10017000650A0008650A0008650A0008000000001A
:08018000650A0008650A000889
:1001900053B94AB9002908BF00281CBF4FF0FF31EE
:1001A0004FF0FF3000F0E2B8ADF1080C6DE904CE7D
:1001B00003F086F9DDF804E0DDE9022304B07047BE
:1001C00000F1340191E838009C46A6464CF8045DE5
:1001D00090E8FF0FE54600BD90EC210B704700BF93
:1001E00080EC210B704700BF90EC200B704700BFE4
:1001F00080EC200B704700BFD0EC200B704700BF95
:10020000C0EC200B704700BFF0EC0201F0EC0211D3
:10021000F0EC0221F0EC0231F0EC0241F0EC025182
:10022000F0EC0261F0EC0271F0EC0281F0EC029172
:10023000F0EC02A1F0EC02B1F0EC02C1F0EC02D162
:10024000F0EC02E1F0EC02F1704700BFE0EC0201DB
:10025000E0EC0211E0EC0221E0EC0231E0EC0241C2
:10026000E0EC0251E0EC0261E0EC0271E0EC0281B2
:10027000E0EC0291E0EC02A1E0EC02B1E0EC02C1A2
:10028000E0EC02D1E0EC02E1E0EC02F1704700BFEB
:10029000B0FC0181B0FC0191B0FC01A1B0FC01B146
:1002A000704700BFA0FC0181A0FC0191A0FC01A14E
:1002B000A0FC01B1704700BFEC4600B52DE900502D
:1002C0002DE9FF1F4FF000032DE90C0001A903F0F9
:1002D000B1FBDDF840E012B0704700BFEC4600B55E
:1002E0002DE900502DE9FF1F4FF000032DE90C0010
:1002F00001A903F0DBFBDDF840E012B0704700BF5E
:10030000EC4600B52DE900502DE9FF1F4FF000032A
:100310002DE90C0001A903F0EBFBDDF840E012B081
:10032000704700BFEC4600B52DE900502DE9FF1FD6
:100330004FF000032DE90C0001AB03F0AFFBDDF83B
:1003400040E012B0704700BFEC4600B52DE9005008
:100350002DE9FF1F4FF000032DE90C0001AA03F067
:100360001FFCDDF840E012B0704700BF704700BFCF
:10037000844641EA000313F003036DD1403A41D3B0
:1003800051F8043B40F8043B51F8043B40F8043B6F
:1003900051F8043B40F8043B51F8043B40F8043B5F
:1003A00051F8043B40F8043B51F8043B40F8043B4F
:1003B00051F8043B40F8043B51F8043B40F8043B3F
:1003C00051F8043B40F8043B51F8043B40F8043B2F
:1003D00051F8043B40F8043B51F8043B40F8043B1F
:1003E00051F8043B40F8043B51F8043B40F8043B0F
:1003F00051F8043B40F8043B51F8043B40F8043BFF
:10040000403ABDD2303211D351F8043B40F8043B9E
:1004100051F8043B40F8043B51F8043B40F8043BDE
:1004200051F8043B40F8043B103AEDD20C3205D3AE
:1004300051F8043B40F8043B043AF9D2043208D0A6
:10044000D2071CBF11F8013B00F8013B01D30B8818
:1004500003806046704700BF082A13D38B078DD0F6
:1004600010F003038AD0C3F10403D21ADB071CBFC8
:1004700011F8013B00F8013B80D331F8023B20F832
:10048000023B7BE7043AD9D3013A11F8013B00F86B
:10049000013BF9D20B7803704B7843708B788370F3
:1004A000604670470348044B834202D0034B03B1BC
:1004B00018477047700500207005002000000000FC
:1004C0000548064B1B1AD90F01EBA301491002D0B6
:1004D000034B03B1184770477005002070050020DA
:1004E0000000000010B5064C237843B9FFF7DAFF8F
:1004F000044B13B10448AFF300800123237010BDF7
:100500007005002000000000E04A000808B5054B17
:100510001BB105490548AFF30080BDE80840FFF76F
:10052000CFBF00BF0000000074050020E04A0008B3
:1005300008B50D480D4B036003234360002383601F
:10054000C3604FF4002202614FF44012426103760F
:1005500043768376C3760377437700F0B1FA00B928
:1005600008BD00F0CEF8FBE78C05002000640040D9
:1005700010B588B000230393049305930693079363
:100580000268194B9A4201D008B010BD00240194B2
:1005900003F5EA331A6C42F000721A641A6C02F026
:1005A00000720192019A02941A6B42F002021A63DD
:1005B0001B6B03F002030293029B4FF440730393FF
:1005C00002230493032306930923079303A90748EF
:1005D00000F0BEFE22460521142000F0A5FE1420E6
:1005E00000F0B2FED0E700BF00640040000402400B
:1005F00008B5012001F043FEFBE70000034B036058
:10060000034B0B6080231360704700BFB8070020C6
:10061000B405002010B596B01B4C0DF13C0CA6465D
:10062000BEE80F00ACE80F009EE807008CE807006A
:1006300000210FA801F0F0FD144B18600DF1200C03
:1006400004F11C0EBEE80F00ACE80F009EE80700A6
:100650008CE80700002108A801F0DEFD0C4B1860B3
:100660000DF1040E04F1380CBCE80F00AEE80F00E9
:100670009CE807008EE80700002101A801F0CCFDEE
:10068000044B186016B010BDF84A00085809002045
:10069000540900205009002084B000220192104B20
:1006A000196B41F002011963196B01F0020101910C
:1006B00001990292196B41F001011963196B01F064
:1006C00001010291029903921A6B42F080021A63AF
:1006D0001B6B03F080030393039B04B0704700BFC0
:1006E0000038024008B5FFF795FF01F090FD08BD06
:1006F00008B50368B3F1804F00D008BD00F0CEF913
:10070000FBE772B6FEE7000000B595B0302200218D
:1007100008A803F0FFFE00230393049305930693B8
:1007200007930193204A116C41F080511164126CBF
:1007300002F080520192019A02931C4B1A6842F413
:1007400080421A601B6803F480430293029B0123DA
:1007500008934FF48033099302230E934FF48002E1
:100760000F9206221092A82211921293042313933F
:1007700008A800F0E3FE98B90F2303930223049323
:10078000002305934FF4A05306934FF4805307932F
:10079000052103A801F022F920B915B05DF804FB8A
:1007A000FFF7AFFFFFF7ADFF0038024000700040D9
:1007B00008B500F059F9FFF7A7FFFFF76DFFFFF746
:1007C000B7FE00F0D5F808BD08B5FFF7F1FF034804
:1007D00002F02CFDFFF786FFFEE700BFD0470020A8
:1007E00000B583B0002200920D4B596C41F480415A
:1007F0005964596C01F48041009100990192196C7F
:1008000041F0805119641B6C03F080530193019BEC
:100810000F216FF0010000F087FD03B05DF804FBCD
:100820000038024030B589B0044600230193224BC2
:100830001A6C42F001021A641B6C03F0010301936D
:10084000019B02A903A801F09FF9069BD3B901F00F
:100850007BF90346194AA2FB03239B0C013B184872
:100860004FF08042026040F2E732C26043600023F2
:1008700003618360836101F007FB054630B12846C0
:1008800009B030BD01F060F94300E3E70C4801F026
:100890009BF905460028F2D11C2000F055FD0F2CD5
:1008A00001D90125EBE7002221461C2000F03CFD88
:1008B000044B1C60E3E700BF0038024083DE1B43AB
:1008C0005C09002008000020FEE7FEE7FEE7FEE7E7
:1008D000FEE7704708B5024800F0AAFB08BD00BF5C
:1008E0008C05002008B5024801F0B6F908BD00BF2C
:1008F0005C0900200120704708B503F0D7FE1623DD
:1009000003604FF0FF3008BD08B54FF0FF31FFF72F
:10091000F3FFFEE710B503460C4A0D490D48006889
:1009200040B10C4800680344521A934206D8094A61
:10093000136010BD0748084C0460F2E703F0B6FEF0
:100940000C2303604FF0FF30F3E700BF00000220EC
:1009500000040000A4090020B84B0020034AD2F88C
:10096000883043F47003C2F88830704700ED00E02F
:1009700008B50A480A4B03604FF4E1334360002393
:100980008360C36003610C2242618361C36101F033
:10099000A2FB00B908BDFFF7B4FEFBE7A8090020E1
:1009A0000010014000B589B0002303930493059320
:1009B00006930793026803F1804303F588339A4254
:1009C00002D009B05DF804FB0021019103F59433D6
:1009D0005A6C42F010025A645A6C02F010020192F2
:1009E000019A02911A6B42F002021A631B6B03F028
:1009F00002030293029BC023039302230493032365
:100A000006930723079303A9014800F0A1FCD8E748
:100A100000040240DFF834D0FFF7A0FF0C480D4976
:100A20000D4A002302E0D458C4500433C4188C4249
:100A3000F9D30A4A0A4C002301E013600432A242AF
:100A4000FBD303F039FEFFF7BFFE70470000022022
:100A50000000002070050020904C00087005002068
:100A6000B44B0020FEE7000008B50B4B1A6842F4B7
:100A700000721A601A6842F480621A601A6842F4BE
:100A800080721A60032000F03DFC0F20FFF7CAFEC1
:100A9000FFF7A6FE002008BD003C0240034A116893
:100AA000034B1B780B441360704700BFF009002014
:100AB00004000020014B1868704700BFF0090020B7
:100AC000002800F0A18038B5044690F82030D3B15A
:100AD0002268136843F001031360FFF7EBFF05463C
:100AE00023685A6812F0010F10D1FFF7E3FF401B93
:100AF0000A28F5D9636A43F400336362052384F856
:100B00002030012038BDFFF733FDE1E71A6822F0FD
:100B100002021A60FFF7CEFF054623685A6812F0FA
:100B2000020F0DD0FFF7C6FF401B0A28F5D9636AF4
:100B300043F400336362052384F820300120E1E7A9
:100B4000227E012A3DD01A6822F080021A60637E5C
:100B5000012B3BD02268136823F040031360A37E6F
:100B6000012B39D02268136823F020031360E37E41
:100B7000012B37D02268136843F010031360237FE2
:100B8000012B35D02268136823F008031360637FBC
:100B9000012B33D02268136823F004031360A36889
:100BA000E268134322691343626913436268013A9E
:100BB00021681343CB6100206062012384F8203058
:100BC000A0E71A6842F080021A60C0E72268136842
:100BD00043F040031360C2E72268136843F0200328
:100BE0001360C4E72268136823F010031360C6E79C
:100BF0002268136843F008031360C8E7226813688B
:100C000043F004031360CAE70120704790F82030D6
:100C1000013BDBB2012B05D9436A43F480234362D5
:100C20000120704730B5464BD3F8002242F0010254
:100C3000C3F80022D3F8002222F47C52C3F8002229
:100C4000D3F80022486A42EA0022C3F800224A6927
:100C500002F01F02012000FA02F2D3F81C026FEA30
:100C6000020C20EA0200C3F81C02CB69C3B9344B62
:100C7000D3F80C020CEA0000C3F80C028C88486917
:100C8000CD6844EA0544483043F830408C68088811
:100C900040EA04404C6904F1480E03EBCE0358606F
:100CA000CB69012B1ED08B69002B33D12448D0F89F
:100CB00004320CEA0303C0F804320B698BBB2048F2
:100CC000D0F814320CEA0303C0F814320B6A012B7B
:100CD0002ED01B4AD2F8003223F00103C2F80032B2
:100CE000002030BD164BD3F80C021043C3F80C02A1
:100CF0008C8848690D6844EA0544483043F8304020
:100D000088894C698D6840EA0540483403EBC40388
:100D10005860C8E70A48D0F804321343C0F80432D8
:100D2000CBE70748D0F814321343C0F81432CDE7AC
:100D30000349D1F81C321343C1F81C32C9E700BF84
:100D40000064004070B5044690F82050EDB2012DCB
:100D500006D0436A43F4002343620125284670BD50
:100D6000022380F820300268136823F00103136027
:100D7000FFF7A0FE064623685B6813F0010F0CD056
:100D8000FFF798FE831B0A2BF5D9636A43F40033FF
:100D90006362052384F82030E0E700256562DDE723
:100DA00030B590F820C00468A4680CF1FF3C5FFAED
:100DB0008CFCBCF1010F62D814F0E05F59D0C4F391
:100DC000016C012404FA0CF41C608B68002B3DD1EB
:100DD0000D68CB68046843EA45550CF118031B0104
:100DE000E55003680C690CF1180E03EB0E135C6000
:100DF0000B7D012B35D0D17993791B0443EA016334
:100E0000517943EA012314790168234301EB0C1162
:100E1000C1F88C31D17893781B0443EA016351788F
:100E200043EA0123117802680B4302EB0C12C2F86B
:100E3000883102680CF1180C4FEA0C1C52F80C3087
:100E400043F0010342F80C3000201DE04C6843EAF7
:100E5000C403CC6823430CF11804240105682B510A
:100E6000BFE7036803EB0E13596841F480715960C2
:100E7000C1E7436A43F400134362012004E0436A7C
:100E800043F480234362012030BD90F820C00CF170
:100E9000FF3C5FFA8CFCBCF1010F00F2A58030B47E
:100EA00051B90468E46814F0030F10D1436A43F4A5
:100EB0000013436201207EE00468246914F0030FEC
:100EC00005D1436A43F400134362012073E00568CF
:100ED00001F11B0424012C5904F004049460002C3B
:100EE0006BD1056801F11B0424012C59640D1460B9
:100EF000046801F11B0C4FEA0C1C54F80C4004F080
:100F00000204D4600468A444DCF8045015F0080F0F
:100F10005BD008241461046801F11B0C04EB0C1471
:100F20006468C4F307249461046804EB0C146468D7
:100F3000240C5461026802EB0112D2F8B8211A7035
:100F4000026802EB0112D2F8B821C2F307225A70EC
:100F5000026802EB0112D2F8B821C2F307429A707C
:100F6000026802EB0112D2F8B821120EDA700268A0
:100F700002EB0112D2F8BC211A71026802EB0112D5
:100F8000D2F8BC21C2F307225A71026802EB0112A7
:100F9000D2F8BC21C2F307429A71026802EB011237
:100FA000D2F8BC21120EDA71C1B90268D36843F0DD
:100FB0002003D360002030BC7047056801F11B049A
:100FC00024012C59E408546092E701F11B0504EB5D
:100FD0000514646804F00F0414619CE70268136947
:100FE00043F020031361E5E7436A43F4802343623F
:100FF0000120704790F82030013BDBB2012B05D96E
:10100000436A43F4802343620120704702685369B6
:101010000B4353610020704770477047704770471B
:101020007047704770477047704770477047704708
:101030002DE9F84F054603685C69D3F804809F6882
:10104000D3F80CA0D3F81090D3F818B014F0010620
:101050003BD017F0010616D001229A6017F0020F5C
:1010600008D117F0040F0CD117F0080606D04FF482
:10107000805608E0FFF7D0FF002604E0FFF7CFFF1F
:1010800001E04FF4006617F4807F0DD02B684FF419
:1010900080729A6017F4007F40F0968017F4806F9A
:1010A00000F0968046F4005617F4803F0DD02B6870
:1010B0004FF480329A6017F4003F40F0938017F4A9
:1010C000802F00F0938046F4004614F0080F07D0FC
:1010D0001AF0100F04D046F400762B681022DA6064
:1010E00014F0040F03D01AF0080F40F0898014F0B8
:1010F000020F05D02B68DB6813F0030F40F08780E8
:1011000014F0400F07D019F0100F04D046F4806699
:101110002B6810221A6114F0200F02D019F0080F6A
:1011200079D114F0100F04D02B681B6913F0030F52
:1011300078D114F4003F02D018F0100F76D114F4D7
:10114000803F02D018F0080F77D114F4004F37D049
:1011500018F0040F31D014F4807F04D01BF0010F7D
:1011600001D046F0010614F4007F04D01BF0020FFA
:1011700001D046F0020614F4806F04D01BF0040F77
:1011800001D046F0040614F4006F16D01BF0700B6B
:1011900013D0BBF1400F66D056D8BBF1200F5CD006
:1011A000BBF1300F5CD0BBF1100F01D146F0080647
:1011B0002A68936923F0700393612B6804225A60B4
:1011C000002E56D1BDE8F88F2846FFF726FF6BE7C3
:1011D00017F4006F02D046F4804665E72846FFF713
:1011E0001FFF61E72846FFF719FF6EE717F4002F8E
:1011F00002D046F4803668E72846FFF712FF64E71E
:101200002B680822DA602846FFF70CFF6FE72846B4
:1012100002F004F874E72B6808221A612846FFF7E9
:1012200003FF7EE72846FFF7FEFE82E72B681022C9
:101230005A602846FFF7F9FE81E72B6808225A60BA
:101240002846FFF7F3FE80E7BBF1500F0ED0BBF14D
:10125000600FADD146F48076AAE746F01006A7E706
:1012600046F02006A4E746F04006A1E746F08006D7
:101270009EE76B6A33436B622846FFF7D8FEA1E70F
:10128000002807DB00F01F02400901239340024AB7
:1012900042F82030704700BF00E100E0002808DB82
:1012A0000901C9B200F1604000F5614080F8001307
:1012B000704700F00F000901C9B2014B1954704783
:1012C00014ED00E000B500F00700C0F1070CBCF120
:1012D000040F28BF4FF0040C031D062B0FD9C31EAB
:1012E0004FF0FF3E0EFA0CF021EA000199400EFA91
:1012F00003FE22EA0E0241EA02005DF804FB00232D
:10130000EEE70000074AD36823F4E0631B041B0CDC
:10131000000200F4E060034343F0BF6343F4003392
:10132000D360704700ED00E010B50446054BD86867
:10133000C0F30220FFF7C6FF01462046FFF7AEFFCD
:1013400010BD00BF00ED00E008B5FFF799FF08BD34
:1013500000230F2B00F2E98070B582B065E085684C
:101360004FEA430E032404FA0EF425EA0405CC6880
:1013700004FA0EF42C438460446824EA02044A68A8
:10138000C2F300129A40224342605CE0DC08083459
:1013900050F8242003F00705AD004FF00F0E0EFAB1
:1013A00005FE22EA0E0E0A69AA4042EA0E0240F841
:1013B00024205CE0072200E0002202FA0EF22A4319
:1013C00002345A4D45F82420594A94686FEA0C02B9
:1013D00024EA0C054E6816F4801F01D04CEA04057F
:1013E000534CA560E46802EA04054E6816F4001F39
:1013F00001D04CEA04054E4CE560646802EA04053D
:101400004E6816F4003F01D04CEA0405484C656074
:10141000246822404D6815F4803F01D04CEA040254
:10142000434C226001330F2B7DD801229A400C6877
:1014300004EA020C32EA0404F4D14C6804F0030418
:10144000013C012C8BD94A6802F00302032A09D01F
:10145000C4685D000322AA4024EA02048A68AA4004
:101460002243C2604A6802F00302022A8ED0046856
:101470004FEA430E032202FA0EF224EA02044A68FB
:1014800002F0030202FA0EF2224302604A6812F4EA
:10149000403FC7D000220192264A546C44F4804455
:1014A0005464526C02F480420192019A9C08A51C7B
:1014B0001E4A52F8255003F0030E4FEA8E0E0F22FB
:1014C00002FA0EF225EA02051B4A90423FF474AF7D
:1014D00002F5806290421AD002F58062904218D0E4
:1014E00002F58062904216D002F58062904214D0DC
:1014F00002F58062904212D002F58062904210D0D4
:1015000002F5806290423FF455AF082255E7012270
:1015100053E7022251E703224FE704224DE7052259
:101520004BE7062249E702B070BD70470038014022
:10153000003C01400038024000000240002800F05A
:10154000E08170B582B00446036813F0010F3BD010
:101550009F4B9B6803F00C03042B2CD09C4B9B6887
:1015600003F00C03082B21D06368B3F5803F4FD004
:10157000B3F5A02F52D0964B1A6822F480321A602D
:101580001A6822F480221A606368002B50D0FFF79B
:1015900091FA05468E4B1B6813F4003F14D1FFF7F8
:1015A00089FA401B6428F5D90320B1E1884B5B68B8
:1015B00013F4800FD8D0864B1B6813F4003F03D080
:1015C0006368002B00F09F81236813F0020F54D052
:1015D0007F4B9B6813F00C0F3ED07D4B9B6803F054
:1015E0000C03082B33D0E368002B68D0794B012221
:1015F0001A60FFF75FFA0546754B1B6813F0020F80
:1016000054D1FFF757FA401B0228F5D903207FE198
:101610006F4A136843F480331360B5E76C4B1A6864
:1016200042F480221A601A6842F480321A60ABE7F2
:10163000FFF740FA0546664B1B6813F4003FC3D022
:10164000FFF738FA401B6428F5D9032060E1604BAE
:101650005B6813F4800FC6D15D4B1B6813F0020F5B
:1016600003D0E368012B40F05081594A136823F0FE
:10167000F803216943EAC1031360236813F0080FDC
:1016800042D063696BB3534B0122C3F8802EFFF73E
:1016900011FA05464E4B5B6F13F0020F34D1FFF782
:1016A00009FA401B0228F5D9032031E1484A1368A2
:1016B00023F0F803216943EAC1031360DDE7454BDA
:1016C00000221A60FFF7F6F90546414B1B6813F03C
:1016D000020FD2D0FFF7EEF9401B0228F5D9032004
:1016E00016E13C4B0022C3F8802EFFF7E3F90546D4
:1016F000374B5B6F13F0020F06D0FFF7DBF9401B8F
:101700000228F5D9032003E1236813F0040F77D0F2
:101710002F4B1B6C13F0805F33D1002301932C4BB4
:101720001A6C42F080521A641B6C03F080530193D0
:10173000019B0125284B1B6813F4807F23D0A368ED
:10174000012B34D0052B38D0214B1A6F22F0010227
:101750001A671A6F22F004021A67A368002B3DD0A3
:10176000FFF7A8F906461A4B1B6F13F0020F46D17C
:10177000FFF7A0F9801B41F288339842F3D9032088
:10178000C6E00025D6E7144A136843F4807313605B
:10179000FFF790F90646104B1B6813F4807FCED1FB
:1017A000FFF788F9801B0228F5D90320B0E0084A2A
:1017B000136F43F001031367CFE7054B1A6F42F035
:1017C00004021A671A6F42F001021A67C5E700BFE8
:1017D000003802400000474200700040FFF76AF9FD
:1017E0000646524B1B6F13F0020F08D0FFF762F949
:1017F000801B41F288339842F3D9032088E0EDB989
:10180000A369002B00F08380484A926802F00C0222
:10181000082A51D0022B17D0454B00221A66FFF739
:1018200049F90446414B1B6813F0007F42D0FFF793
:1018300041F9001B0228F5D9032069E03B4A136CEB
:1018400023F080531364DBE7394B00221A66FFF75D
:1018500031F90546354B1B6813F0007F06D0FFF7C2
:1018600029F9401B0228F5D9032051E0E369226AD7
:101870001343626A43EA8213A26A5208013A43EAB6
:101880000243E26A43EA0263284A5360284B01227A
:101890001A66FFF70FF90446244B1B6813F0007F0C
:1018A00006D1FFF707F9001B0228F5D903202FE026
:1018B00000202DE000202BE0012B2BD01B4B5B6880
:1018C00003F48001E269914226D103F03F02216ACC
:1018D0008A4223D1616A47F6C0721A40B2EB811F77
:1018E0001ED103F44031A26A5208013AB1EB024F13
:1018F00018D103F07063E26AB3EB026F14D10020D9
:1019000006E001207047012002E0012000E00020F5
:1019100002B070BD0120FBE70120F9E70120F7E7E5
:101920000120F5E70120F3E70120F1E7003802404C
:101930000000474208B5264B9B6803F00C03042BBC
:1019400041D0082B41D1224B5A6802F03F025B681C
:1019500013F4800F12D01E4B5968C1F388111D4833
:101960000023A1FB0001FEF713FC194B5B68C3F3D6
:10197000014301335B00B0FBF3F008BD144B586822
:10198000C0F388104FEA401CBCEB000C6EEB0E0E4F
:101990004FEA8E1343EA9C634FEA8C11B1EB0C01C2
:1019A00063EB0E03DB0043EA5173C90011EB000C3B
:1019B00043F10003990200234FEA8C2041EA9C5135
:1019C000FEF7E6FBD1E70348D7E70348D5E700BFBA
:1019D00000380240001BB7000024F400002800F08B
:1019E0009B8070B50D4604464F4B1B6803F0070300
:1019F0008B4208D2CBB24C4A1370136803F0070332
:101A00008B4240F08B80236813F0020F17D013F045
:101A1000040F04D0454A936843F4E053936023686D
:101A200013F0080F04D0414A936843F46043936075
:101A30003E4A936823F0F003A1680B439360236848
:101A400013F0010F32D06368012B21D09A1E012AB6
:101A500025D9364A126812F0020F61D033498A68DC
:101A600022F0030213438B60FFF724F806462F4B46
:101A70009B6803F00C036268B3EB820F16D0FFF78C
:101A800019F8801B41F288339842F0D9032042E0D4
:101A9000264A126812F4003FE0D101203BE0234ABD
:101AA000126812F0007FD9D1012034E01E4B1B6870
:101AB00003F00703AB4207D9EAB21B4B1A701B684D
:101AC00003F00703AB422DD1236813F0040F06D0B7
:101AD000164A936823F4E053E1680B43936023684C
:101AE00013F0080F07D0114A936823F4604321696B
:101AF00043EAC1039360FFF71DFF0C4B9B68C3F3E0
:101B000003130B4AD35CD8400A4B18600A4B186881
:101B1000FEF788FE002070BD012070470120FAE723
:101B20000120F8E70120F6E7003C024000380240BF
:101B3000884B00080000002008000020014B1868B6
:101B4000704700BF0000002008B5FFF7F7FF044B07
:101B50009B68C3F38223034AD35CD84008BD00BF0F
:101B600000380240804B000808B5FFF7E7FF044B40
:101B70009B68C3F34233034AD35CD84008BD00BF1F
:101B800000380240804B00080F2303600B4B9A681B
:101B900002F0030242609A6802F0F00282609A68E2
:101BA00002F4E052C2609B68DB0803F4E053036177
:101BB000034B1B6803F007030B60704700380240BB
:101BC000003C02407047000090F83D30DBB2012B32
:101BD00037D1022380F83D300268D36843F0010317
:101BE000D3600368194A934220D0B3F1804F1DD0CF
:101BF000A2F57C42934219D002F58062934215D03F
:101C000002F58062934211D002F5784293420DD0E2
:101C100002F57052934209D0A2F59432934205D056
:101C20001A6842F001021A60002070479A6802F0B8
:101C30000702062A07D01A6842F001021A60002043
:101C40007047012070470020704700BF000001402E
:101C5000704770477047704770B504460368DE6888
:101C60001D6915F0020F10D016F0020F0DD06FF0A5
:101C700002021A610123037703689B6913F0030FC3
:101C80005ED0FFF7E6FF0023237715F0040F12D094
:101C900016F0040F0FD023686FF004021A610223BC
:101CA000237723689B6913F4407F4FD02046FFF7CA
:101CB000D0FF0023237715F0080F12D016F0080F7D
:101CC0000FD023686FF008021A610423237723687A
:101CD000DB6913F0030F40D02046FFF7BAFF002363
:101CE000237715F0100F12D016F0100F0FD02368C5
:101CF0006FF010021A61082323772368DB6913F45D
:101D0000407F31D02046FFF7A4FF0023237715F052
:101D1000010F02D016F0010F2DD115F0800F02D067
:101D200016F0800F2FD115F0400F02D016F0400FA3
:101D300031D115F0200F02D016F0200F33D170BD35
:101D4000FFF786FF2046FFF785FF9CE72046FFF759
:101D50007FFF2046FFF77EFFABE72046FFF778FFC7
:101D60002046FFF777FFBAE72046FFF771FF2046CE
:101D7000FFF770FFC9E723686FF001021A61204680
:101D8000FEF7B6FCC9E723686FF080021A612046AF
:101D900000F0A7F8C7E723686FF040021A612046F9
:101DA000FFF759FFC5E723686FF020021A6120464C
:101DB00000F096F8C3E700000368324A904212D060
:101DC000B0F1804F0FD0A2F57C4290420BD002F5CB
:101DD0008062904207D002F58062904203D002F503
:101DE0007842904203D123F070034A681343254A96
:101DF00090422AD0B0F1804F27D0A2F57C42904289
:101E000023D002F5806290421FD002F5806290429A
:101E10001BD002F57842904217D002F570529042E2
:101E200013D002F5806290420FD002F5806290429A
:101E30000BD0A2F59832904207D002F58062904212
:101E400003D002F58062904203D123F44073CA6844
:101E5000134323F080034A6913438A68C2620A6805
:101E60008262084A904203D002F58062904201D11A
:101E70000A690263026842F00402026001224261C0
:101E8000036070470000014040B310B5044690F86D
:101E90003D30F3B1022384F83D30214651F8040B64
:101EA000FFF78AFF012384F8463084F83E3084F837
:101EB0003F3084F8403084F8413084F8423084F870
:101EC000433084F8443084F8453084F83D300020B5
:101ED00010BD80F83C30FFF775FEDBE7012070474E
:101EE00070477047026802F10C0353E8003F23F487
:101EF00090730C3242E800310029F3D1026802F1FC
:101F0000140353E8003F23F00103143242E8003188
:101F10000029F3D1036B012B05D0202380F8423038
:101F2000002303637047026802F10C0353E8003F8B
:101F300023F010030C3242E800310029F3D1ECE722
:101F400010B504460268136923F44053C1680B437B
:101F50001361836802691A4343691A43C3691A43C8
:101F60000168CB6823F4164323F00C031343CB60C2
:101F70000268536923F4407381690B43536103681A
:101F8000314A934206D002F58062934202D0FFF7B5
:101F9000DBFD01E0FFF7E8FDE369B3F5004F29D071
:101FA0000021031849411B1841F10001C90041EA11
:101FB0005371DB00181863684FEA83024FEA93738A
:101FC00041F10001FEF7E4F8204AA2FB0031490983
:101FD000642303FB11031B013233A2FB03235B09C0
:101FE00003F0F00202EB011203F00F032168134427
:101FF0008B6010BD0023021843EB0301121841F15E
:102000000001C90041EA5271D200101841F10001EB
:10201000626892185B41FEF7BBF80C4AA2FB0031E4
:102020004909642303FB1103DB003233A2FB0323C2
:102030005B095A0002F4F87202EB011203F0070385
:10204000216813448B60D4E7001001401F85EB51D9
:102050002DE9F04383B005460E4617469946DDF854
:1020600028802B681C6836EA04040CBF0124002475
:10207000BC4228D1B8F1FF3FF3D0FEF71BFDA0EB27
:102080000900404523D8B8F1000F22D02B68DA6848
:1020900012F0040FE5D0802EE3D0402EE1D01A6874
:1020A00012F0080FDDD0002401941A6801925B68D9
:1020B0000193019B2846FFF715FF08236B6485F801
:1020C0004040012000E0002003B0BDE8F083032081
:1020D000FAE70320F8E760B310B5044690F8413002
:1020E00013B3242384F841302268D36823F40053C7
:1020F000D3602046FFF724FF2268136923F490433E
:1021000013612268536923F02A0353612268D3685C
:1021100043F40053D36000206064202384F84130EE
:1021200084F84230606310BD80F84030FEF73AFC1E
:10213000D7E7012070472DE9F04182B01E4690F8A4
:102140004130DBB2202B56D104460D469046002983
:1021500055D00AB901204FE000234364212380F8C1
:102160004130FEF7A7FC0746A4F82480A4F8268097
:10217000A368B3F5805F02D04FF0000814E0236934
:102180002BB34FF000080FE0202384F841300320E8
:1021900032E038F8023B2268C3F308035360E28C54
:1021A00092B2013A92B2E284E38C9BB293B1009670
:1021B0003B46002280212046FFF74AFF0028E3D15A
:1021C000002DE6D015F8012B23685A60E7E7A846F2
:1021D0000025E9E700963B46002240212046FFF714
:1021E00037FF18B9202384F8413005E0202384F814
:1021F0004130032000E0022002B0BDE8F081012060
:10220000FAE7842801D0033070470020704708B5F2
:1022100000F064FD002008BD2DE9F04387B00E46B4
:102220004469C4B18569B5B14768D0F80080D0F879
:102230001090B0F90800FFF7E4FF029501940090B8
:1022400033464A464146384600F0D8FC059005988A
:1022500007B0BDE8F083446805680769B0F9080075
:10226000FFF7CFFF05AB019300903346BAB2294682
:10227000204600F000FD0128E9D00020E8E708B57D
:1022800000B9012000F0D4FE002008BD00F10803D1
:1022900043604FF0FF328260C3600361002303603C
:1022A000704700230361704743684B609A688A60F7
:1022B000516099600861036801330360704730B46E
:1022C0000D68B5F1FF3F11D000F108031C465B68B3
:1022D0001A68AA42FAD963684B6099608C606160A1
:1022E000086103680133036030BC70470469F2E79A
:1022F0000369416882688A60416851605A68824215
:1023000006D0002202611A68013A1A601868704704
:1023100082685A60F5E7000082B0002301930D4BFC
:102320001B68B3F1FF3F08D04FF0500383F31188CF
:10233000BFF36F8FBFF34F8FFEE74FF0500383F370
:102340001188BFF36F8FBFF34F8F019B002BFCD021
:1023500002B070470C00002008480068006880F355
:1023600008884FF0000080F3148862B661B6BFF3AE
:102370004F8FBFF36F8F00DF00BF000008ED00E05C
:10238000DFF80C00016841F4700101607047000043
:1023900088ED00E04FF0807340F8043C21F001012B
:1023A00040F8081C054B40F80C3C40F8202C6FF01E
:1023B000020340F8243C4438704700BF192300084A
:1023C000074B19680868B0E8F04F80F30988BFF33D
:1023D0006F8F4FF0000080F311887047AFF30080DB
:1023E000444700204FF0500383F31188BFF36F8FF1
:1023F000BFF34F8F0B4A136801331360012B00D0DA
:1024000070474FF0E023D3F8043D13F0FF0FF7D0EF
:102410004FF0500383F31188BFF36F8FBFF34F8FDB
:10242000FEE700BF0C000020094B1B6843B94FF0CA
:10243000500383F31188BFF36F8FBFF34F8FFEE715
:10244000013B034A13600BB983F31188704700BF47
:102450000C00002000000000000000000000000050
:10246000EFF30980BFF36F8F154B1A681EF0100F42
:1024700008BF20ED108A20E9F04F10602DE9090017
:102480004FF0500080F31188BFF34F8FBFF36F8F71
:1024900000F0F4FD4FF0000080F3118809BC1968CA
:1024A0000868B0E8F04F1EF0100F08BFB0EC108ABB
:1024B00080F30988BFF36F8F704700BFAFF30080D0
:1024C0004447002008B54FF0500383F31188BFF351
:1024D0006F8FBFF34F8F00F051FC28B14FF0E02316
:1024E0004FF08052C3F8042D002383F3118808BDF8
:1024F0004FF0E022002313619361054B1B680549EF
:10250000A1FB03139B09013B536107231361704730
:1025100000000020D34D62104FF0E023D3F8002DCF
:102520003D4B9A421CD04FF0E023D3F8002D3B4B9B
:102530009A421ED030B583B0394B1A78D2B201928C
:10254000FF221A701B78DBB28DF803309DF8033040
:1025500003F05003334A1370334B07221A601BE019
:102560004FF0500383F31188BFF36F8FBFF34F8F8A
:10257000FEE74FF0500383F31188BFF36F8FBFF373
:102580004F8FFEE7284A1368013B13609DF8033024
:102590005B00DBB28DF803309DF8033013F0800F41
:1025A000F0D1214B1B68032B08D04FF0500383F36D
:1025B0001188BFF36F8FBFF34F8FFEE71B021A4ADC
:1025C000136003F4E0631360019BDBB2144A1370E1
:1025D0004FF0E024D4F8203D43F47003C4F8203DCC
:1025E000D4F8203D43F07043C4F8203DFFF780FF4E
:1025F00000250E4B1D60FFF7C3FED4F8343F43F0B7
:102600004043C4F8343FFFF7A7FE00F037FDFFF763
:1026100083FE284603B030BD71C20F4170C20F4126
:1026200000E400E0F8090020F40900200C0000207C
:10263000124A12F0070F1ED0D11D21F00701C1F57B
:10264000705313440A460E4802600021416013444F
:10265000083B23F007030B48036059601960991A7F
:1026600051601360084B1960084B1960084B4FF01C
:1026700000421A6070474FF47053E4E71C0A0020D0
:10268000140A0020100A0020080A00200C0A00206A
:10269000FC090020164B1A461B688342FBD3516885
:1026A00002EB010C844509D0416800EB010C634545
:1026B00009D00360904219D010607047406801440F
:1026C00051601046F0E710B40A4C2468A3420BD0C6
:1026D0005B681944416013681B680360904200D036
:1026E00010605DF8044B70470460F7E7704700BF67
:1026F000140A0020100A002038B5044600F030FB10
:10270000384B1B68B3B1384B1B681C4250D1002CAE
:1027100050D004F1080214F0070F02D022F0070293
:102720000832002A55D0314B1B68934253D33049AD
:102730000C6804E0FFF77CFFE5E721461C46636870
:10274000934202D22368002BF7D1264B1B68A34289
:1027500043D00D68083523680B6063689B1A102B03
:1027600010D9A01810F0070F08D04FF0500383F3D2
:102770001188BFF36F8FBFF34F8FFEE74360626036
:10278000FFF788FF626819490B689B1A0B601949AB
:1027900009688B4201D217490B60134B1B68134326
:1027A000636000232360144A13680133136002E05E
:1027B000002500E0002500F06DFB15F0070F0ED09E
:1027C0004FF0500383F31188BFF36F8FBFF34F8F28
:1027D000FEE70025EFE70025EDE70025EBE72846BB
:1027E00038BD00BF100A0020FC0900200C0A0020A0
:1027F000140A0020080A0020040A0020002834D00F
:1028000038B50446A0F1080550F8043C174A126890
:10281000134208D14FF0500383F31188BFF36F8F39
:10282000BFF34F8FFEE750F8081C41B14FF0500343
:1028300083F31188BFF36F8FBFF34F8FFEE723EA57
:10284000020340F8043C00F08BFA54F8041C084AD8
:1028500013680B4413602846FFF71CFF054A1368F2
:102860000133136000F016FB38BD7047FC090020EF
:102870000C0A0020000A0020084B1B681B6823B9C3
:10288000074B4FF0FF321A607047044B1B68DB6840
:10289000DB685A68024B1A60704700BF8C46002004
:1028A000244600202DE9F04707469846089DDDF8AC
:1028B00024900A9C266B02F18042013A06EB8206C4
:1028C00026F00706002964D008464FF0000CBCF142
:1028D0000F0F09D810F80C2004EB0C0383F83420F8
:1028E00012B10CF1010CF2E7002384F84330062DFD
:1028F00000D90625E56265644FF0000AC4F848A0D7
:10290000201DFFF7CEFC04F11800FFF7CAFC24617C
:10291000C5F10705A5616462C4F890A184F894A18B
:102920004FF4A072514604F1500001F0F3FD1B4B2F
:10293000636503F16802A265D033E36501220023D9
:10294000C4E93A2343F20E33A4F8F0304AF6CD330B
:10295000A4F8F23041F23423A4F8F4304EF26D635F
:10296000A4F8F6304DF6EC63A4F8F8300523A4F88B
:10297000FA300B23A4F8FC30424639463046FFF7C4
:1029800009FD2060B9F1000F01D0C9F80040BDE891
:10299000F087002384F83430A9E700BFB048002056
:1029A00038B5002407E004EB840293000E48184475
:1029B000FFF76CFC0134062CF5D90C4D2846FFF7C7
:1029C00065FC0B4C2046FFF761FC0A48FFF75EFCF4
:1029D0000948FFF75BFC0948FFF758FC084B1D60EE
:1029E000084B1C6038BD00BFB8460020A44600203C
:1029F0009046002074460020604600204846002093
:102A00008C4600208846002010B50446FFF7EAFCFB
:102A1000214A136801331360204B1B685BB1204BC4
:102A20001B686BB91D4B1B68DA6AE36A9A4207D8C8
:102A30001A4B1C6004E0194B1C601368012B28D052
:102A4000184A136801331360E06A01238340164A71
:102A500011680B43136000EB8000211D134B03EB47
:102A60008000FFF721FCFFF7DFFC0D4B1B687BB1FB
:102A70000A4B1B68DA6AE36A9A4209D24FF0E023F4
:102A80004FF08052C3F8042DBFF34F8FBFF36F8F09
:102A900010BDFFF785FFD3E74446002044470020E0
:102AA00038460020284600203C460020B84600203A
:102AB00010B50446503001F0ABFD94F8953163B188
:102AC000012B11D0022B0ED04FF0500383F311884D
:102AD000BFF36F8FBFF34F8FFEE7206BFFF78EFEC4
:102AE0002046FFF78BFE10BD2046FFF787FEFAE772
:102AF0000F4B1B68D3B110B5FFF774FC0D4BDB68AF
:102B0000DC68201DFFF7F4FB0B4A1368013B1360E0
:102B1000074A1368013B1360FFF786FC2046FFF766
:102B2000C7FF034B1B68002BE6D110BD704700BFE9
:102B30005C460020604600204446002008B5FFF7B0
:102B4000D7FF074B1B68012BF9D94FF0E0234FF05B
:102B50008052C3F8042DBFF34F8FBFF36F8FEEE7A2
:102B6000B846002070B504460D461D4B1E681D4B2F
:102B700018680430FFF7BCFB48B91A4B1B68DB6AC6
:102B800001229A4018490B6823EA02030B60B4F152
:102B9000FF3F0DD03444134B1B685C60A64210D934
:102BA000124B18680F4B19680431FFF788FB70BD92
:102BB000002DEFD00B4B196804310D48FFF774FB63
:102BC000F5E70C4B1868074B19680431FFF777FBE2
:102BD000094B1B68A342EAD9074B1C60E7E700BF1B
:102BE00040460020444700203C4600208846002004
:102BF000484600208C4600202446002030B587B08F
:102C00000B9C8CB10C9DC5B14FF4CC750495049D03
:102C1000B5F5CC7F1AD04FF0500383F31188BFF382
:102C20006F8FBFF34F8FFEE74FF0500383F3118890
:102C3000BFF36F8FBFF34F8FFEE74FF0500383F367
:102C40001188BFF36F8FBFF34F8FFEE7049D0C9D7C
:102C50002C63022485F8954100240394029505AC69
:102C600001940A9C0094FFF71DFE0C98FFF7CCFE20
:102C7000059807B030BD2DE9F04385B0074688467A
:102C800014461E469000FFF737FD10B381464FF4FF
:102C9000CC70FFF731FD0546A8B1C0F83090002395
:102CA00080F89531039302900D9B01930C9B009348
:102CB0003346224641463846FFF7F4FD2846FFF7E3
:102CC000A3FE012007E04846FFF798FD4FF0FF30D4
:102CD00001E04FF0FF3005B0BDE8F08310B588B0DB
:102CE00000240594069407AA06A905A8FDF786FC0A
:102CF000059B0293069B019300942346079A104973
:102D00001048FFF77BFF104B1860B8B14FF050032D
:102D100083F31188BFF36F8FBFF34F8F0B4B1B688B
:102D200050330B4A13600B4B4FF0FF321A600A4BC3
:102D300001221A60094B1C60FFF7EEFB08B010BDC2
:102D4000704B00083D2B000820460020444700201F
:102D50001000002024460020384600204046002075
:102D6000024A136801331360704700BF1C460020FD
:102D7000014B1868704700BF40460020F8B53A4B39
:102D80001B68002B69D1394B1D6801351D60C5B921
:102D9000374B1B681B6843B14FF0500383F3118816
:102DA000BFF36F8FBFF34F8FFEE7314A1168314B8E
:102DB000186810601960304A136801331360FFF718
:102DC0005BFD2E4B1B68AB423DD900272C4B1B688B
:102DD000DB6A03EB83039A002A4B9B58012B00D933
:102DE0000127294B1B68002B3CD001273AE0012723
:102DF0001F4B1B681B6843B31D4B1B68DB68DC68FB
:102E000063689D4226D3261D3046FFF771FAA36AF8
:102E10001BB104F11800FFF76BFAE36A01229A4034
:102E20001A49086802430A6003EB83039A0031469B
:102E300014481044FFF738FAE26A114B1B68DB6A4A
:102E40009A42D4D2D4E70027D2E70C4B4FF0FF329E
:102E50001A60BBE7094A1360B8E70D4A13680133EB
:102E6000136000273846F8BD1C460020404600206D
:102E70008C460020884600202C4600202446002056
:102E800044470020B8460020304600203C46002041
:102E90003446002038B5354B1B6843B94FF050031A
:102EA00083F31188BFF36F8FBFF34F8FFEE7FFF7F8
:102EB00099FA2E4B1A68013A1A601B68002B4FD101
:102EC0002B4B1B680BB900244BE00024294B1B68DB
:102ED0001BB3284BDB68DC6804F11800FFF708FA25
:102EE000251D2846FFF704FAE06A01238340224AA1
:102EF00011680B43136000EB800029461F4B03EB66
:102F00008000FFF7D1F9E26A1D4B1B68DB6A9A4229
:102F1000DCD31C4B01221A60D8E70CB1FFF7ACFCE4
:102F2000194B1C6884B9174B1C68D4B14FF0E023CF
:102F30004FF08052C3F8042DBFF34F8FBFF36F8F54
:102F400001240EE0013C07D0FFF718FF0028F9D05C
:102F50000C4B01221A60F5E70B4B00221A60E2E7E6
:102F60000024FFF761FA204638BD00BF1C46002050
:102F700044460020744600203C460020B84600200D
:102F800044470020304600203446002038B558B170
:102F90000C46054689B94FF0500383F31188BFF3FF
:102FA0006F8FBFF34F8FFEE74FF0500383F311880D
:102FB000BFF36F8FBFF34F8FFEE71B4B1B6843B10F
:102FC0004FF0500383F31188BFF36F8FBFF34F8F20
:102FD000FEE7FFF7C5FE154B18682B681C448342BB
:102FE00009D9A34201D82C600EE0A04201D32C6085
:102FF0000AE02C6004E0A34201D8A04212D22C6067
:103000000021201AFFF7AEFDFFF744FF48B94FF04B
:10301000E0234FF08052C3F8042DBFF34F8FBFF36E
:103020006F8F38BD2C60EFE71C4600204046002023
:1030300010B5A8B10446104B1B6843B14FF05003C4
:1030400083F31188BFF36F8FBFF34F8FFEE7FFF756
:1030500087FE00212046FFF785FDFFF71BFF48B9DB
:103060004FF0E0234FF08052C3F8042DBFF34F8F91
:10307000BFF36F8F10BD00BF1C460020224B1B68A2
:103080001BB1224B01221A607047204B00221A60AC
:103090001F4B1B68B3FA83F3DBB2C3F11F0303EBCF
:1030A00083018A001B498A5842B94FF0500383F3C9
:1030B0001188BFF36F8FBFF34F8FFEE7154803EB07
:1030C00083018A00024451684968516003EB830C14
:1030D0004FEA8C020832024491420DD003EB830385
:1030E0009A000C4B13445B68DA680B4B1A601B6840
:1030F00050330A4A13607047486862469100054A97
:103100000A445060EAE700BF1C4600203046002019
:103110003C460020B8460020444700201000002014
:1031200010B58AB0002305930122089206930792F6
:10313000009301930293039304930993064C694609
:103140002046FDF763FD2046FDF7FCFD02212046E9
:10315000FDF750FF0AB010BD8C05002010B58AB0F5
:10316000BDF930E0BDF934C000200990082407946F
:1031700005900391069042FA04F18DF804108DF841
:10318000052043FA04F28DF806208DF807309DF9EA
:1031900031308DF808308DF809E09DF935308DF823
:1031A0000A308DF80BC009AB01AA03A90248FDF74C
:1031B000F7FD0AB010BD00BF8C05002000B589B036
:1031C000124B01AA00211248FDF75FFEBDF9043041
:1031D000104A138040F20622934202D009B05DF8F3
:1031E00004FB0A4B1A78597841EA02210A4A1180F5
:1031F0009878D97841EA002151801879597941EAC3
:10320000002191809B79D380E8E700BF54470020DC
:103210008C050020484700204C47002000B583B0B3
:1032200001A8FFF7CBFF03B05DF804FB10B52DED4F
:10323000028B0E48FFF774FF9FED0D8A0D4CB0EE28
:10324000481AF0EE480AB0EE480A0B49204600F052
:1032500045F8B0EE481AF0EE480AB0EE480A0749C1
:10326000204600F03BF8BDEC028B10BDCC4700209F
:10327000000000005C470020784800204048002003
:1032800000B583B0104B1A8800EE902AB3F90230D3
:1032900001EE103AB8EEC11AF8EE600A0B4A0C497A
:1032A0000C4800F0B4F8BDEEC00A00220192009272
:1032B00010EE103A1BB240F2FF110748FFF74EFF25
:1032C00003B05DF804FB00BF4C47002078480020A5
:1032D000404800205C470020CC47002081ED000AD8
:1032E000C1ED010A81ED021A4FF07E538B62024B51
:1032F000CB620B634B6370470060EA4681ED090ABD
:10330000C1ED080ACB680B6170EEC00AC1ED030A7B
:10331000D1ED0A7AF4EEE70AF1EE10FA08D5F1EEF3
:10332000677AF4EEE70AF1EE10FA01DD0023CB60D4
:10333000D1ED057A91ED037A77EE877AC1ED057AC2
:1033400091ED0B7AF4EEC77AF1EE10FA02DD81ED21
:10335000057A7047B1EE477AF4EEC77AF1EE10FACB
:1033600001D581ED057A7047D1ED007A91ED037AB0
:1033700067EE877AD1ED026A91ED046A37EE467AFC
:1033800026EE877A77EE877A91ED057AD1ED016A9C
:1033900027EE267A77EE877AC1ED067A91ED0C7AE0
:1033A000F4EEC77AF1EE10FA01DB81ED067AD1ED89
:1033B000067AB1EE477AF4EEC77AF1EE10FA01D848
:1033C00081ED067AD1ED066AD1ED077A76EEE76AED
:1033D00091ED0D7AF4EEC76AF1EE10FA03DD77EEA7
:1033E000876AC1ED066AD1ED066A76EEE76AB1EE4C
:1033F000476AF4EEC66AF1EE10FA03D577EEC77AA3
:10340000C1ED067A91ED060A81ED070A704770B5A5
:103410002DED028B05460C461646F0EE607AB0EEB6
:10342000418AF0EE400AB0EE670A1146FFF766FFE8
:1034300031462846FFF798FFD6ED060AB0EE480A57
:1034400021462846FFF75AFF21462846FFF78CFF02
:1034500094ED060ABDEC028B70BD000000B583B090
:10346000FFF786FC01909FED050A0548FFF708FF6E
:10347000022101A8FFF78AFDF5E700BF00007A44AA
:10348000D047002000B585B0FFF772FC03900A4BCF
:1034900093E803000190ADF80810090C8DF80A10AC
:1034A0004FF0FF33062201A90448FEF744FE142121
:1034B00003A8FFF76BFDEAE7784B0008A809002096
:1034C0002DE9F047089D0E4604460F46002B4AD1D1
:1034D00094468C45B2FA82F260D942B1C2F120031F
:1034E000974020FA03F30CFA02FC1F4394404FEA82
:1034F0001C4E1FFA8CF6B7FBFEF1230C0EFB117766
:1035000043EA074301FB06F098420AD91CEB030388
:1035100001F1FF3780F01581984240F212810239A3
:1035200063441B1AA4B2B3FBFEF00EFB103344EA53
:10353000034400FB06F6A6420AD91CEB040400F182
:10354000FF3380F00081A64240F2FD8064440238DF
:1035500040EA0140A41B00211DB1D4400023C5E96D
:103560000043BDE8F0878B4205D90DB1C5E90001E4
:1035700000210846F5E7B3FA83F1002946D1B342AA
:1035800002D3824200F2F580841A66EB0302012026
:103590001746002DE5D0C5E90047E2E7002A40F0D4
:1035A0009380A1EB0C034FEA1C471FFA8CFE01210C
:1035B000B3FBF7F607FB1630230C43EA00430EFB80
:1035C00006F0984208D91CEB030306F1FF3802D23B
:1035D000984200F2D08046461B1AA4B2B3FBF7F023
:1035E00007FB103344EA03440EFB00FEA64508D94E
:1035F0001CEB040400F1FF3302D2A64500F2B680B2
:103600001846A4EB0E0440EA0640A5E7C1F12007E6
:103610008B4022FA07FC4CEA030C06FA01FE20FA62
:1036200007F426FA07F344EA0E0400FA01F84FEA19
:103630001C404FEA1449B3FBF0FE1FFA8CF600FB66
:103640001E3349EA03430EFB06F9994502FA01F2DB
:103650000BD91CEB03030EF1FF3A80F085809945EE
:1036600040F28280AEF1020E6344A3EB0909A4B2DA
:10367000B9FBF0F300FB139944EA094403FB06F697
:10368000A64208D91CEB040403F1FF3068D2A6421D
:1036900066D9023B644443EA0E40A41BA0FB02E649
:1036A000B4427346B14652D34FD05DB1B8EB03027A
:1036B00064EB090404FA07F722FA01F31F43CC4034
:1036C000C5E9007400214CE7C2F1200120FA01F3A2
:1036D0000CFA02FC26FA01F1964033434FEA1C47EC
:1036E0001FFA8CFEB1FBF7F007FB1016190C41EA2C
:1036F000064100FB0EF68E4204FA02F408D91CEBD8
:10370000010100F1FF382DD28E422BD902386144DD
:10371000891B9BB2B1FBF7F607FB161143EA014385
:1037200006FB0EF1994208D91CEB030306F1FF38A2
:1037300014D2994212D9023E63445B1A46EA004110
:1037400036E73946EDE6184602E7F045ADD2BEEB66
:10375000020366EB0C060138B146A6E74646ECE7E5
:10376000034698E74046D3E7D6467EE764440238EE
:1037700047E708460DE7023E63442DE703685A0019
:103780004CBF43F0004323F000431844704700BF90
:103790002DE9F04759B301F1FF3805461646474673
:1037A0004FF0000A0AEB070101EBD171491005EB5C
:1037B000C1094846FFF7E2FF88454FEAC1040346C6
:1037C00010D004F10800B342284407D8FFF7D6FF11
:1037D0000138B04208D201F1010AE3E78A4506D078
:1037E0004F1EDFE7B042F9D84846BDE8F0874FF0FA
:1037F00000094846BDE8F087012809D0022805D015
:10380000044B00280CBF1846002070470248704740
:1038100002487047C93E0008D93E0008D13E000862
:1038200030B5224B83B004468D1E43B301A9284610
:10383000AFF30080F0B101992A46FFF7A9FF0146D6
:10384000C0B1FFF79BFF4B68A064012B2BD0002B6E
:1038500001F1040025DBFFF791FF002323650368D6
:10386000E064002B12DBFFF789FF03460020236191
:1038700003B030BD00230920236103B030BD0C4BE1
:103880000C49C91AC91018460191D5E7C3F3036062
:10389000FFF7B2FF031E0CBF09200020236103B015
:1038A00030BD0123DAE700230520E0E70000000037
:1038B000A44B0008844C00080368DA0710B50446DE
:1038C00006D49B0700F1500009D5FCF78DFC236856
:1038D000590709D51A070ED5DB0613D510BDFCF71D
:1038E0007BFC23685907F5D404F1D800FCF784FC6D
:1038F00023681A07F0D404F5AC70FCF785FC236844
:10390000DB06EBD404F5EC70BDE81040FCF7C0BC5E
:103910000346006800B11844704700BF704700BFFD
:1039200070B504460E46316C2046FFF779FF054618
:1039300088B9326C6261236932462146012098477A
:103940000828F0D0072806D12846316CFFF7E6FF9B
:10395000301DFCF735FC00F0D5FD00BF2DE9F04728
:1039600001F1040CC768D0F8188006469146BCE8FF
:103970000F00ADF5767D03AC0FC4BCE80F000FC49B
:10398000BCE80F000FC49CE80F0002AD4FF0000E22
:1039900084E80F00C5F800E021E02B6C73614FF460
:1039A000F47229467CA8FCF7E3FC33697CAA314613
:1039B000504698478A9BAB644946CDE900588246F9
:1039C000334601203246B847814630BB4FF4F4728B
:1039D0007CA92846FCF7CCFCBAF1080F1AD1296C57
:1039E0003046FFF71DFF09F1090904465FFA89FA1D
:1039F0000028D2D0AB6BAB643246CDE900583346D9
:103A00004AF010010120B84738B920460DF5767DFF
:103A1000BDE8F087BAF1070F05D0092420460DF55F
:103A2000767DBDE8F0874846296CFFF777FF03A84D
:103A3000FCF7C6FBF0B5CB6BFBB001F1040C0B64DB
:103A40000E460546BCE80F0001AC0FC4BCE80F00F1
:103A50000FC4BCE80F000FC49CE80F004FF0FF3705
:103A600084E80F00009706E02B696A4629469847CC
:103A70000828044608D110992846FFF7D1FE0028EF
:103A8000F2D009207BB0F0BD6846FFF715FF062C89
:103A9000F7D131462846FFF743FF00BFC160D96B1D
:103AA0008261196400221946FFF758BF70B5C668D5
:103AB00043690B64AEB903690A4604460D460146E4
:103AC00002209847072805D008280FD1294620460C
:103AD000FFF726FF3046296CFFF720FF281DFCF773
:103AE0006FFB0122FFF73AFF00F00CFD00F00AFD2A
:103AF000C26822B1CA6B0A640022FFF72FBFFFF72A
:103B000099BF00BF052915D8DFE801F00A031403A7
:103B1000030501207047009A436C13600020704732
:103B200043B90F2A06D800EB820200205368009A9E
:103B3000136070470220704700B585B00A46002325
:103B400003A900911946FFF7DDFF039805B05DF862
:103B500004FB00BF052915D8DFE801F00A031403B0
:103B6000030501207047009B1B68436400207047D9
:103B700043B90F2A06D8009B00EB82021B685360F2
:103B8000002070470220704710B584B0002303ACBA
:103B9000039200940A461946FFF7DCFF04B010BDFB
:103BA00070B5D36BADF5107D02F1040C13640546BE
:103BB0000C46BCE80F000DF15C0EAEE80F00BCE84F
:103BC0000F00AEE80F00BCE80F00AEE80F009CE865
:103BD0000F004FF0FF368EE80F00169610E0FFF74B
:103BE000D3FF214616A8A847034616AA082069460F
:103BF00083B9049B9847052806460CD0092809D0AC
:103C000026996846FFF70CFE03460C216A4616A863
:103C1000002BE4D0092616A8FFF74EFE30460DF51E
:103C2000107D70BD2DE9F04F1646CA6C89B00D4667
:103C300052F8041B069200F0030C002B79D00C0CF8
:103C40008DF81D400904E4B2059102EB84020221C3
:103C50008DF81C10296DBCF1020F08BFAA6B11F082
:103C6000010809D005A9304600F0CEFA002856D147
:103C7000082009B0BDE8F08F1768002FF2D000F0DF
:103C80000801CDE90118E3469A46BAF1020F4CD07B
:103C90001788548802F10409AA6C24F001030F214B
:103CA000304603EB0208FFF747FF80453BD827F07B
:103CB000010202EB0803834294BF00230123640046
:103CC00004F0020407F001072743012F4ED0022F12
:103CD00035D027BBBBF1000F02D0002B40F0D380C2
:103CE00009F104021768002FCFD105A93046DDF88D
:103CF000088000F089FA90B9B8F1000FB8D00F2110
:103D00003046FFF719FF0E2102463046FFF73CFF11
:103D10006C4A0F213046FFF737FF072000E00920EB
:103D200009B0BDE8F08F0023C9E7546802F1080923
:103D3000B2E7090205918DF81D30032188E7D9F813
:103D4000004024F00048BBF1000F47D12BB1019B8C
:103D5000002B5CD0B8F1000F59D0002C01DA09F12A
:103D6000040908F1010209EB8202BBE7BBF1000F75
:103D70001CD1C3B1D9F80430D9F80020991C4FEAFE
:103D8000D272CCD005F158040133049400F08E8037
:103D900009F10400FFF7BCFD04AB01462846AFF370
:103DA0000080002859D109F108029BE70D21304617
:103DB000FFF7C2FE2C6A8442F5D1AB6A9945F2D175
:103DC0004846FFF7DBFC0F2102463046FFF7DCFEDA
:103DD0002A4600213046FFF7D7FE9EE70D213046E8
:103DE000FFF7AAFE2F6A8742B7D1AB6A9945B4D1D3
:103DF00000240423C5E90B434B44C5F828806B63BA
:103E0000D9F80030A34258DB01230293A9E705F15A
:103E10005803CDF80CB009F10407B34600241E4640
:103E20000BE038460496FFF773FD0022014604AB11
:103E30002846AFF300800437F8B9444504F1010483
:103E4000EFD10D215846FFF777FE049BC5F8289067
:103E50000246C5E90823062062E704460D213046E4
:103E6000FFF76AFE049E2862022C04BFEE6205F191
:103E70002C06C5E90969062052E75E46D9F80040DC
:103E8000DDF80CB069E74846FFF778FC09F1040358
:103E90000446AB632846AFF3008000283FF43FAFF1
:103EA00022460F213046FFF76FFE36E730460D21E0
:103EB000FFF742FE26462862DBE708F1010209EB24
:103EC00082007EE7000000000023FFF7ABBE00BFCA
:103ED0000123FFF7A7BE00BF0223FFF7A3BE00BF69
:103EE0002DE9F0410646C4B01446052900F2D880F9
:103EF000DFE811F012002D00D6006C0091000600E2
:103F0000836B002C40F0CC8053F8042B4264836315
:103F1000002044B0BDE8F081002B40F0C180856BEB
:103F20001FFA84FC012006F1040E00FA03F111EAE5
:103F30000C0F2A4604D052F8041B4EF823101546E5
:103F40000133102BF1D1A704E2D4B563E0E7012BD4
:103F50004FEA1447A4B200F08380052B40F0A08004
:103F600007EB0408B8F1200F00F29A800F2F40F2FF
:103F70009980002CCCD00268500700F11881019381
:103F800002AD2846FCF73CF94FEA440CA7F11000BB
:103F9000B16B019B0CF1FF3C05EBC0000CF1010C77
:103FA000043801EB8C0251F8044B40F8044F914265
:103FB000F9D1012B00F0DE800F2FB16302D822A8C7
:103FC000FCF712F92846FCF717F9A1E7032B67D194
:103FD000A7B207EB1443102B4FEA144460D80368D0
:103FE000190700F1BF8022AD2846FCF72FF97A00AF
:103FF000B06B05EBC404531E42B1011B625844F878
:10400000042B013B5A1CF9D100EBC700B0632846D2
:10401000FCF7FAF87CE7002B42D1102C40D803685B
:10402000DD0600F1978022AD2846FCF73BF9B76B1F
:10403000294600234FF0010C0CFA03F222423846C5
:1040400003F1010303D050F8042B0A600746042B48
:1040500001F10401F0D1B7632846FCF719F957E7DD
:104060003A19102A1CD8102F1AD00268D00708D588
:10407000304622F0030240F8502B0193FCF7B0F8D1
:10408000019B019322AD2846FCF7AAF8B26B019B75
:10409000002C58D10432B2632846FCF79DF837E76C
:1040A000022036E7B8F1100F026865D9D40772D53F
:1040B00022F0010242F0020240F8502B0193FCF77B
:1040C00097F83268019B12F0040F66D122AD2846A2
:1040D0000193FCF78DF802A8FCF792F8C7F11001E4
:1040E0004900B26B019BA8F1100C4C1E05EBC700F8
:1040F0000134043802EB840152F8044B40F8044FB9
:104100008A42F9D1BCF1000F5AD0102F384638BF7F
:1041100010204FEA4C0C103802AD0CF1FF3C05EBBF
:10412000C0003BE7304622F0010242F0020240F8B4
:10413000502B22AD0193FCF75BF82846FCF758F8AA
:10414000B26B24B3019B6400013C05EBC7004FF048
:10415000000CCDE723F01003036000F5EC70FCF7D2
:10416000A1F860E723F00803036000F5AC70FCF7EA
:104170006DF838E722AD8DE7D107D3D422AD2846BC
:104180000193FCF735F8B26B019B002CDBD128467C
:10419000FCF72AF8BCE6540798D5304622F0040212
:1041A00040F8D82B0193FCF72BF8019B8EE73046A3
:1041B00022F0040240F8D82B0193FCF721F8DFE647
:1041C000012B3FF467AF0F2FB2633FF6A1AEDEE7DE
:1041D000027A03467AB9427AA2B14168013A10B430
:1041E0004272086803220C1D1A7202025C60000E03
:1041F00010BC1A6070470068013A1A7202021A6015
:10420000000E7047B02070472DE9F043064685B098
:104210000D464FF000082846FFF7DAFFB0280446A5
:1042200000F01C8107065BD500F0F003A02B1AD02C
:1042300030D8802B00F08280902B27D100F00D0326
:104240000D2B23D002AF002300F00F021946009778
:104250003046FFF757FC002300970D2219463046E1
:10426000FFF778FCD7E7C34303F007034FF47F62FF
:104270001A41010702F47F6201D542F48042002313
:1042800019463046FFF72CFE0028C4D0092005B09F
:10429000BDE8F083B02B68D0C02B3DD1C62800F01C
:1042A000CA80C72800F0DF8000F0F803C02B00F0C0
:1042B000EC80C82800F0F780C928E7D12846FFF72E
:1042C00087FF020300F00F0002F470220130024366
:1042D000012105233046FFF703FE00289BD0D5E7D8
:1042E0008300DBB21F1D0DF1080900231946CDF82C
:1042F00000900D223046FFF705FC029BCDF80090A0
:1043000060064CBFDF1BFF1800230D221946304604
:104310000297FFF71FFC7EE700F0F803D02BB5D122
:1043200000F007020132052342F400220121304649
:10433000FFF7D6FD00283FF46EAFA7E72846FFF74A
:1043400047FF24022043B0F5004F9FD00401002313
:10435000A2B219463046FFF7C3FD002896D114F4E7
:10436000004F18BF4FF0010855E7A0F1B103042B2F
:1043700000F2B580DFE803F05529160C030003AA0C
:104380000023009219460D223046FFF7BBFB42E79F
:1043900000231A4605213046FFF7A2FD00283FF40E
:1043A0003AAF73E72846FFF713FF020300F00F0050
:1043B000013002F470220123024319463046FFF710
:1043C0008FFD00283FF427AF60E700230DF10809B7
:1043D0000D221946CDF800903046FFF793FB284692
:1043E000FFF7F6FE0206029C4FF002070BD500F025
:1043F0007F00B840044428460294FFF7E9FE030614
:1044000007F10707F3D4B840002304F5017404440E
:10441000CDF800900D22194630460294FFF79AFB22
:10442000F9E62846FFF7D4FE431EDBB20E2B024608
:104430007FF625AF2AE72846FFF7CAFE020300F001
:104440000F00013002F47022032302431946304664
:10445000FFF746FD00283FF4DEAE17E7B8F1000F86
:104460002DD0002013E72846FFF7B2FE431EDBB233
:104470000E2B02463FF60AAF002304213046FFF719
:104480002FFD00283FF4C7AE00E700F00F02013215
:10449000032342F4202219463046FFF721FD00286D
:1044A0003FF4B9AEF2E62846FFF792FE00F0F002C4
:1044B00000F00F031032013343EA023208E702AC86
:1044C0004346414600940E223046FFF71BFB0F2265
:1044D0000094434641463046FFF73CFBC1E700F0FD
:1044E000FC03B42B3FF4D2AE00F0070201320123EB
:1044F00042F4002219463046FFF7F2FC00283FF450
:104500008AAEC3E608B5062000F056F80120FCF795
:10451000FBF900BF830730B547D0541E002A3ED0B8
:10452000CAB2034601E0013C39D303F8012B9D07D1
:10453000F9D1032C2CD9CDB205EB05250F2C05EBB9
:10454000054535D9A4F1100222F00F0C03F1100E2D
:10455000E6444FEA121C1A46C2E90055C2E9025568
:1045600010327245F8D10CF1010214F00C0F03EB7C
:10457000021204F00F0C13D0ACF1040323F0030378
:104580000433134442F8045B9342FBD10CF0030460
:104590002CB1C9B21C4403F8011BA342FBD130BDAE
:1045A00064461346002CF4D1F9E703461446C0E7ED
:1045B0001A46A446E0E700BF38B5144B1F281D6813
:1045C0001ED8D5F83821044662B152F820304BB1DC
:1045D000012B05D0591C0FD0002142F8201098471C
:1045E000002038BD284600F05FF8224601462846E4
:1045F000BDE8384000F042B816232B60012038BDDA
:1046000016232B604FF0FF3038BD00BF1000002094
:10461000194B1B6883422ED0416C70B5054681B1A1
:1046200000268C593CB121462468284600F0DCF86D
:10463000002CF8D1696C0436802EF2D1284600F0A7
:10464000D3F8A96B11B1284600F0CEF82C6C34B128
:1046500021462468284600F0C7F8002CF8D1E96C00
:1046600011B1284600F0C0F86B6B1BB12846BDE8BD
:104670007040184770BD70471000002070B50C46A0
:10468000084D03460026204611461C462E60FCF7C6
:1046900033F9431C00D070BD2B68002BFBD0236086
:1046A00070BD00BFE8490020FCF724B9014B186831
:1046B000704700BF1000002070B50F4B0F4DAB428C
:1046C000A3EB050607D0B610002455F8043B0134CF
:1046D0009847A642F9D800F003FA094D094B5E1B32
:1046E000AB424FEAA60606D0002455F8043B01343D
:1046F0009847A642F9D870BD844C0008844C000845
:10470000844C00088C4C0008704700BF704700BF05
:10471000024B13B1024800F005B8704700000000DA
:104720001D4A0008002301461A46184600F098B9B1
:104730002DE9F84306460820894600F083F9DFF8A2
:10474000A4800546304600F04BF9D8F808305F6881
:1047500027F00307A7F11104A4EB09042C44B4FBD0
:10476000F5F4013C05FB04F4A54208DC00213046C9
:1047700000F042F9D8F808303B44984205D0304662
:1047800000F034F90020BDE8F8836142304600F0C3
:1047900033F901300FD0114AD8F808303F1B47F0E9
:1047A00001075F60136830461B1B136000F01EF9A1
:1047B0000120BDE8F8830021304600F01DF9D8F84B
:1047C0000820831A0F2BDADD43F001035360044BFA
:1047D00002491B68C01A0860D1E700BFF8490020F1
:1047E0005C0100206801002000297CD02DE9F04107
:1047F0000C46804600F0F4F854F8043C754FA4F1E0
:10480000080523F001016818BE684268864222F05C
:10481000030200F08380DE07426000EB020C33D419
:1048200054F8084CDCF804302D1B2144AC6807F127
:10483000080C644503F0010364D0D5F80CE0C4F81B
:104840000CE0CEF80840002B00F0818041F001031D
:104850006B600160B1F5007F22D27868CB0801223D
:10486000490901338A40024357F833107A6007EB55
:10487000C302083AC5E9021247F83350CD604046FA
:10488000BDE8F04100F0B2B8DCF80430DB072BD50E
:1048900041F00103B1F5007F44F8043C0160DCD332
:1048A000B1F5206F4FEA512353D28B0903F1390040
:1048B00003F13802C300F818FB580838984203D1B6
:1048C00061E09B68984204D05A6822F003028A4251
:1048D000F7D8D868C5E902308560DD604046BDE89C
:1048E000F04100F083B87047114407F1080C836869
:1048F00063453FD0C268DA60936041F001036B60AA
:104900006950A7E7002B5FD10A44D0E90213CB60BE
:10491000996042F001036B60AA50B0E7DB070A44DC
:1049200007D454F8083CED1A1A44D5E90213CB60B9
:10493000996042F001036B60274BBD601B68934296
:104940009DD8264B40461968FFF7F2FE97E71144C1
:10495000CDE7142B08D9542B1DD80B0B03F16F0096
:1049600003F16E02C300A6E703F15C0003F15B02F2
:10497000C300A0E741F00103C7E90455C5E902CC33
:104980006B6069507BE779689210012404FA02F2A7
:104990000A437A609EE7B3F5AA7F06D8CB0B03F1F2
:1049A000780003F17702C30085E740F25452934246
:1049B00006D88B0C03F17D0003F17C02C3007AE77B
:1049C0004FF47E737E2276E741F001036B60016055
:1049D00055E700BF6801002060010020204A002048
:1049E0000148FFF791BE00BFEC4900200148FFF7E6
:1049F0008DBE00BFEC49002038B5074D00220446AB
:104A000008462A60FBF786FF431C00D038BD2B68A0
:104A1000002BFBD0236038BDE849002038B5074D96
:104A2000074C2C1BA41005D0013C55F8043D9847B9
:104A3000002CF9D1BDE8384000F058B8904C00087F
:104A40008C4C0008082802D14FF48050704708B5FC
:104A5000FFF72CFE162303604FF0FF3008BD00BFA8
:104A60002DE9F8431B4D0646286898460F469146A7
:104A7000FFF74AFE184B1C681CB3286865681F2D99
:104A800022DC4EB96B1C0235636044F82570FFF7D9
:104A90003DFE0020BDE8F88304EB85010123C1F849
:104AA0008890D4F88821AB401A43022EC4F888219C
:104AB000C1F80881E6D1D4F88C211A43C4F88C21BE
:104AC000E0E7064C1C60D8E7FFF720FE4FF0FF3010
:104AD000E0E700BF58010020F4490020244A0020EC
:104AE000F8B500BFF8BC08BC9E467047F8B500BFDB
:084AF000F8BC08BC9E467047AB
:104AF800644B0008F10500080000000000000000F9
:104B0800800000000000000000000000584B000872
:104B18005D340008FDFF00000000000000040000F4
:104B280000000000000000004C4B0008853400081D
:104B3800FDFF000000000000000100000000000070
:104B4800000000007072696E745F7461736B00001E
:104B580067696D62616C5F7461736B00646566613F
:104B6800756C745461736B0049444C450000000037
:104B7800524D3230323700000000000001020304B9
:104B880000000000000000000102030406070809F5
:0C4B980008B10181B0B0008400000000F2
:104BA400CCB7FF7F010000001CBCFF7FE8FFFF7F44
:104BB4002CBCFF7F0100000064E5FF7FB0A80980E2
:104BC400F8E5FF7F0084088050E6FF7F00840280C0
:104BD40058E6FF7FA880C980A4E6FF7F0084028096
:104BE400F8E6FF7F0100000070E8FF7F0084028088
:104BF40090E8FF7F00840480C4E8FF7F0100000088
:104C04001CECFF7FB0A90280ACECFF7FB0B0A880A1
:104C1400FCECFF7F0100000004EDFF7FB0B0AA8030
:104C240038EDFF7FAE75B28008EEFF7FAB3F3A8070
:104C340068EEFF7F0100000070EEFF7FB0B0AA8035
:104C4400ACEEFF7F0100000054EFFF7FAA0FB2809B
:104C5400D0EFFF7FB0AF08806CF2FF7F010000004F
:104C64007CF2FF7FAC3F038064F5FF7F010000000E
:104C740094F5FF7FB0AD048088F8FF7F0100000049
:084C8400114700080D050008AE
:044C8C00E504000833
:104C90000024F4000100000010000000AAAAAAAA43
:104CA000180000200000000000000000B0480020B4
:104CB000184900208049002000000000000000008A
:104CC00000000000000000000000000000000000E4
:104CD00000000000000000000000000000000000D4
:104CE00000000000000000000000000000000000C4
:104CF00000000000000000000000000000000000B4
:104D000000000000000000000000000000000000A3
:104D10000000000000000000000000000000000093
:104D20000000000000000000000000000000000083
:104D30000000000000000000000000000000000073
:104D400001000000000000000E33CDAB34126DE610
:104D5000ECDE05000B000000000000000000000079
:104D60000000000000000000000000000000000043
:104D70000000000000000000000000000000000033
:104D80000000000000000000000000000000000023
:104D90000000000000000000000000000000000013
:104DA0000000000000000000000000000000000003
:104DB00000000000000000000000000000000000F3
:104DC00000000000000000000000000000000000E3
:104DD00000000000000000000000000000000000D3
:104DE0000000000000000000F0490020FFFFFFFF6E
:104DF00000000200000000000000000000000000B1
:104E0000680100206801002070010020700100206E
:104E1000780100207801002080010020800100201E
:104E200088010020880100209001002090010020CE
:104E30009801002098010020A0010020A00100207E
:104E4000A8010020A8010020B0010020B00100202E
:104E5000B8010020B8010020C0010020C0010020DE
:104E6000C8010020C8010020D0010020D00100208E
:104E7000D8010020D8010020E0010020E00100203E
:104E8000E8010020E8010020F0010020F0010020EE
:104E9000F8010020F801002000020020000200209C
:104EA000080200200802002010020020100200204A
:104EB00018020020180200202002002020020020FA
:104EC00028020020280200203002002030020020AA
:104ED000380200203802002040020020400200205A
:104EE000480200204802002050020020500200200A
:104EF00058020020580200206002002060020020BA
:104F00006802002068020020700200207002002069
:104F10007802002078020020800200208002002019
:104F200088020020880200209002002090020020C9
:104F30009802002098020020A0020020A002002079
:104F4000A8020020A8020020B0020020B002002029
:104F5000B8020020B8020020C0020020C0020020D9
:104F6000C8020020C8020020D0020020D002002089
:104F7000D8020020D8020020E0020020E002002039
:104F8000E8020020E8020020F0020020F0020020E9
:104F9000F8020020F8020020000300200003002097
:104FA0000803002008030020100300201003002045
:104FB00018030020180300202003002020030020F5
:104FC00028030020280300203003002030030020A5
:104FD0003803002038030020400300204003002055
:104FE0004803002048030020500300205003002005
:104FF00058030020580300206003002060030020B5
:105000006803002068030020700300207003002064
:105010007803002078030020800300208003002014
:1050200088030020880300209003002090030020C4
:105030009803002098030020A0030020A003002074
:10504000A8030020A8030020B0030020B003002024
:10505000B8030020B8030020C0030020C0030020D4
:10506000C8030020C8030020D0030020D003002084
:10507000D8030020D8030020E0030020E003002034
:10508000E8030020E8030020F0030020F0030020E4
:10509000F8030020F8030020000400200004002092
:1050A0000804002008040020100400201004002040
:1050B00018040020180400202004002020040020F0
:1050C00028040020280400203004002030040020A0
:1050D0003804002038040020400400204004002050
:1050E0004804002048040020500400205004002000
:1050F00058040020580400206004002060040020B0
:10510000680400206804002070040020700400205F
:10511000780400207804002080040020800400200F
:1051200088040020880400209004002090040020BF
:105130009804002098040020A0040020A00400206F
:10514000A8040020A8040020B0040020B00400201F
:10515000B8040020B8040020C0040020C0040020CF
:10516000C8040020C8040020D0040020D00400207F
:10517000D8040020D8040020E0040020E00400202F
:10518000E8040020E8040020F0040020F0040020DF
:10519000F8040020F804002000050020000500208D
:1051A000080500200805002010050020100500203B
:1051B00018050020180500202005002020050020EB
:1051C000280500202805002030050020300500209B
:1051D000380500203805002040050020400500204B
:1051E00048050020480500205005002050050020FB
:1051F00058050020580500206005002060050020AB
:0400000508000A15D0
:00000001FF
