:020000040800F2
:10000000000002206D0800080D0800080F08000815
:100010001108000813080008150800080000000077
:10002000000000000000000000000000711D00083A
:100030001708000800000000A11D0008051E0008A8
:10004000BD080008BD080008BD080008BD0800087C
:10005000BD080008BD080008BD080008BD0800086C
:10006000BD080008BD080008BD080008BD0800085C
:10007000BD080008BD080008BD080008BD0800084C
:10008000BD080008BD080008BD080008BD0800083C
:1000900019080008BD080008BD080008BD080008D0
:1000A000BD080008BD080008BD080008BD0800081C
:1000B00029080008BD080008BD080008BD080008A0
:1000C000BD080008BD080008BD080008BD080008FC
:1000D000BD080008BD080008BD080008BD080008EC
:1000E000BD080008BD080008BD080008BD080008DC
:1000F000BD080008BD080008BD080008BD080008CC
:10010000BD080008BD080008BD080008BD080008BB
:10011000BD080008BD080008BD080008BD080008AB
:10012000BD080008BD080008BD080008BD0800089B
:10013000BD080008BD080008BD080008BD0800088B
:10014000BD080008BD080008BD080008BD0800087B
:10015000BD080008BD080008BD080008BD0800086B
:10016000BD080008BD080008BD080008BD0800085B
:10017000BD080008BD080008BD0800080000000018
:08018000BD080008BD080008DD
:1001900053B94AB9002908BF00281CBF4FF0FF31EE
:1001A0004FF0FF3000F0E2B8ADF1080C6DE904CE7D
:1001B00002F0D0F8DDF804E0DDE9022304B0704776
:1001C00000F1340191E838009C46A6464CF8045DE5
:1001D00090E8FF0FE54600BD90EC210B704700BF93
:1001E00080EC210B704700BF90EC200B704700BFE4
:1001F00080EC200B704700BFD0EC200B704700BF95
:10020000C0EC200B704700BFF0EC0201F0EC0211D3
:10021000F0EC0221F0EC0231F0EC0241F0EC025182
:10022000F0EC0261F0EC0271F0EC0281F0EC029172
:10023000F0EC02A1F0EC02B1F0EC02C1F0EC02D162
:10024000F0EC02E1F0EC02F1704700BFE0EC0201DB
:10025000E0EC0211E0EC0221E0EC0231E0EC0241C2
:10026000E0EC0251E0EC0261E0EC0271E0EC0281B2
:10027000E0EC0291E0EC02A1E0EC02B1E0EC02C1A2
:10028000E0EC02D1E0EC02E1E0EC02F1704700BFEB
:10029000B0FC0181B0FC0191B0FC01A1B0FC01B146
:1002A000704700BFA0FC0181A0FC0191A0FC01A14E
:1002B000A0FC01B1704700BFEC4600B52DE900502D
:1002C0002DE9FF1F4FF000032DE90C0001A902F0FA
:1002D000FBFADDF840E012B0704700BFEC4600B515
:1002E0002DE900502DE9FF1F4FF000032DE90C0010
:1002F00001A902F025FBDDF840E012B0704700BF15
:10030000EC4600B52DE900502DE9FF1F4FF000032A
:100310002DE90C0001A902F035FBDDF840E012B038
:10032000704700BFEC4600B52DE900502DE9FF1FD6
:100330004FF000032DE90C0001AB02F0F9FADDF8F3
:1003400040E012B0704700BFEC4600B52DE9005008
:100350002DE9FF1F4FF000032DE90C0001AA02F068
:1003600069FBDDF840E012B0704700BF704700BF86
:10037000844641EA000313F003036DD1403A41D3B0
:1003800051F8043B40F8043B51F8043B40F8043B6F
:1003900051F8043B40F8043B51F8043B40F8043B5F
:1003A00051F8043B40F8043B51F8043B40F8043B4F
:1003B00051F8043B40F8043B51F8043B40F8043B3F
:1003C00051F8043B40F8043B51F8043B40F8043B2F
:1003D00051F8043B40F8043B51F8043B40F8043B1F
:1003E00051F8043B40F8043B51F8043B40F8043B0F
:1003F00051F8043B40F8043B51F8043B40F8043BFF
:10040000403ABDD2303211D351F8043B40F8043B9E
:1004100051F8043B40F8043B51F8043B40F8043BDE
:1004200051F8043B40F8043B103AEDD20C3205D3AE
:1004300051F8043B40F8043B043AF9D2043208D0A6
:10044000D2071CBF11F8013B00F8013B01D30B8818
:1004500003806046704700BF082A13D38B078DD0F6
:1004600010F003038AD0C3F10403D21ADB071CBFC8
:1004700011F8013B00F8013B80D331F8023B20F832
:10048000023B7BE7043AD9D3013A11F8013B00F86B
:10049000013BF9D20B7803704B7843708B788370F3
:1004A000604670470348044B834202D0034B03B1BC
:1004B000184770475401002054010020000000003C
:1004C0000548064B1B1AD90F01EBA301491002D0B6
:1004D000034B03B11847704754010020540100201A
:1004E0000000000010B5064C237843B9FFF7DAFF8F
:1004F000044B13B10448AFF300800123237010BDF7
:1005000054010020000000000036000808B5054B2B
:100510001BB105490548AFF30080BDE80840FFF76F
:10052000CFBF00BF000000005801002000360008C7
:1005300008B50D480D4B036003234360002383601F
:10054000C3604FF4002202614FF44012426103760F
:1005500043768376C3760377437700F0E5F900B9F5
:1005600008BD00F06BF8FBE770010020006400405C
:1005700010B588B000230393049305930693079363
:100580000268194B9A4201D008B010BD00240194B2
:1005900003F5EA331A6C42F000721A641A6C02F026
:1005A00000720192019A02941A6B42F002021A63DD
:1005B0001B6B03F002030293029B4FF440730393FF
:1005C00002230493032306930923079303A90748EF
:1005D00000F0F2FD22460521142000F0D9FD142080
:1005E00000F0E6FDD0E700BF0064004000040240D8
:1005F00084B000220192104B196B41F00201196383
:10060000196B01F00201019101990292196B41F0FD
:1006100001011963196B01F0010102910299039222
:100620001A6B42F080021A631B6B03F08003039382
:10063000039B04B0704700BF0038024072B6FEE76B
:1006400000B595B03022002108A802F0ADFE0023CD
:10065000039304930593069307930193204A116C27
:1006600041F080511164126C02F080520192019AA3
:1006700002931C4B1A6842F480421A601B6803F410
:1006800080430293029B012308934FF48033099324
:1006900002230E934FF480020F9206221092A8229A
:1006A000119212930423139308A800F07BFE98B9CB
:1006B0000F23039302230493002305934FF4A053C5
:1006C00006934FF480530793052103A801F0BAF86D
:1006D00020B915B05DF804FBFFF7B0FFFFF7AEFFE0
:1006E000003802400070004008B500F0E9F80A4800
:1006F00001F018FDFFF7A4FFFFF77AFFFFF718FFDF
:10070000064801F0D7FC9FED060A034801F034FDCE
:10071000052000F0F5F8F3E7200300201C0300207B
:1007200000007A4400B583B0002200920D4B596C52
:1007300041F480415964596C01F480410091009961
:100740000192196C41F0805119641B6C03F08053C5
:100750000193019B0F216FF0010000F019FD03B020
:100760005DF804FB0038024030B589B00446002330
:100770000193224B1A6C42F001021A641B6C03F0C5
:1007800001030193019B02A903A801F021F9069B33
:10079000D3B901F00DF90346194AA2FB03239B0CC0
:1007A000013B18484FF08042026040F2E732C260DD
:1007B0004360002303618360836101F089FA054689
:1007C00030B1284609B030BD01F0F2F84300E3E74C
:1007D0000C4801F01DF905460028F2D11C2000F05C
:1007E000E7FC0F2C01D90125EBE7002221461C2054
:1007F00000F0CEFC044B1C60E3E700BF0038024071
:1008000083DE1B439801002008000020FEE7FEE77E
:10081000FEE7FEE7FEE7704708B5024800F03CFB44
:1008200008BD00BF7001002008B5024801F039F989
:1008300008BD00BF980100200120704708B502F0F4
:1008400049FE162303604FF0FF3008BD08B54FF096
:10085000FF31FFF7F3FFFEE7034AD2F8883043F495
:100860007003C2F88830704700ED00E0DFF834D044
:10087000FFF7F2FF0C480D490D4A002302E0D4585F
:10088000C4500433C4188C42F9D30A4A0A4C0023DA
:1008900001E013600432A242FBD302F021FEFFF715
:1008A00023FF7047000002200000002054010020B8
:1008B0001837000854010020D4060020FEE700008D
:1008C00008B50B4B1A6842F400721A601A6842F4B9
:1008D00080621A601A6842F480721A60032000F085
:1008E00045FC0F20FFF740FFFFF71CFF002008BD6D
:1008F000003C0240014B1868704700BFE001002037
:1009000038B50446FFF7F6FF0546B4F1FF3F02D0C5
:10091000044B1B781C44FFF7EDFF401BA042FAD3A9
:1009200038BD00BF04000020002800F0A18038B5C9
:10093000044690F82030D3B12268136843F00103D5
:100940001360FFF7D7FF054623685A6812F0010FBE
:1009500010D1FFF7CFFF401B0A28F5D9636A43F493
:1009600000336362052384F82030012038BDFFF78F
:10097000FFFDE1E71A6822F002021A60FFF7BAFFF2
:10098000054623685A6812F0020F0DD0FFF7B2FF38
:10099000401B0A28F5D9636A43F4003363620523D8
:1009A00084F820300120E1E7227E012A3DD01A6838
:1009B00022F080021A60637E012B3BD0226813680C
:1009C00023F040031360A37E012B39D02268136803
:1009D00023F020031360E37E012B37D022681368D5
:1009E00043F010031360237F012B35D02268136876
:1009F00023F008031360637F012B33D02268136850
:100A000023F004031360A368E268134322691343CD
:100A1000626913436268013A21681343CB61002085
:100A20006062012384F82030A0E71A6842F0800257
:100A30001A60C0E72268136843F040031360C2E7FE
:100A40002268136843F020031360C4E72268136828
:100A500023F010031360C6E72268136843F008030D
:100A60001360C8E72268136843F004031360CAE701
:100A70000120704790F82030013BDBB2012B05D9F3
:100A8000436A43F4802343620120704730B5464BEC
:100A9000D3F8002242F00102C3F80022D3F800226A
:100AA00022F47C52C3F80022D3F80022486A42EABA
:100AB0000022C3F800224A6902F01F02012000FA56
:100AC00002F2D3F81C026FEA020C20EA0200C3F81B
:100AD0001C02CB69C3B9344BD3F80C020CEA0000FA
:100AE000C3F80C028C884869CD6844EA0544483054
:100AF00043F830408C68088840EA04404C6904F1AF
:100B0000480E03EBCE035860CB69012B1ED08B69D6
:100B1000002B33D12448D0F804320CEA0303C0F888
:100B200004320B698BBB2048D0F814320CEA030363
:100B3000C0F814320B6A012B2ED01B4AD2F80032B7
:100B400023F00103C2F80032002030BD164BD3F869
:100B50000C021043C3F80C028C8848690D6844EA03
:100B60000544483043F8304088894C698D6840EA34
:100B70000540483403EBC4035860C8E70A48D0F87E
:100B800004321343C0F80432CBE70748D0F81432DC
:100B90001343C0F81432CDE70349D1F81C32134394
:100BA000C1F81C32C9E700BF0064004070B50446BC
:100BB00090F82050EDB2012D06D0436A43F4002393
:100BC00043620125284670BD022380F82030026868
:100BD000136823F001031360FFF78CFE06462368B9
:100BE0005B6813F0010F0CD0FFF784FE831B0A2B08
:100BF000F5D9636A43F400336362052384F8203037
:100C0000E0E700256562DDE730B590F820C00468B4
:100C1000A4680CF1FF3C5FFA8CFCBCF1010F62D8B8
:100C200014F0E05F59D0C4F3016C012404FA0CF411
:100C30001C608B68002B3DD10D68CB68046843EACB
:100C400045550CF118031B01E55003680C690CF1C4
:100C5000180E03EB0E135C600B7D012B35D0D179A0
:100C600093791B0443EA0163517943EA0123147920
:100C70000168234301EB0C11C1F88C31D1789378D2
:100C80001B0443EA0163517843EA012311780268A7
:100C90000B4302EB0C12C2F8883102680CF1180CFD
:100CA0004FEA0C1C52F80C3043F0010342F80C30B0
:100CB00000201DE04C6843EAC403CC6823430CF1D8
:100CC0001804240105682B51BFE7036803EB0E13DA
:100CD000596841F480715960C1E7436A43F40013D5
:100CE0004362012004E0436A43F48023436201200D
:100CF00030BD90F820C00CF1FF3C5FFA8CFCBCF1D9
:100D0000010F00F2A58030B451B90468E46814F012
:100D1000030F10D1436A43F40013436201207EE0C5
:100D20000468246914F0030F05D1436A43F40013E7
:100D30004362012073E0056801F11B0424012C5972
:100D400004F004049460002C6BD1056801F11B04CD
:100D500024012C59640D1460046801F11B0C4FEA46
:100D60000C1C54F80C4004F00204D4600468A44441
:100D7000DCF8045015F0080F5BD0082414610468F7
:100D800001F11B0C04EB0C146468C4F30724946198
:100D9000046804EB0C146468240C5461026802EBD0
:100DA0000112D2F8B8211A70026802EB0112D2F8CF
:100DB000B821C2F307225A70026802EB0112D2F87E
:100DC000B821C2F307429A70026802EB0112D2F80E
:100DD000B821120EDA70026802EB0112D2F8BC21BF
:100DE0001A71026802EB0112D2F8BC21C2F3072289
:100DF0005A71026802EB0112D2F8BC21C2F3074219
:100E00009A71026802EB0112D2F8BC21120EDA715B
:100E1000C1B90268D36843F02003D360002030BC1E
:100E20007047056801F11B0424012C59E408546043
:100E300092E701F11B0504EB0514646804F00F044C
:100E400014619CE70268136943F020031361E5E72E
:100E5000436A43F4802343620120704790F82030B6
:100E6000013BDBB2012B05D9436A43F48023436283
:100E700001207047026853690B435361002070479B
:100E800070477047704770477047704770477047AA
:100E900070477047704770472DE9F84F0546036863
:100EA0005C69D3F804809F68D3F80CA0D3F8109045
:100EB000D3F818B014F001063BD017F0010616D095
:100EC00001229A6017F0020F08D117F0040F0CD11D
:100ED00017F0080606D04FF4805608E0FFF7D0FF61
:100EE000002604E0FFF7CFFF01E04FF4006617F49F
:100EF000807F0DD02B684FF480729A6017F4007FCA
:100F000040F0968017F4806F00F0968046F400560B
:100F100017F4803F0DD02B684FF480329A6017F49D
:100F2000003F40F0938017F4802F00F0938046F448
:100F3000004614F0080F07D01AF0100F04D046F442
:100F400000762B681022DA6014F0040F03D01AF038
:100F5000080F40F0898014F0020F05D02B68DB6881
:100F600013F0030F40F0878014F0400F07D019F002
:100F7000100F04D046F480662B6810221A6114F01A
:100F8000200F02D019F0080F79D114F0100F04D0FF
:100F90002B681B6913F0030F78D114F4003F02D0C3
:100FA00018F0100F76D114F4803F02D018F0080F1B
:100FB00077D114F4004F37D018F0040F31D014F467
:100FC000807F04D01BF0010F01D046F0010614F41D
:100FD000007F04D01BF0020F01D046F0020614F48B
:100FE000806F04D01BF0040F01D046F0040614F407
:100FF000006F16D01BF0700B13D0BBF1400F66D002
:1010000056D8BBF1200F5CD0BBF1300F5CD0BBF1E8
:10101000100F01D146F008062A68936923F0700387
:1010200093612B6804225A60002E56D1BDE8F88FD8
:101030002846FFF726FF6BE717F4006F02D046F44F
:10104000804665E72846FFF71FFF61E72846FFF760
:1010500019FF6EE717F4002F02D046F4803668E7D8
:101060002846FFF712FF64E72B680822DA6028465B
:10107000FFF70CFF6FE7284601F04CF874E72B6888
:1010800008221A612846FFF703FF7EE72846FFF78C
:10109000FEFE82E72B6810225A602846FFF7F9FE11
:1010A00081E72B6808225A602846FFF7F3FE80E7A5
:1010B000BBF1500F0ED0BBF1600FADD146F480767E
:1010C000AAE746F01006A7E746F02006A4E746F098
:1010D0004006A1E746F080069EE76B6A33436B62E9
:1010E0002846FFF7D8FEA1E7002807DB00F01F0223
:1010F000400901239340024A42F82030704700BF64
:1011000000E100E0002808DB0901C9B200F16040FD
:1011100000F5614080F80013704700F00F000901EE
:10112000C9B2014B1954704714ED00E000B500F04E
:101130000700C0F1070CBCF1040F28BF4FF0040CEE
:10114000031D062B0FD9C31E4FF0FF3E0EFA0CF005
:1011500021EA000199400EFA03FE22EA0E0241EA5A
:1011600002005DF804FB0023EEE70000074AD368A5
:1011700023F4E0631B041B0C000200F4E060034353
:1011800043F0BF6343F40033D360704700ED00E0E9
:1011900010B50446054BD868C0F30220FFF7C6FF20
:1011A00001462046FFF7AEFF10BD00BF00ED00E096
:1011B00008B5FFF799FF08BD00230F2B00F2E98067
:1011C00070B582B065E085684FEA430E032404FAE7
:1011D0000EF425EA0405CC6804FA0EF42C4384606E
:1011E000446824EA02044A68C2F300129A40224387
:1011F00042605CE0DC08083450F8242003F0070566
:10120000AD004FF00F0E0EFA05FE22EA0E0E0A692F
:10121000AA4042EA0E0240F824205CE0072200E0E7
:10122000002202FA0EF22A4302345A4D45F82420D5
:10123000594A94686FEA0C0224EA0C054E6816F4C9
:10124000801F01D04CEA0405534CA560E46802EA13
:1012500004054E6816F4001F01D04CEA04054E4CFC
:10126000E560646802EA04054E6816F4003F01D0A8
:101270004CEA0405484C6560246822404D6815F42A
:10128000803F01D04CEA0402434C226001330F2B13
:101290007DD801229A400C6804EA020C32EA040468
:1012A000F4D14C6804F00304013C012C8BD94A684A
:1012B00002F00302032A09D0C4685D000322AA4099
:1012C00024EA02048A68AA402243C2604A6802F003
:1012D0000302022A8ED004684FEA430E032202FA68
:1012E0000EF224EA02044A6802F0030202FA0EF245
:1012F000224302604A6812F4403FC7D000220192A4
:10130000264A546C44F480445464526C02F4804283
:101310000192019A9C08A51C1E4A52F8255003F020
:10132000030E4FEA8E0E0F2202FA0EF225EA020594
:101330001B4A90423FF474AF02F5806290421AD08B
:1013400002F58062904218D002F58062904216D079
:1013500002F58062904214D002F58062904212D071
:1013600002F58062904210D002F5806290423FF414
:1013700055AF082255E7012253E7022251E7032225
:101380004FE704224DE705224BE7062249E702B06A
:1013900070BD704700380140003C014000380240F9
:1013A00000000240002800F0E08170B582B00446E1
:1013B000036813F0010F3BD09F4B9B6803F00C03B5
:1013C000042B2CD09C4B9B6803F00C03082B21D0E2
:1013D0006368B3F5803F4FD0B3F5A02F52D0964B42
:1013E0001A6822F480321A601A6822F480221A6085
:1013F0006368002B50D0FFF77DFA05468E4B1B68C3
:1014000013F4003F14D1FFF775FA401B6428F5D997
:101410000320B1E1884B5B6813F4800FD8D0864B72
:101420001B6813F4003F03D06368002B00F09F811A
:10143000236813F0020F54D07F4B9B6813F00C0FFE
:101440003ED07D4B9B6803F00C03082B33D0E36840
:10145000002B68D0794B01221A60FFF74BFA054642
:10146000754B1B6813F0020F54D1FFF743FA401B72
:101470000228F5D903207FE16F4A136843F48033D3
:101480001360B5E76C4B1A6842F480221A601A6840
:1014900042F480321A60ABE7FFF72CFA0546664B40
:1014A0001B6813F4003FC3D0FFF724FA401B6428E5
:1014B000F5D9032060E1604B5B6813F4800FC6D15F
:1014C0005D4B1B6813F0020F03D0E368012B40F063
:1014D0005081594A136823F0F803216943EAC10394
:1014E0001360236813F0080F42D063696BB3534B4A
:1014F0000122C3F8802EFFF7FDF905464E4B5B6FC6
:1015000013F0020F34D1FFF7F5F9401B0228F5D98B
:10151000032031E1484A136823F0F803216943EAC4
:10152000C1031360DDE7454B00221A60FFF7E2F9C3
:101530000546414B1B6813F0020FD2D0FFF7DAF9D2
:10154000401B0228F5D9032016E13C4B0022C3F8CA
:10155000802EFFF7CFF90546374B5B6F13F0020F74
:1015600006D0FFF7C7F9401B0228F5D9032003E195
:10157000236813F0040F77D02F4B1B6C13F0805FA0
:1015800033D1002301932C4B1A6C42F080521A6421
:101590001B6C03F080530193019B0125284B1B68B2
:1015A00013F4807F23D0A368012B34D0052B38D0CF
:1015B000214B1A6F22F001021A671A6F22F00402FF
:1015C0001A67A368002B3DD0FFF794F906461A4B23
:1015D0001B6F13F0020F46D1FFF78CF9801B41F20D
:1015E00088339842F3D90320C6E00025D6E7144A91
:1015F000136843F480731360FFF77CF90646104BC1
:101600001B6813F4807FCED1FFF774F9801B02288A
:10161000F5D90320B0E0084A136F43F001031367C4
:10162000CFE7054B1A6F42F004021A671A6F42F0B7
:1016300001021A67C5E700BF0038024000004742B8
:1016400000700040FFF756F90646524B1B6F13F02F
:10165000020F08D0FFF74EF9801B41F28833984201
:10166000F3D9032088E0EDB9A369002B00F0838053
:10167000484A926802F00C02082A51D0022B17D077
:10168000454B00221A66FFF735F90446414B1B68AB
:1016900013F0007F42D0FFF72DF9001B0228F5D987
:1016A000032069E03B4A136C23F080531364DBE7AB
:1016B000394B00221A66FFF71DF90546354B1B68AA
:1016C00013F0007F06D0FFF715F9401B0228F5D96B
:1016D000032051E0E369226A1343626A43EA8213FA
:1016E000A26A5208013A43EA0243E26A43EA026309
:1016F000284A5360284B01221A66FFF7FBF804467C
:10170000244B1B6813F0007F06D1FFF7F3F8001B92
:101710000228F5D903202FE000202DE000202BE047
:10172000012B2BD01B4B5B6803F48001E2699142D3
:1017300026D103F03F02216A8A4223D1616A47F62B
:10174000C0721A40B2EB811F1ED103F44031A26A6D
:101750005208013AB1EB024F18D103F07063E26A0C
:10176000B3EB026F14D1002006E001207047012086
:1017700002E0012000E0002002B070BD0120FBE784
:101780000120F9E70120F7E70120F5E70120F3E761
:101790000120F1E7003802400000474208B5264B1F
:1017A0009B6803F00C03042B41D0082B41D1224B42
:1017B0005A6802F03F025B6813F4800F12D01E4B90
:1017C0005968C1F388111D480023A1FB0001FEF7F1
:1017D000DFFC194B5B68C3F3014301335B00B0FBD3
:1017E000F3F008BD144B5868C0F388104FEA401C52
:1017F000BCEB000C6EEB0E0E4FEA8E1343EA9C63BB
:101800004FEA8C11B1EB0C0163EB0E03DB0043EAF2
:101810005173C90011EB000C43F10003990200233E
:101820004FEA8C2041EA9C51FEF7B2FCD1E7034815
:10183000D7E70348D5E700BF00380240001BB700D8
:101840000024F400002800F09B8070B50D4604468B
:101850004F4B1B6803F007038B4208D2CBB24C4AB4
:101860001370136803F007038B4240F08B802368EA
:1018700013F0020F17D013F0040F04D0454A9368F9
:1018800043F4E0539360236813F0080F04D0414AF7
:10189000936843F4604393603E4A936823F0F003F7
:1018A000A1680B439360236813F0010F32D0636883
:1018B000012B21D09A1E012A25D9364A126812F02E
:1018C000020F61D033498A6822F0030213438B6010
:1018D000FFF710F806462F4B9B6803F00C03626875
:1018E000B3EB820F16D0FFF705F8801B41F2883367
:1018F0009842F0D9032042E0264A126812F4003FD1
:10190000E0D101203BE0234A126812F0007FD9D1D8
:10191000012034E01E4B1B6803F00703AB4207D9DC
:10192000EAB21B4B1A701B6803F00703AB422DD1C0
:10193000236813F0040F06D0164A936823F4E0538B
:10194000E1680B439360236813F0080F07D0114A36
:10195000936823F46043216943EAC1039360FFF76E
:101960001DFF0C4B9B68C3F303130B4AD35CD84099
:101970000A4B18600A4B1868FEF7F6FE002070BD8F
:10198000012070470120FAE70120F8E70120F6E77F
:10199000003C0240003802402036000800000020D1
:1019A00008000020014B1868704700BF00000020AD
:1019B00008B5FFF7F7FF044B9B68C3F38223034A84
:1019C000D35CD84008BD00BF00380240183600087C
:1019D0000F2303600B4B9A6802F0030242609A687F
:1019E00002F0F00282609A6802F4E052C2609B68E2
:1019F000DB0803F4E0530361034B1B6803F00703A8
:101A00000B60704700380240003C02407047000005
:101A100090F83D30DBB2012B37D1022380F83D3006
:101A20000268D36843F00103D3600368194A934204
:101A300020D0B3F1804F1DD0A2F57C42934219D043
:101A400002F58062934215D002F58062934211D074
:101A500002F5784293420DD002F57052934209D0BC
:101A6000A2F59432934205D01A6842F001021A603E
:101A7000002070479A6802F00702062A07D01A6809
:101A800042F001021A6000207047012070470020D8
:101A9000704700BF000001407047704770477047B3
:101AA000704770B504460368DE681D6915F0020FC3
:101AB00010D016F0020F0DD06FF002021A61012350
:101AC000037703689B6913F0030F5ED0FFF7E6FF0F
:101AD0000023237715F0040F12D016F0040F0FD057
:101AE00023686FF004021A610223237723689B693D
:101AF00013F4407F4FD02046FFF7D0FF0023237719
:101B000015F0080F12D016F0080F0FD023686FF0F1
:101B100008021A61042323772368DB6913F0030F9B
:101B200040D02046FFF7BAFF0023237715F0100FAF
:101B300012D016F0100F0FD023686FF010021A6148
:101B4000082323772368DB6913F4407F31D02046D4
:101B5000FFF7A4FF0023237715F0010F02D016F042
:101B6000010F2DD115F0800F02D016F0800F2FD16C
:101B700015F0400F02D016F0400F31D115F0200FB4
:101B800002D016F0200F33D170BDFFF786FF20463C
:101B9000FFF785FF9CE72046FFF77FFF2046FFF712
:101BA0007EFFABE72046FFF778FF2046FFF777FF81
:101BB000BAE72046FFF771FF2046FFF770FFC9E73D
:101BC00023686FF001021A612046FFF765FFC9E73D
:101BD00023686FF080021A61204600F0A6F8C7E77C
:101BE00023686FF040021A612046FFF759FFC5E7EE
:101BF00023686FF020021A61204600F095F8C3E7D1
:101C00000368324A904212D0B0F1804F0FD0A2F553
:101C10007C4290420BD002F58062904207D002F5E0
:101C20008062904203D002F57842904203D123F0C3
:101C300070034A681343254A90422AD0B0F1804F7E
:101C400027D0A2F57C42904223D002F580629042D8
:101C50001FD002F5806290421BD002F5784290427C
:101C600017D002F57052904213D002F58062904274
:101C70000FD002F5806290420BD0A2F598329042CC
:101C800007D002F58062904203D002F58062904254
:101C900003D123F44073CA68134323F080034A69D5
:101CA00013438A68C2620A688262084A904203D07B
:101CB00002F58062904201D10A690263026842F033
:101CC000040202600122426103607047000001408B
:101CD00040B310B5044690F83D30F3B1022384F8C8
:101CE0003D30214651F8040BFFF78AFF012384F8A9
:101CF000463084F83E3084F83F3084F8403084F831
:101D0000413084F8423084F8433084F8443084F819
:101D1000453084F83D30002010BD80F83C30FFF79E
:101D200075FEDBE7012070477047704743684B60E2
:101D30009A688A60516099600861036801330360A2
:101D400070470369416882688A60416851605A68D7
:101D5000824206D0002202611A68013A1A601868AD
:101D6000704782685A60F5E700000000000000003C
:101D7000074B19680868B0E8F04F80F30988BFF393
:101D80006F8F4FF0000080F311887047AFF3008031
:101D9000940200200000000000000000000000008D
:101DA000EFF30980BFF36F8F154B1A681EF0100F09
:101DB00008BF20ED108A20E9F04F10602DE90900DE
:101DC0004FF0500080F31188BFF34F8FBFF36F8F38
:101DD00000F0D0F84FF0000080F3118809BC1968BA
:101DE0000868B0E8F04F1EF0100F08BFB0EC108A82
:101DF00080F30988BFF36F8F704700BFAFF3008097
:101E00009402002008B54FF0500383F31188BFF30C
:101E10006F8FBFF34F8F00F021F828B14FF0E02310
:101E20004FF08052C3F8042D002383F3118808BDBE
:101E3000084B1B681B6823B9074B4FF0FF321A6031
:101E40007047044B1B68DB68DB685A68024B1A60FA
:101E5000704700BF04020020E8010020F8B53A4BAB
:101E60001B68002B69D1394B1D6801351D60C5B950
:101E7000374B1B681B6843B14FF0500383F3118845
:101E8000BFF36F8FBFF34F8FFEE7314A1168314BBD
:101E9000186810601960304A136801331360FFF747
:101EA000C7FF2E4B1B68AB423DD900272C4B1B684C
:101EB000DB6A03EB83039A002A4B9B58012B00D962
:101EC0000127294B1B68002B3CD001273AE0012752
:101ED0001F4B1B681B6843B31D4B1B68DB68DC682A
:101EE00063689D4226D3261D3046FFF72AFFA36A6A
:101EF0001BB104F11800FFF724FFE36A01229A40A6
:101F00001A49086802430A6003EB83039A003146CA
:101F100014481044FFF70AFFE26A114B1B68DB6AA2
:101F20009A42D4D2D4E70027D2E70C4B4FF0FF32CD
:101F30001A60BBE7094A1360B8E70D4A136801331A
:101F4000136000273846F8BDE4010020FC010020A2
:101F50000402002000020020EC010020E801002023
:101F60009402002008020020F0010020F801002067
:101F7000F4010020224B1B681BB1224B01221A6086
:101F80007047204B00221A601F4B1B68B3FA83F383
:101F9000DBB2C3F11F0303EB83018A001B498A589C
:101FA00042B94FF0500383F31188BFF36F8FBFF333
:101FB0004F8FFEE7154803EB83018A000244516806
:101FC0004968516003EB830C4FEA8C0208320244EB
:101FD00091420DD003EB83039A000C4B13445B68D2
:101FE000DA680B4B1A601B6850330A4A136070475B
:101FF000486862469100054A0A445060EAE700BF1B
:10200000E4010020F0010020F80100200802002077
:10201000940200200C00002010B58AB00023059324
:10202000012208920693079200930193029303936F
:1020300004930993064C69462046FEF71BFD204693
:10204000FEF7B4FD02212046FEF708FF0AB010BDDE
:102050007001002010B58AB0BDF930E0BDF934C080
:10206000002009900824079405900391069042FAF5
:1020700004F18DF804108DF8052043FA04F28DF870
:1020800006208DF807309DF931308DF808308DF835
:1020900009E09DF935308DF80A308DF80BC009AB99
:1020A00001AA03A90248FEF7AFFD0AB010BD00BFA8
:1020B0007001002000B589B0124B01AA002112481E
:1020C000FEF717FEBDF90430104A138040F20622D5
:1020D000934202D009B05DF804FB0A4B1A78597894
:1020E00041EA02210A4A11809878D97841EA002110
:1020F00051801879597941EA002191809B79D380E8
:10210000E8E700BFA4020020700100209802002030
:102110009C02002000B583B001A8FFF7CBFF03B0FD
:102120005DF804FB10B52DED028B0E48FFF774FF30
:102130009FED0D8A0D4CB0EE481AF0EE480AB0EE55
:10214000480A0B49204600F045F8B0EE481AF0EE78
:10215000480AB0EE480A0749204600F03BF8BDECBB
:10216000028B10BD1C03002000000000AC02002008
:10217000C80300209003002000B583B0104B1A88DC
:1021800000EE902AB3F9023001EE103AB8EEC11A0F
:10219000F8EE600A0B4A0C490C4800F0B4F8BDEEAA
:1021A000C00A00220192009210EE103A1BB240F2D7
:1021B000FF110748FFF74EFF03B05DF804FB00BFB7
:1021C0009C020020C803002090030020AC020020E5
:1021D0001C03002081ED000AC1ED010A81ED021A05
:1021E0004FF07E538B62024BCB620B634B637047A5
:1021F0000060EA4681ED090AC1ED080ACB680B616F
:1022000070EEC00AC1ED030AD1ED0A7AF4EEE70AD6
:10221000F1EE10FA08D5F1EE677AF4EEE70AF1EE86
:1022200010FA01DD0023CB60D1ED057A91ED037A40
:1022300077EE877AC1ED057A91ED0B7AF4EEC77AE5
:10224000F1EE10FA02DD81ED057A7047B1EE477AC2
:10225000F4EEC77AF1EE10FA01D581ED057A7047F8
:10226000D1ED007A91ED037A67EE877AD1ED026ABB
:1022700091ED046A37EE467A26EE877A77EE877A12
:1022800091ED057AD1ED016A27EE267A77EE877A0D
:10229000C1ED067A91ED0C7AF4EEC77AF1EE10FA00
:1022A00001DB81ED067AD1ED067AB1EE477AF4EEE4
:1022B000C77AF1EE10FA01D881ED067AD1ED066AFF
:1022C000D1ED077A76EEE76A91ED0D7AF4EEC76A02
:1022D000F1EE10FA03DD77EE876AC1ED066AD1ED03
:1022E000066A76EEE76AB1EE476AF4EEC66AF1EE88
:1022F00010FA03D577EEC77AC1ED067A91ED060A9A
:1023000081ED070A704770B52DED028B05460C462E
:102310001646F0EE607AB0EE418AF0EE400AB0EE7A
:10232000670A1146FFF766FF31462846FFF798FF18
:10233000D6ED060AB0EE480A21462846FFF75AFFB6
:1023400021462846FFF78CFF94ED060ABDEC028B70
:1023500070BD00002DE9F047089D0E4604460F466B
:10236000002B4AD194468C45B2FA82F260D942B130
:10237000C2F12003974020FA03F30CFA02FC1F433A
:1023800094404FEA1C4E1FFA8CF6B7FBFEF1230C6B
:102390000EFB117743EA074301FB06F098420AD986
:1023A0001CEB030301F1FF3780F01581984240F2E6
:1023B0001281023963441B1AA4B2B3FBFEF00EFB78
:1023C000103344EA034400FB06F6A6420AD91CEB8C
:1023D000040400F1FF3380F00081A64240F2FD804A
:1023E0006444023840EA0140A41B00211DB1D440DE
:1023F0000023C5E90043BDE8F0878B4205D90DB144
:10240000C5E9000100210846F5E7B3FA83F1002988
:1024100046D1B34202D3824200F2F580841A66EBC1
:10242000030201201746002DE5D0C5E90047E2E789
:10243000002A40F09380A1EB0C034FEA1C471FFADF
:102440008CFE0121B3FBF7F607FB1630230C43EAA1
:1024500000430EFB06F0984208D91CEB030306F17B
:10246000FF3802D2984200F2D08046461B1AA4B22E
:10247000B3FBF7F007FB103344EA03440EFB00FE06
:10248000A64508D91CEB040400F1FF3302D2A6458F
:1024900000F2B6801846A4EB0E0440EA0640A5E719
:1024A000C1F120078B4022FA07FC4CEA030C06FA24
:1024B00001FE20FA07F426FA07F344EA0E0400FAB4
:1024C00001F84FEA1C404FEA1449B3FBF0FE1FFA33
:1024D0008CF600FB1E3349EA03430EFB06F99945CF
:1024E00002FA01F20BD91CEB03030EF1FF3A80F064
:1024F0008580994540F28280AEF1020E6344A3EBE1
:102500000909A4B2B9FBF0F300FB139944EA0944AA
:1025100003FB06F6A64208D91CEB040403F1FF30C6
:1025200068D2A64266D9023B644443EA0E40A41B2B
:10253000A0FB02E6B4427346B14652D34FD05DB120
:10254000B8EB030264EB090404FA07F722FA01F37B
:102550001F43CC40C5E9007400214CE7C2F12001C3
:1025600020FA01F30CFA02FC26FA01F196403343FB
:102570004FEA1C471FFA8CFEB1FBF7F007FB101661
:10258000190C41EA064100FB0EF68E4204FA02F4F1
:1025900008D91CEB010100F1FF382DD28E422BD956
:1025A00002386144891B9BB2B1FBF7F607FB161199
:1025B00043EA014306FB0EF1994208D91CEB0303E1
:1025C00006F1FF3814D2994212D9023E63445B1AD5
:1025D00046EA004136E73946EDE6184602E7F0459F
:1025E000ADD2BEEB020366EB0C060138B146A6E79E
:1025F0004646ECE7034698E74046D3E7D6467EE7F3
:102600006444023847E708460DE7023E63442DE77D
:1026100003685A004CBF43F0004323F000431844C2
:10262000704700BF2DE9F04759B301F1FF38054667
:10263000164647464FF0000A0AEB070101EBD1713D
:10264000491005EBC1094846FFF7E2FF88454FEA0C
:10265000C104034610D004F10800B342284407D84F
:10266000FFF7D6FF0138B04208D201F1010AE3E7D3
:102670008A4506D04F1EDFE7B042F9D84846BDE88C
:10268000F0874FF000094846BDE8F087012809D0DF
:10269000022805D0044B00280CBF184600207047C4
:1026A00002487047024870475D2D00086D2D0008F4
:1026B000652D000830B5224B83B004468D1E43B310
:1026C00001A92846AFF30080F0B101992A46FFF72F
:1026D000A9FF0146C0B1FFF79BFF4B68A064012B27
:1026E0002BD0002B01F1040025DBFFF791FF002325
:1026F00023650368E064002B12DBFFF789FF0346C4
:102700000020236103B030BD00230920236103B002
:1027100030BD0C4B0C49C91AC91018460191D5E7B8
:10272000C3F30360FFF7B2FF031E0CBF09200020B4
:10273000236103B030BD0123DAE700230520E0E781
:10274000000000003C3600080C3700080368DA0778
:1027500010B5044606D49B0700F1500009D5FDF7DB
:1027600043FD2368590709D51A070ED5DB0613D593
:1027700010BDFDF731FD23685907F5D404F1D800E9
:10278000FDF73AFD23681A07F0D404F5AC70FDF7A5
:102790003BFD2368DB06EBD404F5EC70BDE810408C
:1027A000FDF776BD0346006800B11844704700BFCE
:1027B000704700BF70B504460E46316C2046FFF7E7
:1027C00079FF054688B9326C626123693246214639
:1027D000012098470828F0D0072806D12846316CF8
:1027E000FFF7E6FF301DFDF7EBFC00F0D5FD00BF65
:1027F0002DE9F04701F1040CC768D0F818800646AF
:102800009146BCE80F00ADF5767D03AC0FC4BCE883
:102810000F000FC4BCE80F000FC49CE80F0002AD0E
:102820004FF0000E84E80F00C5F800E021E02B6CAB
:1028300073614FF4F47229467CA8FDF799FD336962
:102840007CAA3146504698478A9BAB644946CDE9FD
:1028500000588246334601203246B847814630BB95
:102860004FF4F4727CA92846FDF782FDBAF1080FF7
:102870001AD1296C3046FFF71DFF09F109090446FA
:102880005FFA89FA0028D2D0AB6BAB643246CDE94F
:10289000005833464AF010010120B84738B92046A5
:1028A0000DF5767DBDE8F087BAF1070F05D0092454
:1028B00020460DF5767DBDE8F0874846296CFFF788
:1028C00077FF03A8FDF77CFCF0B5CB6BFBB001F103
:1028D000040C0B640E460546BCE80F0001AC0FC4A7
:1028E000BCE80F000FC4BCE80F000FC49CE80F0049
:1028F0004FF0FF3784E80F00009706E02B696A4627
:10290000294698470828044608D110992846FFF719
:10291000D1FE0028F2D009207BB0F0BD6846FFF759
:1029200015FF062CF7D131462846FFF743FF00BFBD
:10293000C160D96B8261196400221946FFF758BF44
:1029400070B5C66843690B64AEB903690A460446AC
:102950000D46014602209847072805D008280FD1C8
:1029600029462046FFF726FF3046296CFFF720FF57
:10297000281DFDF725FC0122FFF73AFF00F00CFDB2
:1029800000F00AFDC26822B1CA6B0A640022FFF798
:102990002FBFFFF799BF00BF052915D8DFE801F069
:1029A0000A031403030501207047009A436C136067
:1029B0000020704743B90F2A06D800EB820200209E
:1029C0005368009A136070470220704700B585B0C5
:1029D0000A46002303A900911946FFF7DDFF03987B
:1029E00005B05DF804FB00BF052915D8DFE801F04C
:1029F0000A031403030501207047009B1B6843640E
:102A00000020704743B90F2A06D8009B00EB8202D2
:102A10001B685360002070470220704710B584B0D7
:102A2000002303AC039200940A461946FFF7DCFF2B
:102A300004B010BD70B5D36BADF5107D02F1040C80
:102A4000136405460C46BCE80F000DF15C0EAEE8C1
:102A50000F00BCE80F00AEE80F00BCE80F00AEE8C6
:102A60000F009CE80F004FF0FF368EE80F0016961F
:102A700010E0FFF7D3FF214616A8A847034616AA81
:102A80000820694683B9049B9847052806460CD060
:102A9000092809D026996846FFF70CFE03460C2149
:102AA0006A4616A8002BE4D0092616A8FFF74EFEAA
:102AB00030460DF5107D70BD2DE9F04F1646CA6CFD
:102AC00089B00D4652F8041B069200F0030C002B4F
:102AD00079D00C0C8DF81D400904E4B2059102EB8D
:102AE000840202218DF81C10296DBCF1020F08BF71
:102AF000AA6B11F0010809D005A9304600F0CEFA02
:102B0000002856D1082009B0BDE8F08F1768002FC3
:102B1000F2D000F00801CDE90118E3469A46BAF177
:102B2000020F4CD01788548802F10409AA6C24F0D3
:102B300001030F21304603EB0208FFF747FF8045F2
:102B40003BD827F0010202EB0803834294BF002325
:102B50000123640004F0020407F001072743012F5A
:102B60004ED0022F35D027BBBBF1000F02D0002B77
:102B700040F0D38009F104021768002FCFD105A9D6
:102B80003046DDF8088000F089FA90B9B8F1000FFE
:102B9000B8D00F213046FFF719FF0E21024630460C
:102BA000FFF73CFF6C4A0F213046FFF737FF072045
:102BB00000E0092009B0BDE8F08F0023C9E75468A0
:102BC00002F10809B2E7090205918DF81D300321D1
:102BD00088E7D9F8004024F00048BBF1000F47D146
:102BE0002BB1019B002B5CD0B8F1000F59D0002C09
:102BF00001DA09F1040908F1010209EB8202BBE7DD
:102C0000BBF1000F1CD1C3B1D9F80430D9F80020B2
:102C1000991C4FEAD272CCD005F1580401330494C8
:102C200000F08E8009F10400FFF7BCFD04AB014603
:102C30002846AFF30080002859D109F108029BE72C
:102C40000D213046FFF7C2FE2C6A8442F5D1AB6AF3
:102C50009945F2D14846FFF7DBFC0F21024630468A
:102C6000FFF7DCFE2A4600213046FFF7D7FE9EE73D
:102C70000D213046FFF7AAFE2F6A8742B7D1AB6A13
:102C80009945B4D100240423C5E90B434B44C5F84E
:102C900028806B63D9F80030A34258DB01230293EC
:102CA000A9E705F15803CDF80CB009F10407B346C4
:102CB00000241E460BE038460496FFF773FD002201
:102CC000014604AB2846AFF300800437F8B9444509
:102CD00004F10104EFD10D215846FFF777FE049B64
:102CE000C5F828900246C5E90823062062E7044695
:102CF0000D213046FFF76AFE049E2862022C04BFB5
:102D0000EE6205F12C06C5E90969062052E75E4628
:102D1000D9F80040DDF80CB069E74846FFF778FCC9
:102D200009F104030446AB632846AFF30080002892
:102D30003FF43FAF22460F213046FFF76FFE36E7E4
:102D400030460D21FFF742FE26462862DBE708F1F8
:102D5000010209EB82007EE7000000000023FFF77C
:102D6000ABBE00BF0123FFF7A7BE00BF0223FFF7E2
:102D7000A3BE00BF2DE9F0410646C4B014460529A4
:102D800000F2D880DFE811F012002D00D6006C00B0
:102D900091000600836B002C40F0CC8053F8042B8C
:102DA00042648363002044B0BDE8F081002B40F012
:102DB000C180856B1FFA84FC012006F1040E00FA25
:102DC00003F111EA0C0F2A4604D052F8041B4EF806
:102DD000231015460133102BF1D1A704E2D4B563BB
:102DE000E0E7012B4FEA1447A4B200F08380052BE3
:102DF00040F0A08007EB0408B8F1200F00F29A80A1
:102E00000F2F40F29980002CCCD00268500700F1BF
:102E10001881019302AD2846FDF7F2F94FEA440C00
:102E2000A7F11000B16B019B0CF1FF3C05EBC0005A
:102E30000CF1010C043801EB8C0251F8044B40F802
:102E4000044F9142F9D1012B00F0DE800F2FB163C6
:102E500002D822A8FDF7C8F92846FDF7CDF9A1E769
:102E6000032B67D1A7B207EB1443102B4FEA14448E
:102E700060D80368190700F1BF8022AD2846FDF72E
:102E8000E5F97A00B06B05EBC404531E42B1011B97
:102E9000625844F8042B013B5A1CF9D100EBC700DF
:102EA000B0632846FDF7B0F97CE7002B42D1102C27
:102EB00040D80368DD0600F1978022AD2846FDF773
:102EC000F1F9B76B294600234FF0010C0CFA03F21D
:102ED0002242384603F1010303D050F8042B0A6064
:102EE0000746042B01F10401F0D1B7632846FDF732
:102EF000CFF957E73A19102A1CD8102F1AD00268B8
:102F0000D00708D5304622F0030240F8502B019339
:102F1000FDF766F9019B019322AD2846FDF760F9A4
:102F2000B26B019B002C58D10432B2632846FDF7E6
:102F300053F937E7022036E7B8F1100F026865D978
:102F4000D40772D522F0010242F0020240F8502B61
:102F50000193FDF74DF93268019B12F0040F66D121
:102F600022AD28460193FDF743F902A8FDF748F981
:102F7000C7F110014900B26B019BA8F1100C4C1E67
:102F800005EBC7000134043802EB840152F8044B0E
:102F900040F8044F8A42F9D1BCF1000F5AD0102FEB
:102FA000384638BF10204FEA4C0C103802AD0CF1F7
:102FB000FF3C05EBC0003BE7304622F0010242F047
:102FC000020240F8502B22AD0193FDF711F928467B
:102FD000FDF70EF9B26B24B3019B6400013C05EBD5
:102FE000C7004FF0000CCDE723F01003036000F59D
:102FF000EC70FDF757F960E723F00803036000F574
:10300000AC70FDF723F938E722AD8DE7D107D3D4B3
:1030100022AD28460193FDF7EBF8B26B019B002C23
:10302000DBD12846FDF7E0F8BCE6540798D53046DA
:1030300022F0040240F8D82B0193FDF7E1F8019B40
:103040008EE7304622F0040240F8D82B0193FDF7BA
:10305000D7F8DFE6012B3FF467AF0F2FB2633FF6DF
:10306000A1AEDEE7027A03467AB9427AA2B141689C
:10307000013A10B44272086803220C1D1A7202024F
:103080005C60000E10BC1A6070470068013A1A724A
:1030900002021A60000E7047B02070472DE9F0431D
:1030A000064685B00D464FF000082846FFF7DAFFC8
:1030B000B028044600F01C8107065BD500F0F00341
:1030C000A02B1AD030D8802B00F08280902B27D1F3
:1030D00000F00D030D2B23D002AF002300F00F02F0
:1030E000194600973046FFF757FC002300970D2242
:1030F00019463046FFF778FCD7E7C34303F00703D0
:103100004FF47F621A41010702F47F6201D542F455
:103110008042002319463046FFF72CFE0028C4D019
:10312000092005B0BDE8F083B02B68D0C02B3DD19D
:10313000C62800F0CA80C72800F0DF8000F0F8033E
:10314000C02B00F0EC80C82800F0F780C928E7D138
:103150002846FFF787FF020300F00F0002F47022F9
:1031600001300243012105233046FFF703FE00280A
:103170009BD0D5E78300DBB21F1D0DF108090023AA
:103180001946CDF800900D223046FFF705FC029B52
:10319000CDF8009060064CBFDF1BFF1800230D2206
:1031A000194630460297FFF71FFC7EE700F0F80350
:1031B000D02BB5D100F007020132052342F40022E2
:1031C00001213046FFF7D6FD00283FF46EAFA7E798
:1031D0002846FFF747FF24022043B0F5004F9FD059
:1031E00004010023A2B219463046FFF7C3FD0028B0
:1031F00096D114F4004F18BF4FF0010855E7A0F125
:10320000B103042B00F2B580DFE803F05529160C5A
:10321000030003AA0023009219460D223046FFF74F
:10322000BBFB42E700231A4605213046FFF7A2FD0B
:1032300000283FF43AAF73E72846FFF713FF020375
:1032400000F00F00013002F47022012302431946FE
:103250003046FFF78FFD00283FF427AF60E70023DB
:103260000DF108090D221946CDF800903046FFF700
:1032700093FB2846FFF7F6FE0206029C4FF002077A
:103280000BD500F07F00B840044428460294FFF7B5
:10329000E9FE030607F10707F3D4B840002304F55D
:1032A00001740444CDF800900D2219463046029472
:1032B000FFF79AFBF9E62846FFF7D4FE431EDBB280
:1032C0000E2B02467FF625AF2AE72846FFF7CAFEF7
:1032D000020300F00F00013002F4702203230243C6
:1032E00019463046FFF746FD00283FF4DEAE17E7EB
:1032F000B8F1000F2DD0002013E72846FFF7B2FEEB
:10330000431EDBB20E2B02463FF60AAF0023042118
:103310003046FFF72FFD00283FF4C7AE00E700F06E
:103320000F020132032342F4202219463046FFF7F0
:1033300021FD00283FF4B9AEF2E62846FFF792FEE1
:1033400000F0F00200F00F031032013343EA0232C2
:1033500008E702AC4346414600940E223046FFF790
:103360001BFB0F220094434641463046FFF73CFBCF
:10337000C1E700F0FC03B42B3FF4D2AE00F007022B
:103380000132012342F4002219463046FFF7F2FCD5
:1033900000283FF48AAEC3E608B5062000F056F8D0
:1033A0000120FDF753FA00BF830730B547D0541E04
:1033B000002A3ED0CAB2034601E0013C39D303F8EB
:1033C000012B9D07F9D1032C2CD9CDB205EB052596
:1033D0000F2C05EB054535D9A4F1100222F00F0C96
:1033E00003F1100EE6444FEA121C1A46C2E90055DA
:1033F000C2E9025510327245F8D10CF1010214F005
:103400000C0F03EB021204F00F0C13D0ACF1040309
:1034100023F003030433134442F8045B9342FBD1CB
:103420000CF003042CB1C9B21C4403F8011BA342E5
:10343000FBD130BD64461346002CF4D1F9E70346B6
:103440001446C0E71A46A446E0E700BF38B5144B5F
:103450001F281D681ED8D5F83821044662B152F8DD
:1034600020304BB1012B05D0591C0FD0002142F860
:1034700020109847002038BD284600F029F8224641
:1034800001462846BDE8384000F00CB816232B60F2
:10349000012038BD16232B604FF0FF3038BD00BF30
:1034A0000C00002070B50C46084D0346002620464F
:1034B00011461C462E60FDF7C1F9431C00D070BDBB
:1034C0002B68002BFBD0236070BD00BF38050020A7
:1034D000FDF7B2B9014B1868704700BF0C0000201F
:1034E00070B50F4B0F4DAB42A3EB050607D0B610DE
:1034F000002455F8043B01349847A642F9D800F05F
:103500007FF8094D094B5E1BAB424FEAA60606D079
:10351000002455F8043B01349847A642F9D870BD01
:103520000C3700080C3700080C3700081437000867
:10353000704700BF704700BF024B13B1024800F054
:1035400005B8704700000000593500080023014607
:103550001A46184600F014B838B5074D074C2C1B16
:10356000A41005D0013C55F8043D9847002CF9D132
:10357000BDE8384000F04AB8183700081437000892
:103580002DE9F8431B4D0646286898460F4691469C
:10359000FFF7CEFF184B1C681CB3286865681F2D09
:1035A00022DC4EB96B1C0235636044F82570FFF7CE
:1035B000C1FF0020BDE8F88304EB85010123C1F8B9
:1035C0008890D4F88821AB401A43022EC4F8882191
:1035D000C1F80881E6D1D4F88C211A43C4F88C21B3
:1035E000E0E7064C1C60D8E7FFF7A4FF4FF0FF3080
:1035F000E0E700BF50010020400500204405002006
:10360000F8B500BFF8BC08BC9E467047F8B500BFCF
:08361000F8BC08BC9E4670479F
:103618000000000001020304000000000000000098
:08362800010203040607080972
:0C36300008B10181B0B00084000000006F
:10363C0034CDFF7F01000000FCCFFF7F008414809D
:10364C009CD0FF7FE0FFFF7FD0D0FF7F0100000008
:10365C00BCE9FF7FB0A8098050EAFF7F0084088096
:10366C00A8EAFF7F00840280B0EAFF7FA880C980AF
:10367C00FCEAFF7F0084028050EBFF7F010000001A
:10368C0028F0FF7FB0A90280B8F0FF7FB0B0A8800F
:10369C0008F1FF7F0100000010F1FF7FB0B0AA809D
:1036AC0044F1FF7FAE75B28014F2FF7FAB3F3A80DE
:1036BC0074F2FF7F010000007CF2FF7FB0B0AA80A3
:1036CC00B8F2FF7F0100000060F3FF7FAA0FB28009
:1036DC00DCF3FF7FB0AF088078F6FF7F01000000BD
:1036EC0088F6FF7FAC3F038070F9FF7F010000007C
:1036FC00A0F9FF7FB0AD048094FCFF7F01000000B7
:08370C00393500080D05000825
:04371400E5040008C0
:103718000024F40001000000100000001000002048
:10372800000000000004002068040020D0040020ED
:103738000000000000000000000000000000000081
:103748000000000000000000000000000000000071
:103758000000000000000000000000000000000061
:103768000000000000000000000000000000000051
:103778000000000000000000000000000000000041
:103788000000000000000000000000000000000031
:103798000000000000000000000000000000000021
:1037A8000000000000000000000000000000000011
:1037B8000000000000000000010000000000000000
:1037C8000E33CDAB34126DE6ECDE05000B000000C5
:1037D80000000000000000000000000000000000E1
:1037E80000000000000000000000000000000000D1
:1037F80000000000000000000000000000000000C1
:1038080000000000000000000000000000000000B0
:1038180000000000000000000000000000000000A0
:103828000000000000000000000000000000000090
:103838000000000000000000000000000000000080
:103848000000000000000000000000000000000070
:103858000000000000000000000000000000000060
:043868003C050020FB
:040000050800086D7A
:00000001FF
